{
  "contractName": "FlightSuretyApp",
  "abi": [
    {
      "constant": true,
      "inputs": [],
      "name": "FLIGHT_INSURANCE_AMOUNT",
      "outputs": [
        {
          "name": "",
          "type": "uint256"
        }
      ],
      "payable": false,
      "stateMutability": "view",
      "type": "function",
      "signature": "0x0ddc6c31"
    },
    {
      "constant": true,
      "inputs": [],
      "name": "REGISTRATION_FEE",
      "outputs": [
        {
          "name": "",
          "type": "uint256"
        }
      ],
      "payable": false,
      "stateMutability": "view",
      "type": "function",
      "signature": "0x64b4f751"
    },
    {
      "constant": true,
      "inputs": [],
      "name": "AIRLINE_REGISTRATION_FEE",
      "outputs": [
        {
          "name": "",
          "type": "uint256"
        }
      ],
      "payable": false,
      "stateMutability": "view",
      "type": "function",
      "signature": "0xd8f73ca5"
    },
    {
      "inputs": [
        {
          "name": "_dataContract",
          "type": "address"
        }
      ],
      "payable": false,
      "stateMutability": "nonpayable",
      "type": "constructor",
      "signature": "constructor"
    },
    {
      "anonymous": false,
      "inputs": [
        {
          "indexed": false,
          "name": "airline",
          "type": "address"
        }
      ],
      "name": "AirlineWasRegistered",
      "type": "event",
      "signature": "0xaab99a4eaa3c6b80859651427de3a99a4ffb4cbca03d8e361daaffb5f592b3a2"
    },
    {
      "anonymous": false,
      "inputs": [
        {
          "indexed": false,
          "name": "airline",
          "type": "address"
        },
        {
          "indexed": false,
          "name": "amount",
          "type": "uint256"
        }
      ],
      "name": "AirlineWasFunded",
      "type": "event",
      "signature": "0x2ddb6be289dec2d7045d25ee20d703a7e3fe936910a54b0e6d2878a338694eae"
    },
    {
      "anonymous": false,
      "inputs": [
        {
          "indexed": false,
          "name": "airline",
          "type": "address"
        },
        {
          "indexed": false,
          "name": "vote",
          "type": "uint256"
        }
      ],
      "name": "AirlineHasOneMoreVote",
      "type": "event",
      "signature": "0x2f246f18c722d5db533d3e88a3ed03bb6d8f80310923ab89b233f772385f7e73"
    },
    {
      "anonymous": false,
      "inputs": [
        {
          "indexed": false,
          "name": "flightName",
          "type": "bytes32"
        },
        {
          "indexed": false,
          "name": "timeStamp",
          "type": "uint256"
        },
        {
          "indexed": false,
          "name": "airline",
          "type": "address"
        }
      ],
      "name": "FlightWasRegistered",
      "type": "event",
      "signature": "0x486b393c6dfcb903b6f284b93d932298ba8ac6c2f7dc30f966ff790770ff1369"
    },
    {
      "anonymous": false,
      "inputs": [
        {
          "indexed": false,
          "name": "flightName",
          "type": "bytes32"
        },
        {
          "indexed": false,
          "name": "passenger",
          "type": "address"
        },
        {
          "indexed": false,
          "name": "value",
          "type": "uint256"
        }
      ],
      "name": "newInsuranceHasBeenSubmitted",
      "type": "event",
      "signature": "0xd71b944df0e6f542ea9c2d98650be932e27673c666df8328da3ba1761933e0c9"
    },
    {
      "anonymous": false,
      "inputs": [
        {
          "indexed": false,
          "name": "airline",
          "type": "address"
        },
        {
          "indexed": false,
          "name": "flight",
          "type": "bytes32"
        },
        {
          "indexed": false,
          "name": "timestamp",
          "type": "uint256"
        },
        {
          "indexed": false,
          "name": "statusCode",
          "type": "uint8"
        }
      ],
      "name": "flightHasBeenProcessed",
      "type": "event",
      "signature": "0xebd597c7af2bd4afa4131cb25cf14d9576fdc544d051a99d02d1119712baeb1e"
    },
    {
      "anonymous": false,
      "inputs": [
        {
          "indexed": false,
          "name": "airline",
          "type": "address"
        },
        {
          "indexed": false,
          "name": "flight",
          "type": "bytes32"
        },
        {
          "indexed": false,
          "name": "timestamp",
          "type": "uint256"
        },
        {
          "indexed": false,
          "name": "status",
          "type": "uint8"
        }
      ],
      "name": "FlightStatusInfo",
      "type": "event",
      "signature": "0x2c01e4c91c66eba4e28833dfd0d7db5b12558c3773d8fe5ab88cbaafb423056e"
    },
    {
      "anonymous": false,
      "inputs": [
        {
          "indexed": false,
          "name": "airline",
          "type": "address"
        },
        {
          "indexed": false,
          "name": "flight",
          "type": "bytes32"
        },
        {
          "indexed": false,
          "name": "timestamp",
          "type": "uint256"
        },
        {
          "indexed": false,
          "name": "status",
          "type": "uint8"
        }
      ],
      "name": "OracleReport",
      "type": "event",
      "signature": "0x06354a194cc1aa38c93009e264262f1db6b56a5e6dc2be2c7596a94b980c2f85"
    },
    {
      "anonymous": false,
      "inputs": [
        {
          "indexed": false,
          "name": "index",
          "type": "uint8"
        },
        {
          "indexed": false,
          "name": "airline",
          "type": "address"
        },
        {
          "indexed": false,
          "name": "flight",
          "type": "bytes32"
        },
        {
          "indexed": false,
          "name": "timestamp",
          "type": "uint256"
        }
      ],
      "name": "OracleRequest",
      "type": "event",
      "signature": "0x8b9eb22876717bbfb6bc02e9c693f640e54e5eb49e166ece6d6a70a6cc84a34f"
    },
    {
      "constant": false,
      "inputs": [],
      "name": "isOperational",
      "outputs": [
        {
          "name": "",
          "type": "bool"
        }
      ],
      "payable": false,
      "stateMutability": "nonpayable",
      "type": "function",
      "signature": "0xcd905dff"
    },
    {
      "constant": false,
      "inputs": [
        {
          "name": "numberOfVoters",
          "type": "uint256"
        }
      ],
      "name": "calculThreshold",
      "outputs": [
        {
          "name": "number",
          "type": "uint256"
        }
      ],
      "payable": false,
      "stateMutability": "nonpayable",
      "type": "function",
      "signature": "0xb2004b7d"
    },
    {
      "constant": false,
      "inputs": [
        {
          "name": "multiCalls",
          "type": "address[]"
        },
        {
          "name": "threshold",
          "type": "uint256"
        }
      ],
      "name": "hasEnoughVotes",
      "outputs": [
        {
          "name": "",
          "type": "bool"
        }
      ],
      "payable": false,
      "stateMutability": "nonpayable",
      "type": "function",
      "signature": "0xf95adfc9"
    },
    {
      "constant": false,
      "inputs": [
        {
          "name": "_airline",
          "type": "address"
        }
      ],
      "name": "registerFirstAirline",
      "outputs": [
        {
          "name": "",
          "type": "bool"
        }
      ],
      "payable": false,
      "stateMutability": "nonpayable",
      "type": "function",
      "signature": "0x7d2ab0de"
    },
    {
      "constant": false,
      "inputs": [
        {
          "name": "_airline",
          "type": "address"
        }
      ],
      "name": "registerAirline",
      "outputs": [
        {
          "name": "success",
          "type": "bool"
        },
        {
          "name": "votes",
          "type": "uint256"
        }
      ],
      "payable": false,
      "stateMutability": "nonpayable",
      "type": "function",
      "signature": "0xbdfd9877"
    },
    {
      "constant": false,
      "inputs": [],
      "name": "submitFundsAirline",
      "outputs": [
        {
          "name": "succes",
          "type": "bool"
        }
      ],
      "payable": true,
      "stateMutability": "payable",
      "type": "function",
      "signature": "0x6d7b60f2"
    },
    {
      "constant": false,
      "inputs": [],
      "name": "getActiveAirlines",
      "outputs": [
        {
          "name": "",
          "type": "address[]"
        }
      ],
      "payable": false,
      "stateMutability": "nonpayable",
      "type": "function",
      "signature": "0xfd4d02a4"
    },
    {
      "constant": false,
      "inputs": [
        {
          "name": "_flightName",
          "type": "bytes32"
        },
        {
          "name": "_timeStamp",
          "type": "uint256"
        }
      ],
      "name": "registerFlight",
      "outputs": [
        {
          "name": "success",
          "type": "bool"
        }
      ],
      "payable": false,
      "stateMutability": "nonpayable",
      "type": "function",
      "signature": "0xa7221be8"
    },
    {
      "constant": false,
      "inputs": [
        {
          "name": "_airline",
          "type": "address"
        }
      ],
      "name": "getAirlinesFlights",
      "outputs": [
        {
          "name": "",
          "type": "bytes32[]"
        }
      ],
      "payable": false,
      "stateMutability": "nonpayable",
      "type": "function",
      "signature": "0x093a0866"
    },
    {
      "constant": false,
      "inputs": [
        {
          "name": "_flightID",
          "type": "bytes32"
        }
      ],
      "name": "getFlightsName",
      "outputs": [
        {
          "name": "",
          "type": "bytes32"
        }
      ],
      "payable": false,
      "stateMutability": "nonpayable",
      "type": "function",
      "signature": "0x7e57787c"
    },
    {
      "constant": false,
      "inputs": [
        {
          "name": "_flightID",
          "type": "bytes32"
        }
      ],
      "name": "getFlightsTimestamp",
      "outputs": [
        {
          "name": "",
          "type": "uint256"
        }
      ],
      "payable": false,
      "stateMutability": "nonpayable",
      "type": "function",
      "signature": "0x6b95d668"
    },
    {
      "constant": false,
      "inputs": [
        {
          "name": "_flightID",
          "type": "bytes32"
        }
      ],
      "name": "getFlightsStatus",
      "outputs": [
        {
          "name": "",
          "type": "uint256"
        }
      ],
      "payable": false,
      "stateMutability": "nonpayable",
      "type": "function",
      "signature": "0x4ca888ef"
    },
    {
      "constant": false,
      "inputs": [
        {
          "name": "_flightName",
          "type": "bytes32"
        },
        {
          "name": "_timeStamp",
          "type": "uint256"
        },
        {
          "name": "_airline",
          "type": "address"
        }
      ],
      "name": "buyInsurance",
      "outputs": [
        {
          "name": "success",
          "type": "bool"
        }
      ],
      "payable": true,
      "stateMutability": "payable",
      "type": "function",
      "signature": "0x5e92a00a"
    },
    {
      "constant": false,
      "inputs": [
        {
          "name": "_account",
          "type": "address"
        }
      ],
      "name": "getBalance",
      "outputs": [
        {
          "name": "balance",
          "type": "uint256"
        }
      ],
      "payable": false,
      "stateMutability": "nonpayable",
      "type": "function",
      "signature": "0xf8b2cb4f"
    },
    {
      "constant": false,
      "inputs": [
        {
          "name": "_amount",
          "type": "uint256"
        }
      ],
      "name": "withdraw",
      "outputs": [],
      "payable": false,
      "stateMutability": "nonpayable",
      "type": "function",
      "signature": "0x2e1a7d4d"
    },
    {
      "constant": false,
      "inputs": [
        {
          "name": "airline",
          "type": "address"
        },
        {
          "name": "flight",
          "type": "bytes32"
        },
        {
          "name": "timestamp",
          "type": "uint256"
        },
        {
          "name": "statusCode",
          "type": "uint8"
        }
      ],
      "name": "processFlightStatus",
      "outputs": [],
      "payable": false,
      "stateMutability": "nonpayable",
      "type": "function",
      "signature": "0x44ae1697"
    },
    {
      "constant": false,
      "inputs": [
        {
          "name": "airline",
          "type": "address"
        },
        {
          "name": "flight",
          "type": "bytes32"
        },
        {
          "name": "timestamp",
          "type": "uint256"
        }
      ],
      "name": "fetchFlightStatus",
      "outputs": [],
      "payable": false,
      "stateMutability": "nonpayable",
      "type": "function",
      "signature": "0xdd9548b5"
    },
    {
      "constant": false,
      "inputs": [],
      "name": "registerOracle",
      "outputs": [],
      "payable": true,
      "stateMutability": "payable",
      "type": "function",
      "signature": "0x339d2590"
    },
    {
      "constant": true,
      "inputs": [],
      "name": "getMyIndexes",
      "outputs": [
        {
          "name": "",
          "type": "uint8[3]"
        }
      ],
      "payable": false,
      "stateMutability": "view",
      "type": "function",
      "signature": "0x5f1cc0e6"
    },
    {
      "constant": false,
      "inputs": [
        {
          "name": "index",
          "type": "uint8"
        },
        {
          "name": "airline",
          "type": "address"
        },
        {
          "name": "flight",
          "type": "bytes32"
        },
        {
          "name": "timestamp",
          "type": "uint256"
        },
        {
          "name": "statusCode",
          "type": "uint8"
        }
      ],
      "name": "submitOracleResponse",
      "outputs": [],
      "payable": false,
      "stateMutability": "nonpayable",
      "type": "function",
      "signature": "0x96417767"
    }
  ],
  "bytecode": "0x60806040526000600560006101000a81548160ff021916908360ff16021790555034801561002c57600080fd5b50604051602080614b208339810180604052810190808051906020019092919050505033600260006101000a81548173ffffffffffffffffffffffffffffffffffffffff021916908373ffffffffffffffffffffffffffffffffffffffff16021790555080600160006101000a81548173ffffffffffffffffffffffffffffffffffffffff021916908373ffffffffffffffffffffffffffffffffffffffff160217905550806000806101000a81548173ffffffffffffffffffffffffffffffffffffffff021916908373ffffffffffffffffffffffffffffffffffffffff160217905550506149ff806101216000396000f300608060405260043610610133576000357c0100000000000000000000000000000000000000000000000000000000900463ffffffff168063093a0866146101385780630ddc6c31146101d05780632e1a7d4d146101fb578063339d25901461022857806344ae1697146102325780634ca888ef1461029a5780635e92a00a146102df5780635f1cc0e61461034557806364b4f751146103985780636b95d668146103c35780636d7b60f2146104085780637d2ab0de1461042a5780637e57787c1461048557806396417767146104d2578063a7221be814610547578063b2004b7d1461059a578063bdfd9877146105db578063cd905dff1461063d578063d8f73ca51461066c578063dd9548b514610697578063f8b2cb4f146106f2578063f95adfc914610749578063fd4d02a4146107d1575b600080fd5b34801561014457600080fd5b50610179600480360381019080803573ffffffffffffffffffffffffffffffffffffffff16906020019092919050505061083d565b6040518080602001828103825283818151815260200191508051906020019060200280838360005b838110156101bc5780820151818401526020810190506101a1565b505050509050019250505060405180910390f35b3480156101dc57600080fd5b506101e5610a2f565b6040518082815260200191505060405180910390f35b34801561020757600080fd5b5061022660048036038101908080359060200190929190505050610a3b565b005b610230610b19565b005b34801561023e57600080fd5b50610298600480360381019080803573ffffffffffffffffffffffffffffffffffffffff169060200190929190803560001916906020019092919080359060200190929190803560ff169060200190929190505050610c41565b005b3480156102a657600080fd5b506102c96004803603810190808035600019169060200190929190505050610dca565b6040518082815260200191505060405180910390f35b61032b600480360381019080803560001916906020019092919080359060200190929190803573ffffffffffffffffffffffffffffffffffffffff169060200190929190505050610f42565b604051808215151515815260200191505060405180910390f35b34801561035157600080fd5b5061035a6112ec565b6040518082600360200280838360005b8381101561038557808201518184015260208101905061036a565b5050505090500191505060405180910390f35b3480156103a457600080fd5b506103ad611461565b6040518082815260200191505060405180910390f35b3480156103cf57600080fd5b506103f2600480360381019080803560001916906020019092919050505061146d565b6040518082815260200191505060405180910390f35b6104106115e5565b604051808215151515815260200191505060405180910390f35b34801561043657600080fd5b5061046b600480360381019080803573ffffffffffffffffffffffffffffffffffffffff16906020019092919050505061197b565b604051808215151515815260200191505060405180910390f35b34801561049157600080fd5b506104b46004803603810190808035600019169060200190929190505050611c77565b60405180826000191660001916815260200191505060405180910390f35b3480156104de57600080fd5b50610545600480360381019080803560ff169060200190929190803573ffffffffffffffffffffffffffffffffffffffff169060200190929190803560001916906020019092919080359060200190929190803560ff169060200190929190505050611def565b005b34801561055357600080fd5b506105806004803603810190808035600019169060200190929190803590602001909291905050506123b2565b604051808215151515815260200191505060405180910390f35b3480156105a657600080fd5b506105c560048036038101908080359060200190929190505050612971565b6040518082815260200191505060405180910390f35b3480156105e757600080fd5b5061061c600480360381019080803573ffffffffffffffffffffffffffffffffffffffff1690602001909291905050506129c4565b60405180831515151581526020018281526020019250505060405180910390f35b34801561064957600080fd5b50610652613ec2565b604051808215151515815260200191505060405180910390f35b34801561067857600080fd5b50610681613f89565b6040518082815260200191505060405180910390f35b3480156106a357600080fd5b506106f0600480360381019080803573ffffffffffffffffffffffffffffffffffffffff169060200190929190803560001916906020019092919080359060200190929190505050613f95565b005b3480156106fe57600080fd5b50610733600480360381019080803573ffffffffffffffffffffffffffffffffffffffff1690602001909291905050506141ed565b6040518082815260200191505060405180910390f35b34801561075557600080fd5b506107b760048036038101908080359060200190820180359060200190808060200260200160405190810160405280939291908181526020018383602002808284378201915050505050509192919290803590602001909291905050506142ed565b604051808215151515815260200191505060405180910390f35b3480156107dd57600080fd5b506107e661430d565b6040518080602001828103825283818151815260200191508051906020019060200280838360005b8381101561082957808201518184015260208101905061080e565b505050509050019250505060405180910390f35b6060600115156108db576040517f08c379a00000000000000000000000000000000000000000000000000000000081526004018080602001828103825260258152602001807f436f6e74726163742069732063757272656e746c79206e6f74206f706572617481526020017f696f6e616c00000000000000000000000000000000000000000000000000000081525060400191505060405180910390fd5b6000809054906101000a900473ffffffffffffffffffffffffffffffffffffffff1673ffffffffffffffffffffffffffffffffffffffff1663b0f54d8c836040518263ffffffff167c0100000000000000000000000000000000000000000000000000000000028152600401808273ffffffffffffffffffffffffffffffffffffffff1673ffffffffffffffffffffffffffffffffffffffff168152602001915050600060405180830381600087803b15801561099757600080fd5b505af11580156109ab573d6000803e3d6000fd5b505050506040513d6000823e3d601f19601f8201168201806040525060208110156109d557600080fd5b8101908080516401000000008111156109ed57600080fd5b82810190506020810184811115610a0357600080fd5b8151856020820283011164010000000082111715610a2057600080fd5b50509291905050509050919050565b670de0b6b3a764000081565b6000809054906101000a900473ffffffffffffffffffffffffffffffffffffffff1673ffffffffffffffffffffffffffffffffffffffff1662f714ce82336040518363ffffffff167c0100000000000000000000000000000000000000000000000000000000028152600401808381526020018273ffffffffffffffffffffffffffffffffffffffff1673ffffffffffffffffffffffffffffffffffffffff16815260200192505050600060405180830381600087803b158015610afe57600080fd5b505af1158015610b12573d6000803e3d6000fd5b5050505050565b610b21614819565b670de0b6b3a76400003410151515610ba1576040517f08c379a000000000000000000000000000000000000000000000000000000000815260040180806020018281038252601c8152602001807f526567697374726174696f6e206665652069732072657175697265640000000081525060200191505060405180910390fd5b610baa336144c6565b9050604080519081016040528060011515815260200182815250600660003373ffffffffffffffffffffffffffffffffffffffff1673ffffffffffffffffffffffffffffffffffffffff16815260200190815260200160002060008201518160000160006101000a81548160ff021916908315150217905550602082015181600101906003610c3a92919061483c565b5090505050565b6000809054906101000a900473ffffffffffffffffffffffffffffffffffffffff1673ffffffffffffffffffffffffffffffffffffffff1663d34de9d8858585856040518563ffffffff167c0100000000000000000000000000000000000000000000000000000000028152600401808573ffffffffffffffffffffffffffffffffffffffff1673ffffffffffffffffffffffffffffffffffffffff16815260200184600019166000191681526020018381526020018260ff1660ff168152602001945050505050600060405180830381600087803b158015610d2357600080fd5b505af1158015610d37573d6000803e3d6000fd5b505050507febd597c7af2bd4afa4131cb25cf14d9576fdc544d051a99d02d1119712baeb1e84848484604051808573ffffffffffffffffffffffffffffffffffffffff1673ffffffffffffffffffffffffffffffffffffffff16815260200184600019166000191681526020018381526020018260ff1660ff16815260200194505050505060405180910390a150505050565b600060011515610e68576040517f08c379a00000000000000000000000000000000000000000000000000000000081526004018080602001828103825260258152602001807f436f6e74726163742069732063757272656e746c79206e6f74206f706572617481526020017f696f6e616c00000000000000000000000000000000000000000000000000000081525060400191505060405180910390fd5b6000809054906101000a900473ffffffffffffffffffffffffffffffffffffffff1673ffffffffffffffffffffffffffffffffffffffff16632190558c836040518263ffffffff167c0100000000000000000000000000000000000000000000000000000000028152600401808260001916600019168152602001915050602060405180830381600087803b158015610f0057600080fd5b505af1158015610f14573d6000803e3d6000fd5b505050506040513d6020811015610f2a57600080fd5b81019080805190602001909291905050509050919050565b60008034118015610f5b5750670de0b6b3a76400003411155b1515610ff5576040517f08c379a00000000000000000000000000000000000000000000000000000000081526004018080602001828103825260328152602001807f596f75206d7573742070726f7669646520656e6f75676820457468657273207481526020017f6f2062757920616e20696e737572616e6365000000000000000000000000000081525060400191505060405180910390fd5b6000809054906101000a900473ffffffffffffffffffffffffffffffffffffffff1673ffffffffffffffffffffffffffffffffffffffff16638a90651685858533346040518663ffffffff167c01000000000000000000000000000000000000000000000000000000000281526004018086600019166000191681526020018581526020018473ffffffffffffffffffffffffffffffffffffffff1673ffffffffffffffffffffffffffffffffffffffff1681526020018373ffffffffffffffffffffffffffffffffffffffff1673ffffffffffffffffffffffffffffffffffffffff16815260200182815260200195505050505050600060405180830381600087803b15801561110557600080fd5b505af1158015611119573d6000803e3d6000fd5b505050507fd71b944df0e6f542ea9c2d98650be932e27673c666df8328da3ba1761933e0c98433346040518084600019166000191681526020018373ffffffffffffffffffffffffffffffffffffffff1673ffffffffffffffffffffffffffffffffffffffff168152602001828152602001935050505060405180910390a16000809054906101000a900473ffffffffffffffffffffffffffffffffffffffff1673ffffffffffffffffffffffffffffffffffffffff16631a0dc65d85858533346040518663ffffffff167c01000000000000000000000000000000000000000000000000000000000281526004018086600019166000191681526020018581526020018473ffffffffffffffffffffffffffffffffffffffff1673ffffffffffffffffffffffffffffffffffffffff1681526020018373ffffffffffffffffffffffffffffffffffffffff1673ffffffffffffffffffffffffffffffffffffffff16815260200182815260200195505050505050602060405180830381600087803b1580156112a857600080fd5b505af11580156112bc573d6000803e3d6000fd5b505050506040513d60208110156112d257600080fd5b810190808051906020019092919050505090509392505050565b6112f4614819565b600660003373ffffffffffffffffffffffffffffffffffffffff1673ffffffffffffffffffffffffffffffffffffffff16815260200190815260200160002060000160009054906101000a900460ff1615156113b8576040517f08c379a000000000000000000000000000000000000000000000000000000000815260040180806020018281038252601b8152602001807f4e6f74207265676973746572656420617320616e206f7261636c65000000000081525060200191505060405180910390fd5b600660003373ffffffffffffffffffffffffffffffffffffffff1673ffffffffffffffffffffffffffffffffffffffff168152602001908152602001600020600101600380602002604051908101604052809291908260038015611457576020028201916000905b82829054906101000a900460ff1660ff16815260200190600101906020826000010492830192600103820291508084116114205790505b5050505050905090565b670de0b6b3a764000081565b60006001151561150b576040517f08c379a00000000000000000000000000000000000000000000000000000000081526004018080602001828103825260258152602001807f436f6e74726163742069732063757272656e746c79206e6f74206f706572617481526020017f696f6e616c00000000000000000000000000000000000000000000000000000081525060400191505060405180910390fd5b6000809054906101000a900473ffffffffffffffffffffffffffffffffffffffff1673ffffffffffffffffffffffffffffffffffffffff166306fc9425836040518263ffffffff167c0100000000000000000000000000000000000000000000000000000000028152600401808260001916600019168152602001915050602060405180830381600087803b1580156115a357600080fd5b505af11580156115b7573d6000803e3d6000fd5b505050506040513d60208110156115cd57600080fd5b81019080805190602001909291905050509050919050565b600060011515611683576040517f08c379a00000000000000000000000000000000000000000000000000000000081526004018080602001828103825260258152602001807f436f6e74726163742069732063757272656e746c79206e6f74206f706572617481526020017f696f6e616c00000000000000000000000000000000000000000000000000000081525060400191505060405180910390fd5b678ac7230489e8000034141515611728576040517f08c379a000000000000000000000000000000000000000000000000000000000815260040180806020018281038252602f8152602001807f596f75206d7573742070726f7669646520656e6f75676820457468657273207481526020017f6f2066756e64207468652073656564000000000000000000000000000000000081525060400191505060405180910390fd5b6000809054906101000a900473ffffffffffffffffffffffffffffffffffffffff1673ffffffffffffffffffffffffffffffffffffffff1663c456ded033678ac7230489e800006040518363ffffffff167c0100000000000000000000000000000000000000000000000000000000028152600401808373ffffffffffffffffffffffffffffffffffffffff1673ffffffffffffffffffffffffffffffffffffffff16815260200182815260200192505050600060405180830381600087803b1580156117f457600080fd5b505af1158015611808573d6000803e3d6000fd5b505050507f2ddb6be289dec2d7045d25ee20d703a7e3fe936910a54b0e6d2878a338694eae33678ac7230489e80000604051808373ffffffffffffffffffffffffffffffffffffffff1673ffffffffffffffffffffffffffffffffffffffff1681526020018281526020019250505060405180910390a16000809054906101000a900473ffffffffffffffffffffffffffffffffffffffff1673ffffffffffffffffffffffffffffffffffffffff1663f3ba4e1b336040518263ffffffff167c0100000000000000000000000000000000000000000000000000000000028152600401808273ffffffffffffffffffffffffffffffffffffffff1673ffffffffffffffffffffffffffffffffffffffff168152602001915050602060405180830381600087803b15801561193b57600080fd5b505af115801561194f573d6000803e3d6000fd5b505050506040513d602081101561196557600080fd5b8101908080519060200190929190505050905090565b6000600260009054906101000a900473ffffffffffffffffffffffffffffffffffffffff1673ffffffffffffffffffffffffffffffffffffffff163373ffffffffffffffffffffffffffffffffffffffff16141515611a42576040517f08c379a000000000000000000000000000000000000000000000000000000000815260040180806020018281038252601c8152602001807f43616c6c6572206973206e6f7420636f6e7472616374206f776e65720000000081525060200191505060405180910390fd5b6000809054906101000a900473ffffffffffffffffffffffffffffffffffffffff1673ffffffffffffffffffffffffffffffffffffffff1663bdfd9877836040518263ffffffff167c0100000000000000000000000000000000000000000000000000000000028152600401808273ffffffffffffffffffffffffffffffffffffffff1673ffffffffffffffffffffffffffffffffffffffff168152602001915050600060405180830381600087803b158015611afe57600080fd5b505af1158015611b12573d6000803e3d6000fd5b505050507faab99a4eaa3c6b80859651427de3a99a4ffb4cbca03d8e361daaffb5f592b3a282604051808273ffffffffffffffffffffffffffffffffffffffff1673ffffffffffffffffffffffffffffffffffffffff16815260200191505060405180910390a16000809054906101000a900473ffffffffffffffffffffffffffffffffffffffff1673ffffffffffffffffffffffffffffffffffffffff16630e248a11836040518263ffffffff167c0100000000000000000000000000000000000000000000000000000000028152600401808273ffffffffffffffffffffffffffffffffffffffff1673ffffffffffffffffffffffffffffffffffffffff168152602001915050602060405180830381600087803b158015611c3557600080fd5b505af1158015611c49573d6000803e3d6000fd5b505050506040513d6020811015611c5f57600080fd5b81019080805190602001909291905050509050919050565b600060011515611d15576040517f08c379a00000000000000000000000000000000000000000000000000000000081526004018080602001828103825260258152602001807f436f6e74726163742069732063757272656e746c79206e6f74206f706572617481526020017f696f6e616c00000000000000000000000000000000000000000000000000000081525060400191505060405180910390fd5b6000809054906101000a900473ffffffffffffffffffffffffffffffffffffffff1673ffffffffffffffffffffffffffffffffffffffff16633ad9796a836040518263ffffffff167c0100000000000000000000000000000000000000000000000000000000028152600401808260001916600019168152602001915050602060405180830381600087803b158015611dad57600080fd5b505af1158015611dc1573d6000803e3d6000fd5b505050506040513d6020811015611dd757600080fd5b81019080805190602001909291905050509050919050565b60008560ff16600660003373ffffffffffffffffffffffffffffffffffffffff1673ffffffffffffffffffffffffffffffffffffffff1681526020019081526020016000206001016000600381101515611e4557fe5b602091828204019190069054906101000a900460ff1660ff161480611ed457508560ff16600660003373ffffffffffffffffffffffffffffffffffffffff1673ffffffffffffffffffffffffffffffffffffffff1681526020019081526020016000206001016001600381101515611eb957fe5b602091828204019190069054906101000a900460ff1660ff16145b80611f4957508560ff16600660003373ffffffffffffffffffffffffffffffffffffffff1673ffffffffffffffffffffffffffffffffffffffff1681526020019081526020016000206001016002600381101515611f2e57fe5b602091828204019190069054906101000a900460ff1660ff16145b1515611fe3576040517f08c379a00000000000000000000000000000000000000000000000000000000081526004018080602001828103825260238152602001807f496e64657820646f6573206e6f74206d61746368206f7261636c65207265717581526020017f657374000000000000000000000000000000000000000000000000000000000081525060400191505060405180910390fd5b85858585604051602001808560ff1660ff167f01000000000000000000000000000000000000000000000000000000000000000281526001018473ffffffffffffffffffffffffffffffffffffffff1673ffffffffffffffffffffffffffffffffffffffff166c0100000000000000000000000002815260140183600019166000191681526020018281526020019450505050506040516020818303038152906040526040518082805190602001908083835b6020831015156120bb5780518252602082019150602081019050602083039250612096565b6001836020036101000a0380198251168184511680821785525050505050509050019150506040518091039020905060076000826000191660001916815260200190815260200160002060000160149054906101000a900460ff1615156121b0576040517f08c379a000000000000000000000000000000000000000000000000000000000815260040180806020018281038252602f8152602001807f466c69676874206f722074696d657374616d7020646f206e6f74206d6174636881526020017f206f7261636c652072657175657374000000000000000000000000000000000081525060400191505060405180910390fd5b60076000826000191660001916815260200190815260200160002060010160008360ff1660ff1681526020019081526020016000203390806001815401808255809150509060018203906000526020600020016000909192909190916101000a81548173ffffffffffffffffffffffffffffffffffffffff021916908373ffffffffffffffffffffffffffffffffffffffff160217905550507f06354a194cc1aa38c93009e264262f1db6b56a5e6dc2be2c7596a94b980c2f8585858585604051808573ffffffffffffffffffffffffffffffffffffffff1673ffffffffffffffffffffffffffffffffffffffff16815260200184600019166000191681526020018381526020018260ff1660ff16815260200194505050505060405180910390a1600360076000836000191660001916815260200190815260200160002060010160008460ff1660ff168152602001908152602001600020805490501015156123aa577f2c01e4c91c66eba4e28833dfd0d7db5b12558c3773d8fe5ab88cbaafb423056e85858585604051808573ffffffffffffffffffffffffffffffffffffffff1673ffffffffffffffffffffffffffffffffffffffff16815260200184600019166000191681526020018381526020018260ff1660ff16815260200194505050505060405180910390a16123a985858585610c41565b5b505050505050565b6000600115156000809054906101000a900473ffffffffffffffffffffffffffffffffffffffff1673ffffffffffffffffffffffffffffffffffffffff16630e248a11336040518263ffffffff167c0100000000000000000000000000000000000000000000000000000000028152600401808273ffffffffffffffffffffffffffffffffffffffff1673ffffffffffffffffffffffffffffffffffffffff168152602001915050602060405180830381600087803b15801561247457600080fd5b505af1158015612488573d6000803e3d6000fd5b505050506040513d602081101561249e57600080fd5b8101908080519060200190929190505050151514151561254c576040517f08c379a00000000000000000000000000000000000000000000000000000000081526004018080602001828103825260288152602001807f4169726c696e65206d616b696e67207468652063616c6c206973206e6f74207281526020017f656769737472656400000000000000000000000000000000000000000000000081525060400191505060405180910390fd5b600115156000809054906101000a900473ffffffffffffffffffffffffffffffffffffffff1673ffffffffffffffffffffffffffffffffffffffff1663f3ba4e1b336040518263ffffffff167c0100000000000000000000000000000000000000000000000000000000028152600401808273ffffffffffffffffffffffffffffffffffffffff1673ffffffffffffffffffffffffffffffffffffffff168152602001915050602060405180830381600087803b15801561260c57600080fd5b505af1158015612620573d6000803e3d6000fd5b505050506040513d602081101561263657600080fd5b810190808051906020019092919050505015151415156126e4576040517f08c379a000000000000000000000000000000000000000000000000000000000815260040180806020018281038252602e8152602001807f4169726c696e65206d616b696e67207468652063616c6c20686173206e6f742081526020017f70726f76696465642066756e647300000000000000000000000000000000000081525060400191505060405180910390fd5b6000809054906101000a900473ffffffffffffffffffffffffffffffffffffffff1673ffffffffffffffffffffffffffffffffffffffff16633de7615784846000336040518563ffffffff167c01000000000000000000000000000000000000000000000000000000000281526004018085600019166000191681526020018481526020018360ff1660ff1681526020018273ffffffffffffffffffffffffffffffffffffffff1673ffffffffffffffffffffffffffffffffffffffff168152602001945050505050600060405180830381600087803b1580156127c757600080fd5b505af11580156127db573d6000803e3d6000fd5b505050507f486b393c6dfcb903b6f284b93d932298ba8ac6c2f7dc30f966ff790770ff13698383336040518084600019166000191681526020018381526020018273ffffffffffffffffffffffffffffffffffffffff1673ffffffffffffffffffffffffffffffffffffffff168152602001935050505060405180910390a16000809054906101000a900473ffffffffffffffffffffffffffffffffffffffff1673ffffffffffffffffffffffffffffffffffffffff1663f22de9628484336040518463ffffffff167c01000000000000000000000000000000000000000000000000000000000281526004018084600019166000191681526020018381526020018273ffffffffffffffffffffffffffffffffffffffff1673ffffffffffffffffffffffffffffffffffffffff1681526020019350505050602060405180830381600087803b15801561292e57600080fd5b505af1158015612942573d6000803e3d6000fd5b505050506040513d602081101561295857600080fd5b8101908080519060200190929190505050905092915050565b60008061298860028461466c90919063ffffffff16565b9050600160028481151561299857fe5b0614156129ba576129b360018261469690919063ffffffff16565b91506129be565b8091505b50919050565b60008060008060011515612a66576040517f08c379a00000000000000000000000000000000000000000000000000000000081526004018080602001828103825260258152602001807f436f6e74726163742069732063757272656e746c79206e6f74206f706572617481526020017f696f6e616c00000000000000000000000000000000000000000000000000000081525060400191505060405180910390fd5b600115156000809054906101000a900473ffffffffffffffffffffffffffffffffffffffff1673ffffffffffffffffffffffffffffffffffffffff16630e248a11336040518263ffffffff167c0100000000000000000000000000000000000000000000000000000000028152600401808273ffffffffffffffffffffffffffffffffffffffff1673ffffffffffffffffffffffffffffffffffffffff168152602001915050602060405180830381600087803b158015612b2657600080fd5b505af1158015612b3a573d6000803e3d6000fd5b505050506040513d6020811015612b5057600080fd5b81019080805190602001909291905050501515141515612bfe576040517f08c379a00000000000000000000000000000000000000000000000000000000081526004018080602001828103825260288152602001807f4169726c696e65206d616b696e67207468652063616c6c206973206e6f74207281526020017f656769737472656400000000000000000000000000000000000000000000000081525060400191505060405180910390fd5b600115156000809054906101000a900473ffffffffffffffffffffffffffffffffffffffff1673ffffffffffffffffffffffffffffffffffffffff1663f3ba4e1b336040518263ffffffff167c0100000000000000000000000000000000000000000000000000000000028152600401808273ffffffffffffffffffffffffffffffffffffffff1673ffffffffffffffffffffffffffffffffffffffff168152602001915050602060405180830381600087803b158015612cbe57600080fd5b505af1158015612cd2573d6000803e3d6000fd5b505050506040513d6020811015612ce857600080fd5b81019080805190602001909291905050501515141515612d96576040517f08c379a000000000000000000000000000000000000000000000000000000000815260040180806020018281038252602e8152602001807f4169726c696e65206d616b696e67207468652063616c6c20686173206e6f742081526020017f70726f76696465642066756e647300000000000000000000000000000000000081525060400191505060405180910390fd5b600360008673ffffffffffffffffffffffffffffffffffffffff1673ffffffffffffffffffffffffffffffffffffffff168152602001908152602001600020805480602002602001604051908101604052809291908181526020018280548015612e5557602002820191906000526020600020905b8160009054906101000a900473ffffffffffffffffffffffffffffffffffffffff1673ffffffffffffffffffffffffffffffffffffffff1681526020019060010190808311612e0b575b505050505060008060009150600090505b8251811015613674573373ffffffffffffffffffffffffffffffffffffffff168382815181101515612e9457fe5b9060200190602002015173ffffffffffffffffffffffffffffffffffffffff161415613667576001915060009450612f8a6000809054906101000a900473ffffffffffffffffffffffffffffffffffffffff1673ffffffffffffffffffffffffffffffffffffffff1663485ace876040518163ffffffff167c0100000000000000000000000000000000000000000000000000000000028152600401602060405180830381600087803b158015612f4a57600080fd5b505af1158015612f5e573d6000803e3d6000fd5b505050506040513d6020811015612f7457600080fd5b8101908080519060200190929190505050612971565b935060046000809054906101000a900473ffffffffffffffffffffffffffffffffffffffff1673ffffffffffffffffffffffffffffffffffffffff1663485ace876040518163ffffffff167c0100000000000000000000000000000000000000000000000000000000028152600401602060405180830381600087803b15801561301357600080fd5b505af1158015613027573d6000803e3d6000fd5b505050506040513d602081101561303d57600080fd5b810190808051906020019092919050505010151561330557600360008973ffffffffffffffffffffffffffffffffffffffff1673ffffffffffffffffffffffffffffffffffffffff1681526020019081526020016000203390806001815401808255809150509060018203906000526020600020016000909192909190916101000a81548173ffffffffffffffffffffffffffffffffffffffff021916908373ffffffffffffffffffffffffffffffffffffffff160217905550507f2f246f18c722d5db533d3e88a3ed03bb6d8f80310923ab89b233f772385f7e7333600360008b73ffffffffffffffffffffffffffffffffffffffff1673ffffffffffffffffffffffffffffffffffffffff16815260200190815260200160002080549050604051808373ffffffffffffffffffffffffffffffffffffffff1673ffffffffffffffffffffffffffffffffffffffff1681526020018281526020019250505060405180910390a1613272600360008a73ffffffffffffffffffffffffffffffffffffffff1673ffffffffffffffffffffffffffffffffffffffff16815260200190815260200160002080548060200260200160405190810160405280929190818152602001828054801561326757602002820191906000526020600020905b8160009054906101000a900473ffffffffffffffffffffffffffffffffffffffff1673ffffffffffffffffffffffffffffffffffffffff168152602001906001019080831161321d575b5050505050856142ed565b156133005760006040519080825280602002602001820160405280156132a75781602001602082028038833980820191505090505b50600360008a73ffffffffffffffffffffffffffffffffffffffff1673ffffffffffffffffffffffffffffffffffffffff16815260200190815260200160002090805190602001906132fa9291906148d6565b50600194505b61330a565b600194505b8415613528576000600360008a73ffffffffffffffffffffffffffffffffffffffff1673ffffffffffffffffffffffffffffffffffffffff168152602001908152602001600020805490501415156133f0576040517f08c379a00000000000000000000000000000000000000000000000000000000081526004018080602001828103825260228152602001807f6e756d626572206f6620766f7465732073686f756c642062652073657420746f81526020017f203000000000000000000000000000000000000000000000000000000000000081525060400191505060405180910390fd5b6000809054906101000a900473ffffffffffffffffffffffffffffffffffffffff1673ffffffffffffffffffffffffffffffffffffffff1663bdfd9877896040518263ffffffff167c0100000000000000000000000000000000000000000000000000000000028152600401808273ffffffffffffffffffffffffffffffffffffffff1673ffffffffffffffffffffffffffffffffffffffff168152602001915050600060405180830381600087803b1580156134ac57600080fd5b505af11580156134c0573d6000803e3d6000fd5b505050507faab99a4eaa3c6b80859651427de3a99a4ffb4cbca03d8e361daaffb5f592b3a288604051808273ffffffffffffffffffffffffffffffffffffffff1673ffffffffffffffffffffffffffffffffffffffff16815260200191505060405180910390a15b6000809054906101000a900473ffffffffffffffffffffffffffffffffffffffff1673ffffffffffffffffffffffffffffffffffffffff16630e248a11896040518263ffffffff167c0100000000000000000000000000000000000000000000000000000000028152600401808273ffffffffffffffffffffffffffffffffffffffff1673ffffffffffffffffffffffffffffffffffffffff168152602001915050602060405180830381600087803b1580156135e457600080fd5b505af11580156135f8573d6000803e3d6000fd5b505050506040513d602081101561360e57600080fd5b8101908080519060200190929190505050600360008a73ffffffffffffffffffffffffffffffffffffffff1673ffffffffffffffffffffffffffffffffffffffff16815260200190815260200160002080549050965096505b8080600101915050612e66565b81151515613710576040517f08c379a00000000000000000000000000000000000000000000000000000000081526004018080602001828103825260278152602001807f43616c6c65722068617320616c72656164792063616c6c65642074686973206681526020017f756e6374696f6e0000000000000000000000000000000000000000000000000081525060400191505060405180910390fd5b600094506137dc6000809054906101000a900473ffffffffffffffffffffffffffffffffffffffff1673ffffffffffffffffffffffffffffffffffffffff1663485ace876040518163ffffffff167c0100000000000000000000000000000000000000000000000000000000028152600401602060405180830381600087803b15801561379c57600080fd5b505af11580156137b0573d6000803e3d6000fd5b505050506040513d60208110156137c657600080fd5b8101908080519060200190929190505050612971565b935060046000809054906101000a900473ffffffffffffffffffffffffffffffffffffffff1673ffffffffffffffffffffffffffffffffffffffff1663485ace876040518163ffffffff167c0100000000000000000000000000000000000000000000000000000000028152600401602060405180830381600087803b15801561386557600080fd5b505af1158015613879573d6000803e3d6000fd5b505050506040513d602081101561388f57600080fd5b8101908080519060200190929190505050101515613b5757600360008973ffffffffffffffffffffffffffffffffffffffff1673ffffffffffffffffffffffffffffffffffffffff1681526020019081526020016000203390806001815401808255809150509060018203906000526020600020016000909192909190916101000a81548173ffffffffffffffffffffffffffffffffffffffff021916908373ffffffffffffffffffffffffffffffffffffffff160217905550507f2f246f18c722d5db533d3e88a3ed03bb6d8f80310923ab89b233f772385f7e7333600360008b73ffffffffffffffffffffffffffffffffffffffff1673ffffffffffffffffffffffffffffffffffffffff16815260200190815260200160002080549050604051808373ffffffffffffffffffffffffffffffffffffffff1673ffffffffffffffffffffffffffffffffffffffff1681526020018281526020019250505060405180910390a1613ac4600360008a73ffffffffffffffffffffffffffffffffffffffff1673ffffffffffffffffffffffffffffffffffffffff168152602001908152602001600020805480602002602001604051908101604052809291908181526020018280548015613ab957602002820191906000526020600020905b8160009054906101000a900473ffffffffffffffffffffffffffffffffffffffff1673ffffffffffffffffffffffffffffffffffffffff1681526020019060010190808311613a6f575b5050505050856142ed565b15613b52576000604051908082528060200260200182016040528015613af95781602001602082028038833980820191505090505b50600360008a73ffffffffffffffffffffffffffffffffffffffff1673ffffffffffffffffffffffffffffffffffffffff1681526020019081526020016000209080519060200190613b4c9291906148d6565b50600194505b613b5c565b600194505b8415613d7a576000600360008a73ffffffffffffffffffffffffffffffffffffffff1673ffffffffffffffffffffffffffffffffffffffff16815260200190815260200160002080549050141515613c42576040517f08c379a00000000000000000000000000000000000000000000000000000000081526004018080602001828103825260228152602001807f6e756d626572206f6620766f7465732073686f756c642062652073657420746f81526020017f203000000000000000000000000000000000000000000000000000000000000081525060400191505060405180910390fd5b6000809054906101000a900473ffffffffffffffffffffffffffffffffffffffff1673ffffffffffffffffffffffffffffffffffffffff1663bdfd9877896040518263ffffffff167c0100000000000000000000000000000000000000000000000000000000028152600401808273ffffffffffffffffffffffffffffffffffffffff1673ffffffffffffffffffffffffffffffffffffffff168152602001915050600060405180830381600087803b158015613cfe57600080fd5b505af1158015613d12573d6000803e3d6000fd5b505050507faab99a4eaa3c6b80859651427de3a99a4ffb4cbca03d8e361daaffb5f592b3a288604051808273ffffffffffffffffffffffffffffffffffffffff1673ffffffffffffffffffffffffffffffffffffffff16815260200191505060405180910390a15b6000809054906101000a900473ffffffffffffffffffffffffffffffffffffffff1673ffffffffffffffffffffffffffffffffffffffff16630e248a11896040518263ffffffff167c0100000000000000000000000000000000000000000000000000000000028152600401808273ffffffffffffffffffffffffffffffffffffffff1673ffffffffffffffffffffffffffffffffffffffff168152602001915050602060405180830381600087803b158015613e3657600080fd5b505af1158015613e4a573d6000803e3d6000fd5b505050506040513d6020811015613e6057600080fd5b8101908080519060200190929190505050600360008a73ffffffffffffffffffffffffffffffffffffffff1673ffffffffffffffffffffffffffffffffffffffff16815260200190815260200160002080549050965096505050505050915091565b60008060009054906101000a900473ffffffffffffffffffffffffffffffffffffffff1673ffffffffffffffffffffffffffffffffffffffff1663cd905dff6040518163ffffffff167c0100000000000000000000000000000000000000000000000000000000028152600401602060405180830381600087803b158015613f4957600080fd5b505af1158015613f5d573d6000803e3d6000fd5b505050506040513d6020811015613f7357600080fd5b8101908080519060200190929190505050905090565b678ac7230489e8000081565b600080613fa1336146b7565b915081858585604051602001808560ff1660ff167f01000000000000000000000000000000000000000000000000000000000000000281526001018473ffffffffffffffffffffffffffffffffffffffff1673ffffffffffffffffffffffffffffffffffffffff166c0100000000000000000000000002815260140183600019166000191681526020018281526020019450505050506040516020818303038152906040526040518082805190602001908083835b60208310151561407b5780518252602082019150602081019050602083039250614056565b6001836020036101000a0380198251168184511680821785525050505050509050019150506040518091039020905060408051908101604052803373ffffffffffffffffffffffffffffffffffffffff1681526020016001151581525060076000836000191660001916815260200190815260200160002060008201518160000160006101000a81548173ffffffffffffffffffffffffffffffffffffffff021916908373ffffffffffffffffffffffffffffffffffffffff16021790555060208201518160000160146101000a81548160ff0219169083151502179055509050507f8b9eb22876717bbfb6bc02e9c693f640e54e5eb49e166ece6d6a70a6cc84a34f82868686604051808560ff1660ff1681526020018473ffffffffffffffffffffffffffffffffffffffff1673ffffffffffffffffffffffffffffffffffffffff168152602001836000191660001916815260200182815260200194505050505060405180910390a15050505050565b60008060009054906101000a900473ffffffffffffffffffffffffffffffffffffffff1673ffffffffffffffffffffffffffffffffffffffff1663f8b2cb4f836040518263ffffffff167c0100000000000000000000000000000000000000000000000000000000028152600401808273ffffffffffffffffffffffffffffffffffffffff1673ffffffffffffffffffffffffffffffffffffffff168152602001915050602060405180830381600087803b1580156142ab57600080fd5b505af11580156142bf573d6000803e3d6000fd5b505050506040513d60208110156142d557600080fd5b81019080805190602001909291905050509050919050565b60008183511015156143025760019050614307565b600090505b92915050565b6060600115156143ab576040517f08c379a00000000000000000000000000000000000000000000000000000000081526004018080602001828103825260258152602001807f436f6e74726163742069732063757272656e746c79206e6f74206f706572617481526020017f696f6e616c00000000000000000000000000000000000000000000000000000081525060400191505060405180910390fd5b6000809054906101000a900473ffffffffffffffffffffffffffffffffffffffff1673ffffffffffffffffffffffffffffffffffffffff16634c11b93c6040518163ffffffff167c0100000000000000000000000000000000000000000000000000000000028152600401600060405180830381600087803b15801561443057600080fd5b505af1158015614444573d6000803e3d6000fd5b505050506040513d6000823e3d601f19601f82011682018060405250602081101561446e57600080fd5b81019080805164010000000081111561448657600080fd5b8281019050602081018481111561449c57600080fd5b81518560208202830111640100000000821117156144b957600080fd5b5050929190505050905090565b6144ce614819565b6144d6614819565b6144df836146b7565b8160006003811015156144ee57fe5b602002019060ff16908160ff168152505080600060038110151561450e57fe5b602002015181600160038110151561452257fe5b602002019060ff16908160ff16815250505b80600060038110151561454357fe5b602002015160ff1681600160038110151561455a57fe5b602002015160ff16141561459657614571836146b7565b81600160038110151561458057fe5b602002019060ff16908160ff1681525050614534565b8060016003811015156145a557fe5b60200201518160026003811015156145b957fe5b602002019060ff16908160ff16815250505b8060006003811015156145da57fe5b602002015160ff168160026003811015156145f157fe5b602002015160ff161480614630575080600160038110151561460f57fe5b602002015160ff1681600260038110151561462657fe5b602002015160ff16145b156146635761463e836146b7565b81600260038110151561464d57fe5b602002019060ff16908160ff16815250506145cb565b80915050919050565b60008060008311151561467e57600080fd5b828481151561468957fe5b0490508091505092915050565b60008082840190508381101515156146ad57600080fd5b8091505092915050565b6000806000600a91508160ff166005600081819054906101000a900460ff168092919060010191906101000a81548160ff021916908360ff16021790555060ff16430340856040516020018083600019166000191681526020018273ffffffffffffffffffffffffffffffffffffffff1673ffffffffffffffffffffffffffffffffffffffff166c01000000000000000000000000028152601401925050506040516020818303038152906040526040518082805190602001908083835b60208310151561479a5780518252602082019150602081019050602083039250614775565b6001836020036101000a0380198251168184511680821785525050505050509050019150506040518091039020600190048115156147d457fe5b06905060fa600560009054906101000a900460ff1660ff16111561480f576000600560006101000a81548160ff021916908360ff1602179055505b8092505050919050565b606060405190810160405280600390602082028038833980820191505090505090565b826003601f016020900481019282156148c55791602002820160005b8382111561489657835183826101000a81548160ff021916908360ff1602179055509260200192600101602081600001049283019260010302614858565b80156148c35782816101000a81549060ff0219169055600101602081600001049283019260010302614896565b505b5090506148d29190614960565b5090565b82805482825590600052602060002090810192821561494f579160200282015b8281111561494e5782518260006101000a81548173ffffffffffffffffffffffffffffffffffffffff021916908373ffffffffffffffffffffffffffffffffffffffff160217905550916020019190600101906148f6565b5b50905061495c9190614990565b5090565b61498d91905b8082111561498957600081816101000a81549060ff021916905550600101614966565b5090565b90565b6149d091905b808211156149cc57600081816101000a81549073ffffffffffffffffffffffffffffffffffffffff021916905550600101614996565b5090565b905600a165627a7a72305820216b878c7b42f7f68e0bbb200db4868d170f819825856162379c1ef419d49a660029",
  "source": "pragma solidity ^0.4.25;\r\n\r\n// It's important to avoid vulnerabilities due to numeric overflow bugs\r\n// OpenZeppelin's SafeMath library, when used correctly, protects agains such bugs\r\n// More info: https://www.nccgroup.trust/us/about-us/newsroom-and-events/blog/2018/november/smart-contract-insecurity-bad-arithmetic/\r\n\r\nimport \"../../node_modules/openzeppelin-solidity/contracts/math/SafeMath.sol\";\r\n\r\nimport \"./FlightSuretyData.sol\";\r\n\r\n\r\n\r\n/************************************************** */\r\n/* FlightSurety Smart Contract                      */\r\n/************************************************** */\r\ncontract FlightSuretyApp {\r\n    using SafeMath for uint256; // Allow SafeMath functions to be called for all uint256 types (similar to \"prototype\" in Javascript)\r\n    /********************************************************************************************/\r\n    /*                                       DATA VARIABLES                                     */\r\n    /********************************************************************************************/\r\n\r\n    // Data contract reference\r\n    FlightSuretyData private flightSuretyData;\r\n    address flightSuretyDataContractAddress;\r\n    // Address used to deploy contract\r\n    address private contractOwner;        \r\n\r\n    // Flight status codees\r\n    uint8 private constant STATUS_CODE_UNKNOWN = 0;\r\n    uint8 private constant STATUS_CODE_ON_TIME = 10;\r\n    uint8 private constant STATUS_CODE_LATE_AIRLINE = 20;\r\n    uint8 private constant STATUS_CODE_LATE_WEATHER = 30;\r\n    uint8 private constant STATUS_CODE_LATE_TECHNICAL = 40;\r\n    uint8 private constant STATUS_CODE_LATE_OTHER = 50;\r\n\r\n\r\n    // Amount of funding\r\n    uint256 public constant FLIGHT_INSURANCE_AMOUNT = 1 ether;\r\n    uint256 public constant AIRLINE_REGISTRATION_FEE = 10 ether;\r\n\r\n    // Mapping to keep records of airlines voters per airline\r\n    mapping(address => address[]) multiCallsAirlines;\r\n\r\n    // flight structure\r\n    struct Flight {\r\n        bool isRegistered;\r\n        uint8 statusCode;\r\n        uint256 updatedTimestamp;        \r\n        address airline;\r\n    }\r\n    // mapping of all flights recorded\r\n    mapping(bytes32 => Flight) private flights;\r\n\r\n\r\n\r\n    /********************************************************************************************/\r\n    /*                                       FUNCTION MODIFIERS                                 */\r\n    /********************************************************************************************/\r\n\r\n    // Modifiers help avoid duplication of code. They are typically used to validate something\r\n    // before a function is allowed to be executed.\r\n\r\n    /**\r\n    * @dev Modifier that requires the \"operational\" boolean variable to be \"true\"\r\n    *      This is used on all state changing functions to pause the contract in \r\n    *      the event there is an issue that needs to be fixed\r\n    */\r\n    modifier requireIsOperational() \r\n    {\r\n         // Modify to call data contract's status\r\n        require(true, \"Contract is currently not operational\");  \r\n        _;  // All modifiers require an \"_\" which indicates where the function body will be added\r\n    }\r\n\r\n    /**\r\n    * @dev Modifier that requires the \"ContractOwner\" account to be the function caller\r\n    */\r\n    modifier requireContractOwner()\r\n    {\r\n        require(msg.sender == contractOwner, \"Caller is not contract owner\");\r\n        _;\r\n    }\r\n\r\n    modifier requireEnoughFunds() {\r\n        require(msg.value == AIRLINE_REGISTRATION_FEE, \"You must provide enough Ethers to fund the seed\");\r\n        _;\r\n    }\r\n\r\n    modifier requireRegisteredAirline()\r\n    {\r\n        require(flightSuretyData.isAirline(msg.sender) == true, \"Airline making the call is not registred\");\r\n        _;\r\n    }\r\n\r\n    modifier requireFundedAirline()\r\n    {\r\n        require(flightSuretyData.isFundedAirline(msg.sender) == true, \"Airline making the call has not provided funds\");\r\n        _;\r\n    }\r\n\r\n    modifier requireHasNotVoted(address[] multiCalls)\r\n    {\r\n        bool isDuplicate = false;\r\n        for(uint c=0; c<multiCalls.length; c++) {\r\n            if (multiCalls[c] == msg.sender) {\r\n                isDuplicate = true;\r\n                _;\r\n            }\r\n        }\r\n        require(!isDuplicate, \"Caller has already called this function\");\r\n        _;\r\n    }\r\n\r\n    modifier requireRequiredValue() {\r\n        require(msg.value > 0 && msg.value <= FLIGHT_INSURANCE_AMOUNT, \"You must provide enough Ethers to buy an insurance\");\r\n        _;\r\n    }\r\n\r\n    /********************************************************************************************/\r\n    /*                                       EVENTS DECLARATION                                */\r\n    /********************************************************************************************/\r\n\r\n    event AirlineWasRegistered(address airline);\r\n    event AirlineWasFunded(address airline, uint256 amount);\r\n    event AirlineHasOneMoreVote(address airline, uint256 vote);\r\n    event FlightWasRegistered(bytes32 flightName, uint256 timeStamp, address airline);\r\n    event newInsuranceHasBeenSubmitted(bytes32 flightName, address passenger, uint256 value);\r\n    event flightHasBeenProcessed(address airline, bytes32 flight, uint256 timestamp, uint8 statusCode);\r\n\r\n    /********************************************************************************************/\r\n    /*                                       CONSTRUCTOR                                        */\r\n    /********************************************************************************************/\r\n\r\n    /**\r\n    * @dev Contract constructor\r\n    *\r\n    */\r\n    constructor\r\n                                (\r\n                                    address _dataContract\r\n                                ) \r\n                                public \r\n    {\r\n        contractOwner = msg.sender;\r\n        flightSuretyDataContractAddress = _dataContract;\r\n        flightSuretyData = FlightSuretyData(_dataContract);\r\n    }\r\n\r\n    /********************************************************************************************/\r\n    /*                                       UTILITY FUNCTIONS                                  */\r\n    /********************************************************************************************/\r\n\r\n    function isOperational() \r\n                            external \r\n                            returns(bool) \r\n    {\r\n        return flightSuretyData.isOperational();  // call data contract's status\r\n    }\r\n\r\n   /**\r\n    * @dev returns the number of voters divided by 2\r\n    *\r\n    */ \r\n    function calculThreshold \r\n                            (\r\n                                uint256 numberOfVoters\r\n                            )\r\n                            returns(uint256 number)\r\n    {\r\n        uint256 threshold = numberOfVoters.div(2);\r\n        if(numberOfVoters % 2 == 1) {\r\n            return threshold.add(1);\r\n        } else {\r\n            return threshold;\r\n        }\r\n    }\r\n\r\n   /**\r\n    * @dev test if enough votes have been collected according to a given threshold\r\n    *\r\n    */ \r\n    function hasEnoughVotes\r\n                            (\r\n                            address[] multiCalls,\r\n                            uint256 threshold\r\n                            )\r\n                            returns(bool)\r\n    {\r\n        if (multiCalls.length >= threshold) {\r\n            return true;    \r\n        } else {\r\n            return false;\r\n        }\r\n    }\r\n\r\n    /********************************************************************************************/\r\n    /*                                     SMART CONTRACT FUNCTIONS                             */\r\n    /********************************************************************************************/\r\n\r\n  \r\n   /**\r\n    * @dev allow contracts owner to register and fund the registration of a first airline\r\n    *\r\n    */   \r\n\r\n    function registerFirstAirline\r\n                                    (\r\n                                    address _airline\r\n                                    ) \r\n                                    requireContractOwner\r\n                                    returns(bool)\r\n    {\r\n        flightSuretyData.registerAirline(_airline);\r\n        emit AirlineWasRegistered(_airline);\r\n        return flightSuretyData.isAirline(_airline);\r\n    }\r\n\r\n       /**\r\n    * @dev Add an airline to the registration queue\r\n    *\r\n    */   \r\n\r\n    function registerAirline\r\n                            (\r\n                                address _airline   \r\n                            )\r\n                            public\r\n                            requireIsOperational\r\n                            requireRegisteredAirline\r\n                            requireFundedAirline\r\n                            requireHasNotVoted(multiCallsAirlines[_airline])\r\n                            returns(bool success, uint256 votes)\r\n    {\r\n        // Initialize a variable to simplifie the if statement and avoid redundant code\r\n        bool canBeRegistered =  false;\r\n        // Calculate vote threshold according to the number of registered airlines\r\n        uint256 threshold =  calculThreshold(flightSuretyData.howManyRegisteredAirlines());\r\n        // Test if the number of registered airlines exceed 4\r\n        if(flightSuretyData.howManyRegisteredAirlines() >= 4) {\r\n            // Add the voter to the airline's list of voters \r\n            multiCallsAirlines[_airline].push(msg.sender);\r\n            // Emit an event to keep trace of the number of votes\r\n            emit AirlineHasOneMoreVote(msg.sender, multiCallsAirlines[_airline].length);\r\n            \r\n            // Check if the number of votes have reached the threshold\r\n            if(hasEnoughVotes(multiCallsAirlines[_airline], threshold)){\r\n                // Reset the array of voters of the newly registered airline\r\n                multiCallsAirlines[_airline] = new address[](0);  \r\n                canBeRegistered =  true;\r\n            }     \r\n        } else {\r\n            canBeRegistered =  true;\r\n        }\r\n        // Register the airline and emit the according event if requirements are met\r\n        if(canBeRegistered){\r\n            // Ensure that the number of votes have been set to 0 \r\n            require(multiCallsAirlines[_airline].length == 0, \"number of votes should be set to 0\");\r\n            flightSuretyData.registerAirline(_airline);\r\n            emit AirlineWasRegistered(_airline);\r\n        }\r\n        return (flightSuretyData.isAirline(_airline), multiCallsAirlines[_airline].length);\r\n    }\r\n\r\n       /**\r\n    * @dev submit funds to fund an airline\r\n    * \r\n    */\r\n\r\n    function submitFundsAirline\r\n                                (\r\n                                )\r\n                                public\r\n                                payable\r\n                                requireIsOperational\r\n                                requireEnoughFunds\r\n                                returns(bool succes)\r\n    {\r\n        // Pass registration fees to data contract to allow the airline to fund the seed.\r\n        // address(this).transfer(100000000000);\r\n        flightSuretyData.submitFundsAirline(msg.sender, AIRLINE_REGISTRATION_FEE);\r\n        // Emit according event\r\n        emit AirlineWasFunded(msg.sender, AIRLINE_REGISTRATION_FEE);\r\n        return (flightSuretyData.isFundedAirline(msg.sender));\r\n    }\r\n\r\n\r\n    function getActiveAirlines \r\n                                (\r\n                                )\r\n                                public\r\n                                requireIsOperational\r\n                                returns(address[])\r\n    {\r\n        return flightSuretyData.whatAirlines();\r\n    }\r\n\r\n   /**\r\n    * @dev Register a future flight for insuring.\r\n    *\r\n    */  \r\n    function registerFlight\r\n                                (\r\n                                    bytes32 _flightName,\r\n                                    uint256 _timeStamp\r\n                                )\r\n                                requireRegisteredAirline\r\n                                requireFundedAirline\r\n                                external\r\n                                returns(bool success)\r\n    {\r\n        // Send request to data contract to register a flight\r\n        flightSuretyData.registerFlight(_flightName, _timeStamp, STATUS_CODE_UNKNOWN, msg.sender);\r\n        // Emit according event\r\n        emit FlightWasRegistered(_flightName, _timeStamp, msg.sender);\r\n        return flightSuretyData.isFlight(_flightName, _timeStamp, msg.sender);\r\n    }\r\n\r\n    function getAirlinesFlights \r\n                                (\r\n                                    address _airline\r\n                                )\r\n                                public\r\n                                requireIsOperational\r\n                                returns(bytes32[])\r\n    {\r\n        return flightSuretyData.whatFlight(_airline);\r\n    }\r\n\r\n    function getFlightsName \r\n                                (\r\n                                    bytes32 _flightID\r\n                                )\r\n                                public\r\n                                requireIsOperational\r\n                                returns(bytes32)\r\n    {\r\n        return flightSuretyData.whatFlightName(_flightID);\r\n    }\r\n\r\n    function getFlightsTimestamp\r\n                                (\r\n                                    bytes32 _flightID\r\n                                )\r\n                                public\r\n                                requireIsOperational\r\n                                returns(uint256)\r\n    {\r\n        return flightSuretyData.whatFlightTimestamp(_flightID);\r\n    }\r\n\r\n    function getFlightsStatus\r\n                                (\r\n                                    bytes32 _flightID\r\n                                )\r\n                                public\r\n                                requireIsOperational\r\n                                returns(uint256)\r\n    {\r\n        return flightSuretyData.viewFlightSatus(_flightID);\r\n    }\r\n\r\n    /**\r\n    * @dev Allows passenger to insure a flight\r\n    *\r\n    */ \r\n\r\n    function buyInsurance\r\n                            (\r\n                                    bytes32 _flightName,\r\n                                    uint256 _timeStamp,\r\n                                    address _airline\r\n                            )\r\n                            payable\r\n                            requireRequiredValue\r\n                            returns(bool success)\r\n    {\r\n        // Send request to data contract to insure a flight\r\n        flightSuretyData.buyInsurance(_flightName, _timeStamp, _airline, msg.sender, msg.value);\r\n        // Emit according event\r\n        emit newInsuranceHasBeenSubmitted(_flightName, msg.sender, msg.value);\r\n        return flightSuretyData.isInsured(_flightName, _timeStamp, _airline, msg.sender, msg.value);\r\n    }\r\n    \r\n    function getBalance\r\n                        (\r\n                            address _account\r\n                        )\r\n                        returns(uint256 balance)\r\n    {\r\n        return flightSuretyData.getBalance(_account);\r\n    }\r\n\r\n    function withdraw\r\n                        (\r\n                            uint256 _amount\r\n                        )\r\n    {\r\n        return flightSuretyData.withdraw(_amount, msg.sender);\r\n    }\r\n\r\n   /**\r\n    * @dev Called after oracle has updated flight status\r\n    *\r\n    */  \r\n    function processFlightStatus\r\n                                (\r\n                                    address airline,\r\n                                    bytes32 flight,\r\n                                    uint256 timestamp,\r\n                                    uint8 statusCode\r\n                                )\r\n                                \r\n    {\r\n        flightSuretyData.creditInsurees(airline, flight, timestamp, statusCode);\r\n        emit flightHasBeenProcessed(airline, flight, timestamp, statusCode);\r\n    }\r\n\r\n\r\n    // Generate a request for oracles to fetch flight information\r\n    function fetchFlightStatus\r\n                        (\r\n                            address airline,\r\n                            bytes32 flight,\r\n                            uint256 timestamp                            \r\n                        )\r\n                        external\r\n    {\r\n        uint8 index = getRandomIndex(msg.sender);\r\n\r\n        // Generate a unique key for storing the request\r\n        bytes32 key = keccak256(abi.encodePacked(index, airline, flight, timestamp));\r\n        oracleResponses[key] = ResponseInfo({\r\n                                                requester: msg.sender,\r\n                                                isOpen: true\r\n                                            });\r\n\r\n        emit OracleRequest(index, airline, flight, timestamp);\r\n    } \r\n\r\n\r\n// region ORACLE MANAGEMENT\r\n\r\n    // Incremented to add pseudo-randomness at various points\r\n    uint8 private nonce = 0;    \r\n\r\n    // Fee to be paid when registering oracle\r\n    uint256 public constant REGISTRATION_FEE = 1 ether;\r\n\r\n    // Number of oracles that must respond for valid status\r\n    uint256 private constant MIN_RESPONSES = 3;\r\n\r\n\r\n    struct Oracle {\r\n        bool isRegistered;\r\n        uint8[3] indexes;        \r\n    }\r\n\r\n    // Track all registered oracles\r\n    mapping(address => Oracle) private oracles;\r\n\r\n    // Model for responses from oracles\r\n    struct ResponseInfo {\r\n        address requester;                              // Account that requested status\r\n        bool isOpen;                                    // If open, oracle responses are accepted\r\n        mapping(uint8 => address[]) responses;          // Mapping key is the status code reported\r\n                                                        // This lets us group responses and identify\r\n                                                        // the response that majority of the oracles\r\n    }\r\n\r\n    // Track all oracle responses\r\n    // Key = hash(index, flight, timestamp)\r\n    mapping(bytes32 => ResponseInfo) private oracleResponses;\r\n\r\n    // Event fired each time an oracle submits a response\r\n    event FlightStatusInfo(address airline, bytes32 flight, uint256 timestamp, uint8 status);\r\n\r\n    event OracleReport(address airline, bytes32 flight, uint256 timestamp, uint8 status);\r\n\r\n    // Event fired when flight status request is submitted\r\n    // Oracles track this and if they have a matching index\r\n    // they fetch data and submit a response\r\n    event OracleRequest(uint8 index, address airline, bytes32 flight, uint256 timestamp);\r\n\r\n\r\n    // Register an oracle with the contract\r\n    function registerOracle\r\n                            (\r\n                            )\r\n                            external\r\n                            payable\r\n    {\r\n        // Require registration fee\r\n        require(msg.value >= REGISTRATION_FEE, \"Registration fee is required\");\r\n\r\n        uint8[3] memory indexes = generateIndexes(msg.sender);\r\n\r\n        oracles[msg.sender] = Oracle({\r\n                                        isRegistered: true,\r\n                                        indexes: indexes\r\n                                    });\r\n    }\r\n\r\n    function getMyIndexes\r\n                            (\r\n                            )\r\n                            view\r\n                            external\r\n                            returns(uint8[3])\r\n    {\r\n        require(oracles[msg.sender].isRegistered, \"Not registered as an oracle\");\r\n\r\n        return oracles[msg.sender].indexes;\r\n    }\r\n\r\n\r\n\r\n\r\n    // Called by oracle when a response is available to an outstanding request\r\n    // For the response to be accepted, there must be a pending request that is open\r\n    // and matches one of the three Indexes randomly assigned to the oracle at the\r\n    // time of registration (i.e. uninvited oracles are not welcome)\r\n    function submitOracleResponse\r\n                        (\r\n                            uint8 index,\r\n                            address airline,\r\n                            bytes32 flight,\r\n                            uint256 timestamp,\r\n                            uint8 statusCode\r\n                        )\r\n                        external\r\n    {\r\n        require((oracles[msg.sender].indexes[0] == index) || (oracles[msg.sender].indexes[1] == index) || (oracles[msg.sender].indexes[2] == index), \"Index does not match oracle request\");\r\n\r\n\r\n        bytes32 key = keccak256(abi.encodePacked(index, airline, flight, timestamp)); \r\n        require(oracleResponses[key].isOpen, \"Flight or timestamp do not match oracle request\");\r\n\r\n        oracleResponses[key].responses[statusCode].push(msg.sender);\r\n\r\n        // Information isn't considered verified until at least MIN_RESPONSES\r\n        // oracles respond with the *** same *** information\r\n        emit OracleReport(airline, flight, timestamp, statusCode);\r\n        if (oracleResponses[key].responses[statusCode].length >= MIN_RESPONSES) {\r\n\r\n            emit FlightStatusInfo(airline, flight, timestamp, statusCode);\r\n\r\n            // Handle flight status as appropriate\r\n            processFlightStatus(airline, flight, timestamp, statusCode);\r\n        }\r\n    }\r\n\r\n\r\n    function getFlightKey\r\n                        (\r\n                            address airline,\r\n                            string flight,\r\n                            uint256 timestamp\r\n                        )\r\n                        pure\r\n                        internal\r\n                        returns(bytes32) \r\n    {\r\n        return keccak256(abi.encodePacked(airline, flight, timestamp));\r\n    }\r\n\r\n    // Returns array of three non-duplicating integers from 0-9\r\n    function generateIndexes\r\n                            (                       \r\n                                address account         \r\n                            )\r\n                            internal\r\n                            returns(uint8[3])\r\n    {\r\n        uint8[3] memory indexes;\r\n        indexes[0] = getRandomIndex(account);\r\n        \r\n        indexes[1] = indexes[0];\r\n        while(indexes[1] == indexes[0]) {\r\n            indexes[1] = getRandomIndex(account);\r\n        }\r\n\r\n        indexes[2] = indexes[1];\r\n        while((indexes[2] == indexes[0]) || (indexes[2] == indexes[1])) {\r\n            indexes[2] = getRandomIndex(account);\r\n        }\r\n\r\n        return indexes;\r\n    }\r\n\r\n    // Returns array of three non-duplicating integers from 0-9\r\n    function getRandomIndex\r\n                            (\r\n                                address account\r\n                            )\r\n                            internal\r\n                            returns (uint8)\r\n    {\r\n        uint8 maxValue = 10;\r\n\r\n        // Pseudo random number...the incrementing nonce adds variation\r\n        uint8 random = uint8(uint256(keccak256(abi.encodePacked(blockhash(block.number - nonce++), account))) % maxValue);\r\n\r\n        if (nonce > 250) {\r\n            nonce = 0;  // Can only fetch blockhashes for last 256 blocks so we adapt\r\n        }\r\n\r\n        return random;\r\n    }\r\n\r\n// endregion\r\n}   \r\n\r\n",
  "sourcePath": "C:/Users/48his/Documents/TP/Blockchain/flightSurety_Project_Angular/truffle/contracts/FlightSuretyApp.sol",
  "compiler": {
    "name": "solc",
    "version": "0.4.26+commit.4563c3fc.Emscripten.clang"
  },
  "schemaVersion": "3.0.1",
  "updatedAt": "2022-09-14T07:21:09.616Z",
  "devdoc": {
    "methods": {
      "buyInsurance(bytes32,uint256,address)": {
        "details": "Allows passenger to insure a flight\r     "
      },
      "calculThreshold(uint256)": {
        "details": "returns the number of voters divided by 2\r     "
      },
      "hasEnoughVotes(address[],uint256)": {
        "details": "test if enough votes have been collected according to a given threshold\r     "
      },
      "processFlightStatus(address,bytes32,uint256,uint8)": {
        "details": "Called after oracle has updated flight status\r     "
      },
      "registerAirline(address)": {
        "details": "Add an airline to the registration queue\r     "
      },
      "registerFirstAirline(address)": {
        "details": "allow contracts owner to register and fund the registration of a first airline\r     "
      },
      "registerFlight(bytes32,uint256)": {
        "details": "Register a future flight for insuring.\r     "
      },
      "submitFundsAirline()": {
        "details": "submit funds to fund an airline\r \r"
      }
    }
  },
  "userdoc": {
    "methods": {
      "isOperational()": {
        "notice": "*****************************************************************************************"
      }
    }
  }
}