{
  "contractName": "FlightSuretyApp",
  "abi": [
    {
      "constant": true,
      "inputs": [],
      "name": "FLIGHT_INSURANCE_AMOUNT",
      "outputs": [
        {
          "name": "",
          "type": "uint256"
        }
      ],
      "payable": false,
      "stateMutability": "view",
      "type": "function"
    },
    {
      "constant": true,
      "inputs": [],
      "name": "REGISTRATION_FEE",
      "outputs": [
        {
          "name": "",
          "type": "uint256"
        }
      ],
      "payable": false,
      "stateMutability": "view",
      "type": "function"
    },
    {
      "constant": true,
      "inputs": [],
      "name": "AIRLINE_REGISTRATION_FEE",
      "outputs": [
        {
          "name": "",
          "type": "uint256"
        }
      ],
      "payable": false,
      "stateMutability": "view",
      "type": "function"
    },
    {
      "inputs": [
        {
          "name": "_dataContract",
          "type": "address"
        }
      ],
      "payable": false,
      "stateMutability": "nonpayable",
      "type": "constructor"
    },
    {
      "anonymous": false,
      "inputs": [
        {
          "indexed": false,
          "name": "airline",
          "type": "address"
        }
      ],
      "name": "AirlineWasRegistered",
      "type": "event"
    },
    {
      "anonymous": false,
      "inputs": [
        {
          "indexed": false,
          "name": "airline",
          "type": "address"
        },
        {
          "indexed": false,
          "name": "amount",
          "type": "uint256"
        }
      ],
      "name": "AirlineWasFunded",
      "type": "event"
    },
    {
      "anonymous": false,
      "inputs": [
        {
          "indexed": false,
          "name": "airline",
          "type": "address"
        },
        {
          "indexed": false,
          "name": "vote",
          "type": "uint256"
        }
      ],
      "name": "AirlineHasOneMoreVote",
      "type": "event"
    },
    {
      "anonymous": false,
      "inputs": [
        {
          "indexed": false,
          "name": "flightName",
          "type": "bytes32"
        },
        {
          "indexed": false,
          "name": "timeStamp",
          "type": "uint256"
        },
        {
          "indexed": false,
          "name": "airline",
          "type": "address"
        }
      ],
      "name": "FlightWasRegistered",
      "type": "event"
    },
    {
      "anonymous": false,
      "inputs": [
        {
          "indexed": false,
          "name": "flightName",
          "type": "bytes32"
        },
        {
          "indexed": false,
          "name": "passenger",
          "type": "address"
        },
        {
          "indexed": false,
          "name": "value",
          "type": "uint256"
        }
      ],
      "name": "newInsuranceHasBeenSubmitted",
      "type": "event"
    },
    {
      "anonymous": false,
      "inputs": [
        {
          "indexed": false,
          "name": "airline",
          "type": "address"
        },
        {
          "indexed": false,
          "name": "flight",
          "type": "bytes32"
        },
        {
          "indexed": false,
          "name": "timestamp",
          "type": "uint256"
        },
        {
          "indexed": false,
          "name": "statusCode",
          "type": "uint8"
        }
      ],
      "name": "flightHasBeenProcessed",
      "type": "event"
    },
    {
      "anonymous": false,
      "inputs": [
        {
          "indexed": false,
          "name": "airline",
          "type": "address"
        },
        {
          "indexed": false,
          "name": "flight",
          "type": "bytes32"
        },
        {
          "indexed": false,
          "name": "timestamp",
          "type": "uint256"
        },
        {
          "indexed": false,
          "name": "status",
          "type": "uint8"
        }
      ],
      "name": "FlightStatusInfo",
      "type": "event"
    },
    {
      "anonymous": false,
      "inputs": [
        {
          "indexed": false,
          "name": "airline",
          "type": "address"
        },
        {
          "indexed": false,
          "name": "flight",
          "type": "bytes32"
        },
        {
          "indexed": false,
          "name": "timestamp",
          "type": "uint256"
        },
        {
          "indexed": false,
          "name": "status",
          "type": "uint8"
        }
      ],
      "name": "OracleReport",
      "type": "event"
    },
    {
      "anonymous": false,
      "inputs": [
        {
          "indexed": false,
          "name": "index",
          "type": "uint8"
        },
        {
          "indexed": false,
          "name": "airline",
          "type": "address"
        },
        {
          "indexed": false,
          "name": "flight",
          "type": "bytes32"
        },
        {
          "indexed": false,
          "name": "timestamp",
          "type": "uint256"
        }
      ],
      "name": "OracleRequest",
      "type": "event"
    },
    {
      "constant": true,
      "inputs": [],
      "name": "isOperational",
      "outputs": [
        {
          "name": "",
          "type": "bool"
        }
      ],
      "payable": false,
      "stateMutability": "view",
      "type": "function"
    },
    {
      "constant": false,
      "inputs": [
        {
          "name": "_airline",
          "type": "address"
        }
      ],
      "name": "registerFirstAirline",
      "outputs": [
        {
          "name": "",
          "type": "bool"
        }
      ],
      "payable": false,
      "stateMutability": "nonpayable",
      "type": "function"
    },
    {
      "constant": false,
      "inputs": [
        {
          "name": "_airline",
          "type": "address"
        }
      ],
      "name": "registerAirline",
      "outputs": [
        {
          "name": "success",
          "type": "bool"
        },
        {
          "name": "votes",
          "type": "uint256"
        }
      ],
      "payable": false,
      "stateMutability": "nonpayable",
      "type": "function"
    },
    {
      "constant": false,
      "inputs": [],
      "name": "submitFundsAirline",
      "outputs": [
        {
          "name": "succes",
          "type": "bool"
        }
      ],
      "payable": true,
      "stateMutability": "payable",
      "type": "function"
    },
    {
      "constant": true,
      "inputs": [],
      "name": "getActiveAirlines",
      "outputs": [
        {
          "name": "",
          "type": "address[]"
        }
      ],
      "payable": false,
      "stateMutability": "view",
      "type": "function"
    },
    {
      "constant": false,
      "inputs": [
        {
          "name": "_flightName",
          "type": "bytes32"
        },
        {
          "name": "_timeStamp",
          "type": "uint256"
        }
      ],
      "name": "registerFlight",
      "outputs": [
        {
          "name": "success",
          "type": "bool"
        }
      ],
      "payable": false,
      "stateMutability": "nonpayable",
      "type": "function"
    },
    {
      "constant": true,
      "inputs": [
        {
          "name": "_airline",
          "type": "address"
        }
      ],
      "name": "getAirlinesFlights",
      "outputs": [
        {
          "name": "",
          "type": "bytes32[]"
        }
      ],
      "payable": false,
      "stateMutability": "view",
      "type": "function"
    },
    {
      "constant": true,
      "inputs": [
        {
          "name": "_flightID",
          "type": "bytes32"
        }
      ],
      "name": "getFlightsName",
      "outputs": [
        {
          "name": "",
          "type": "bytes32"
        }
      ],
      "payable": false,
      "stateMutability": "view",
      "type": "function"
    },
    {
      "constant": true,
      "inputs": [
        {
          "name": "_flightID",
          "type": "bytes32"
        }
      ],
      "name": "getFlightsTimestamp",
      "outputs": [
        {
          "name": "",
          "type": "uint256"
        }
      ],
      "payable": false,
      "stateMutability": "view",
      "type": "function"
    },
    {
      "constant": true,
      "inputs": [
        {
          "name": "_flightID",
          "type": "bytes32"
        }
      ],
      "name": "getFlightsStatus",
      "outputs": [
        {
          "name": "",
          "type": "uint256"
        }
      ],
      "payable": false,
      "stateMutability": "view",
      "type": "function"
    },
    {
      "constant": false,
      "inputs": [
        {
          "name": "_flightName",
          "type": "bytes32"
        },
        {
          "name": "_timeStamp",
          "type": "uint256"
        },
        {
          "name": "_airline",
          "type": "address"
        }
      ],
      "name": "buyInsurance",
      "outputs": [
        {
          "name": "success",
          "type": "bool"
        }
      ],
      "payable": true,
      "stateMutability": "payable",
      "type": "function"
    },
    {
      "constant": true,
      "inputs": [
        {
          "name": "_account",
          "type": "address"
        }
      ],
      "name": "getBalance",
      "outputs": [
        {
          "name": "balance",
          "type": "uint256"
        }
      ],
      "payable": false,
      "stateMutability": "view",
      "type": "function"
    },
    {
      "constant": false,
      "inputs": [
        {
          "name": "_amount",
          "type": "uint256"
        }
      ],
      "name": "withdraw",
      "outputs": [],
      "payable": true,
      "stateMutability": "payable",
      "type": "function"
    },
    {
      "constant": false,
      "inputs": [
        {
          "name": "airline",
          "type": "address"
        },
        {
          "name": "flight",
          "type": "bytes32"
        },
        {
          "name": "timestamp",
          "type": "uint256"
        },
        {
          "name": "statusCode",
          "type": "uint8"
        }
      ],
      "name": "processFlightStatus",
      "outputs": [],
      "payable": false,
      "stateMutability": "nonpayable",
      "type": "function"
    },
    {
      "constant": false,
      "inputs": [
        {
          "name": "airline",
          "type": "address"
        },
        {
          "name": "flight",
          "type": "bytes32"
        },
        {
          "name": "timestamp",
          "type": "uint256"
        }
      ],
      "name": "fetchFlightStatus",
      "outputs": [],
      "payable": false,
      "stateMutability": "nonpayable",
      "type": "function"
    },
    {
      "constant": false,
      "inputs": [],
      "name": "registerOracle",
      "outputs": [],
      "payable": true,
      "stateMutability": "payable",
      "type": "function"
    },
    {
      "constant": true,
      "inputs": [],
      "name": "getMyIndexes",
      "outputs": [
        {
          "name": "",
          "type": "uint8[3]"
        }
      ],
      "payable": false,
      "stateMutability": "view",
      "type": "function"
    },
    {
      "constant": false,
      "inputs": [
        {
          "name": "index",
          "type": "uint8"
        },
        {
          "name": "airline",
          "type": "address"
        },
        {
          "name": "flight",
          "type": "bytes32"
        },
        {
          "name": "timestamp",
          "type": "uint256"
        },
        {
          "name": "statusCode",
          "type": "uint8"
        }
      ],
      "name": "submitOracleResponse",
      "outputs": [],
      "payable": false,
      "stateMutability": "nonpayable",
      "type": "function"
    }
  ],
  "bytecode": "0x60806040526000600560006101000a81548160ff021916908360ff16021790555034801561002c57600080fd5b50604051602080614a358339810180604052810190808051906020019092919050505033600260006101000a81548173ffffffffffffffffffffffffffffffffffffffff021916908373ffffffffffffffffffffffffffffffffffffffff16021790555080600160006101000a81548173ffffffffffffffffffffffffffffffffffffffff021916908373ffffffffffffffffffffffffffffffffffffffff160217905550806000806101000a81548173ffffffffffffffffffffffffffffffffffffffff021916908373ffffffffffffffffffffffffffffffffffffffff16021790555050614914806101216000396000f30060806040526004361061011d576000357c0100000000000000000000000000000000000000000000000000000000900463ffffffff168063093a0866146101225780630ddc6c31146101ba5780632e1a7d4d146101e5578063339d25901461020557806344ae16971461020f5780634ca888ef146102775780635e92a00a146102bc5780635f1cc0e61461032257806364b4f751146103755780636b95d668146103a05780636d7b60f2146103e55780637d2ab0de146104075780637e57787c1461046257806396417767146104af578063a7221be814610524578063bdfd987714610577578063cd905dff146105d9578063d8f73ca514610608578063dd9548b514610633578063f8b2cb4f1461068e578063fd4d02a4146106e5575b600080fd5b34801561012e57600080fd5b50610163600480360381019080803573ffffffffffffffffffffffffffffffffffffffff169060200190929190505050610751565b6040518080602001828103825283818151815260200191508051906020019060200280838360005b838110156101a657808201518184015260208101905061018b565b505050509050019250505060405180910390f35b3480156101c657600080fd5b506101cf610943565b6040518082815260200191505060405180910390f35b6102036004803603810190808035906020019092919050505061094f565b005b61020d610a2e565b005b34801561021b57600080fd5b50610275600480360381019080803573ffffffffffffffffffffffffffffffffffffffff169060200190929190803560001916906020019092919080359060200190929190803560ff169060200190929190505050610b56565b005b34801561028357600080fd5b506102a66004803603810190808035600019169060200190929190505050610cdf565b6040518082815260200191505060405180910390f35b610308600480360381019080803560001916906020019092919080359060200190929190803573ffffffffffffffffffffffffffffffffffffffff169060200190929190505050610e57565b604051808215151515815260200191505060405180910390f35b34801561032e57600080fd5b50610337611201565b6040518082600360200280838360005b83811015610362578082015181840152602081019050610347565b5050505090500191505060405180910390f35b34801561038157600080fd5b5061038a611376565b6040518082815260200191505060405180910390f35b3480156103ac57600080fd5b506103cf6004803603810190808035600019169060200190929190505050611382565b6040518082815260200191505060405180910390f35b6103ed6114fa565b604051808215151515815260200191505060405180910390f35b34801561041357600080fd5b50610448600480360381019080803573ffffffffffffffffffffffffffffffffffffffff169060200190929190505050611890565b604051808215151515815260200191505060405180910390f35b34801561046e57600080fd5b506104916004803603810190808035600019169060200190929190505050611b8c565b60405180826000191660001916815260200191505060405180910390f35b3480156104bb57600080fd5b50610522600480360381019080803560ff169060200190929190803573ffffffffffffffffffffffffffffffffffffffff169060200190929190803560001916906020019092919080359060200190929190803560ff169060200190929190505050611d04565b005b34801561053057600080fd5b5061055d6004803603810190808035600019169060200190929190803590602001909291905050506122c7565b604051808215151515815260200191505060405180910390f35b34801561058357600080fd5b506105b8600480360381019080803573ffffffffffffffffffffffffffffffffffffffff169060200190929190505050612886565b60405180831515151581526020018281526020019250505060405180910390f35b3480156105e557600080fd5b506105ee613d84565b604051808215151515815260200191505060405180910390f35b34801561061457600080fd5b5061061d613e4b565b6040518082815260200191505060405180910390f35b34801561063f57600080fd5b5061068c600480360381019080803573ffffffffffffffffffffffffffffffffffffffff169060200190929190803560001916906020019092919080359060200190929190505050613e57565b005b34801561069a57600080fd5b506106cf600480360381019080803573ffffffffffffffffffffffffffffffffffffffff1690602001909291905050506140af565b6040518082815260200191505060405180910390f35b3480156106f157600080fd5b506106fa6141af565b6040518080602001828103825283818151815260200191508051906020019060200280838360005b8381101561073d578082015181840152602081019050610722565b505050509050019250505060405180910390f35b6060600115156107ef576040517f08c379a00000000000000000000000000000000000000000000000000000000081526004018080602001828103825260258152602001807f436f6e74726163742069732063757272656e746c79206e6f74206f706572617481526020017f696f6e616c00000000000000000000000000000000000000000000000000000081525060400191505060405180910390fd5b6000809054906101000a900473ffffffffffffffffffffffffffffffffffffffff1673ffffffffffffffffffffffffffffffffffffffff1663b0f54d8c836040518263ffffffff167c0100000000000000000000000000000000000000000000000000000000028152600401808273ffffffffffffffffffffffffffffffffffffffff1673ffffffffffffffffffffffffffffffffffffffff168152602001915050600060405180830381600087803b1580156108ab57600080fd5b505af11580156108bf573d6000803e3d6000fd5b505050506040513d6000823e3d601f19601f8201168201806040525060208110156108e957600080fd5b81019080805164010000000081111561090157600080fd5b8281019050602081018481111561091757600080fd5b815185602082028301116401000000008211171561093457600080fd5b50509291905050509050919050565b670de0b6b3a764000081565b6000809054906101000a900473ffffffffffffffffffffffffffffffffffffffff1673ffffffffffffffffffffffffffffffffffffffff1663f3fef3a333836040518363ffffffff167c0100000000000000000000000000000000000000000000000000000000028152600401808373ffffffffffffffffffffffffffffffffffffffff1673ffffffffffffffffffffffffffffffffffffffff16815260200182815260200192505050600060405180830381600087803b158015610a1357600080fd5b505af1158015610a27573d6000803e3d6000fd5b5050505050565b610a3661472e565b670de0b6b3a76400003410151515610ab6576040517f08c379a000000000000000000000000000000000000000000000000000000000815260040180806020018281038252601c8152602001807f526567697374726174696f6e206665652069732072657175697265640000000081525060200191505060405180910390fd5b610abf33614368565b9050604080519081016040528060011515815260200182815250600660003373ffffffffffffffffffffffffffffffffffffffff1673ffffffffffffffffffffffffffffffffffffffff16815260200190815260200160002060008201518160000160006101000a81548160ff021916908315150217905550602082015181600101906003610b4f929190614751565b5090505050565b6000809054906101000a900473ffffffffffffffffffffffffffffffffffffffff1673ffffffffffffffffffffffffffffffffffffffff1663d34de9d8858585856040518563ffffffff167c0100000000000000000000000000000000000000000000000000000000028152600401808573ffffffffffffffffffffffffffffffffffffffff1673ffffffffffffffffffffffffffffffffffffffff16815260200184600019166000191681526020018381526020018260ff1660ff168152602001945050505050600060405180830381600087803b158015610c3857600080fd5b505af1158015610c4c573d6000803e3d6000fd5b505050507febd597c7af2bd4afa4131cb25cf14d9576fdc544d051a99d02d1119712baeb1e84848484604051808573ffffffffffffffffffffffffffffffffffffffff1673ffffffffffffffffffffffffffffffffffffffff16815260200184600019166000191681526020018381526020018260ff1660ff16815260200194505050505060405180910390a150505050565b600060011515610d7d576040517f08c379a00000000000000000000000000000000000000000000000000000000081526004018080602001828103825260258152602001807f436f6e74726163742069732063757272656e746c79206e6f74206f706572617481526020017f696f6e616c00000000000000000000000000000000000000000000000000000081525060400191505060405180910390fd5b6000809054906101000a900473ffffffffffffffffffffffffffffffffffffffff1673ffffffffffffffffffffffffffffffffffffffff16632190558c836040518263ffffffff167c0100000000000000000000000000000000000000000000000000000000028152600401808260001916600019168152602001915050602060405180830381600087803b158015610e1557600080fd5b505af1158015610e29573d6000803e3d6000fd5b505050506040513d6020811015610e3f57600080fd5b81019080805190602001909291905050509050919050565b60008034118015610e705750670de0b6b3a76400003411155b1515610f0a576040517f08c379a00000000000000000000000000000000000000000000000000000000081526004018080602001828103825260328152602001807f596f75206d7573742070726f7669646520656e6f75676820457468657273207481526020017f6f2062757920616e20696e737572616e6365000000000000000000000000000081525060400191505060405180910390fd5b6000809054906101000a900473ffffffffffffffffffffffffffffffffffffffff1673ffffffffffffffffffffffffffffffffffffffff16638a90651685858533346040518663ffffffff167c01000000000000000000000000000000000000000000000000000000000281526004018086600019166000191681526020018581526020018473ffffffffffffffffffffffffffffffffffffffff1673ffffffffffffffffffffffffffffffffffffffff1681526020018373ffffffffffffffffffffffffffffffffffffffff1673ffffffffffffffffffffffffffffffffffffffff16815260200182815260200195505050505050600060405180830381600087803b15801561101a57600080fd5b505af115801561102e573d6000803e3d6000fd5b505050507fd71b944df0e6f542ea9c2d98650be932e27673c666df8328da3ba1761933e0c98433346040518084600019166000191681526020018373ffffffffffffffffffffffffffffffffffffffff1673ffffffffffffffffffffffffffffffffffffffff168152602001828152602001935050505060405180910390a16000809054906101000a900473ffffffffffffffffffffffffffffffffffffffff1673ffffffffffffffffffffffffffffffffffffffff16631a0dc65d85858533346040518663ffffffff167c01000000000000000000000000000000000000000000000000000000000281526004018086600019166000191681526020018581526020018473ffffffffffffffffffffffffffffffffffffffff1673ffffffffffffffffffffffffffffffffffffffff1681526020018373ffffffffffffffffffffffffffffffffffffffff1673ffffffffffffffffffffffffffffffffffffffff16815260200182815260200195505050505050602060405180830381600087803b1580156111bd57600080fd5b505af11580156111d1573d6000803e3d6000fd5b505050506040513d60208110156111e757600080fd5b810190808051906020019092919050505090509392505050565b61120961472e565b600660003373ffffffffffffffffffffffffffffffffffffffff1673ffffffffffffffffffffffffffffffffffffffff16815260200190815260200160002060000160009054906101000a900460ff1615156112cd576040517f08c379a000000000000000000000000000000000000000000000000000000000815260040180806020018281038252601b8152602001807f4e6f74207265676973746572656420617320616e206f7261636c65000000000081525060200191505060405180910390fd5b600660003373ffffffffffffffffffffffffffffffffffffffff1673ffffffffffffffffffffffffffffffffffffffff16815260200190815260200160002060010160038060200260405190810160405280929190826003801561136c576020028201916000905b82829054906101000a900460ff1660ff16815260200190600101906020826000010492830192600103820291508084116113355790505b5050505050905090565b670de0b6b3a764000081565b600060011515611420576040517f08c379a00000000000000000000000000000000000000000000000000000000081526004018080602001828103825260258152602001807f436f6e74726163742069732063757272656e746c79206e6f74206f706572617481526020017f696f6e616c00000000000000000000000000000000000000000000000000000081525060400191505060405180910390fd5b6000809054906101000a900473ffffffffffffffffffffffffffffffffffffffff1673ffffffffffffffffffffffffffffffffffffffff166306fc9425836040518263ffffffff167c0100000000000000000000000000000000000000000000000000000000028152600401808260001916600019168152602001915050602060405180830381600087803b1580156114b857600080fd5b505af11580156114cc573d6000803e3d6000fd5b505050506040513d60208110156114e257600080fd5b81019080805190602001909291905050509050919050565b600060011515611598576040517f08c379a00000000000000000000000000000000000000000000000000000000081526004018080602001828103825260258152602001807f436f6e74726163742069732063757272656e746c79206e6f74206f706572617481526020017f696f6e616c00000000000000000000000000000000000000000000000000000081525060400191505060405180910390fd5b678ac7230489e800003414151561163d576040517f08c379a000000000000000000000000000000000000000000000000000000000815260040180806020018281038252602f8152602001807f596f75206d7573742070726f7669646520656e6f75676820457468657273207481526020017f6f2066756e64207468652073656564000000000000000000000000000000000081525060400191505060405180910390fd5b6000809054906101000a900473ffffffffffffffffffffffffffffffffffffffff1673ffffffffffffffffffffffffffffffffffffffff1663c456ded033678ac7230489e800006040518363ffffffff167c0100000000000000000000000000000000000000000000000000000000028152600401808373ffffffffffffffffffffffffffffffffffffffff1673ffffffffffffffffffffffffffffffffffffffff16815260200182815260200192505050600060405180830381600087803b15801561170957600080fd5b505af115801561171d573d6000803e3d6000fd5b505050507f2ddb6be289dec2d7045d25ee20d703a7e3fe936910a54b0e6d2878a338694eae33678ac7230489e80000604051808373ffffffffffffffffffffffffffffffffffffffff1673ffffffffffffffffffffffffffffffffffffffff1681526020018281526020019250505060405180910390a16000809054906101000a900473ffffffffffffffffffffffffffffffffffffffff1673ffffffffffffffffffffffffffffffffffffffff1663f3ba4e1b336040518263ffffffff167c0100000000000000000000000000000000000000000000000000000000028152600401808273ffffffffffffffffffffffffffffffffffffffff1673ffffffffffffffffffffffffffffffffffffffff168152602001915050602060405180830381600087803b15801561185057600080fd5b505af1158015611864573d6000803e3d6000fd5b505050506040513d602081101561187a57600080fd5b8101908080519060200190929190505050905090565b6000600260009054906101000a900473ffffffffffffffffffffffffffffffffffffffff1673ffffffffffffffffffffffffffffffffffffffff163373ffffffffffffffffffffffffffffffffffffffff16141515611957576040517f08c379a000000000000000000000000000000000000000000000000000000000815260040180806020018281038252601c8152602001807f43616c6c6572206973206e6f7420636f6e7472616374206f776e65720000000081525060200191505060405180910390fd5b6000809054906101000a900473ffffffffffffffffffffffffffffffffffffffff1673ffffffffffffffffffffffffffffffffffffffff1663bdfd9877836040518263ffffffff167c0100000000000000000000000000000000000000000000000000000000028152600401808273ffffffffffffffffffffffffffffffffffffffff1673ffffffffffffffffffffffffffffffffffffffff168152602001915050600060405180830381600087803b158015611a1357600080fd5b505af1158015611a27573d6000803e3d6000fd5b505050507faab99a4eaa3c6b80859651427de3a99a4ffb4cbca03d8e361daaffb5f592b3a282604051808273ffffffffffffffffffffffffffffffffffffffff1673ffffffffffffffffffffffffffffffffffffffff16815260200191505060405180910390a16000809054906101000a900473ffffffffffffffffffffffffffffffffffffffff1673ffffffffffffffffffffffffffffffffffffffff16630e248a11836040518263ffffffff167c0100000000000000000000000000000000000000000000000000000000028152600401808273ffffffffffffffffffffffffffffffffffffffff1673ffffffffffffffffffffffffffffffffffffffff168152602001915050602060405180830381600087803b158015611b4a57600080fd5b505af1158015611b5e573d6000803e3d6000fd5b505050506040513d6020811015611b7457600080fd5b81019080805190602001909291905050509050919050565b600060011515611c2a576040517f08c379a00000000000000000000000000000000000000000000000000000000081526004018080602001828103825260258152602001807f436f6e74726163742069732063757272656e746c79206e6f74206f706572617481526020017f696f6e616c00000000000000000000000000000000000000000000000000000081525060400191505060405180910390fd5b6000809054906101000a900473ffffffffffffffffffffffffffffffffffffffff1673ffffffffffffffffffffffffffffffffffffffff16633ad9796a836040518263ffffffff167c0100000000000000000000000000000000000000000000000000000000028152600401808260001916600019168152602001915050602060405180830381600087803b158015611cc257600080fd5b505af1158015611cd6573d6000803e3d6000fd5b505050506040513d6020811015611cec57600080fd5b81019080805190602001909291905050509050919050565b60008560ff16600660003373ffffffffffffffffffffffffffffffffffffffff1673ffffffffffffffffffffffffffffffffffffffff1681526020019081526020016000206001016000600381101515611d5a57fe5b602091828204019190069054906101000a900460ff1660ff161480611de957508560ff16600660003373ffffffffffffffffffffffffffffffffffffffff1673ffffffffffffffffffffffffffffffffffffffff1681526020019081526020016000206001016001600381101515611dce57fe5b602091828204019190069054906101000a900460ff1660ff16145b80611e5e57508560ff16600660003373ffffffffffffffffffffffffffffffffffffffff1673ffffffffffffffffffffffffffffffffffffffff1681526020019081526020016000206001016002600381101515611e4357fe5b602091828204019190069054906101000a900460ff1660ff16145b1515611ef8576040517f08c379a00000000000000000000000000000000000000000000000000000000081526004018080602001828103825260238152602001807f496e64657820646f6573206e6f74206d61746368206f7261636c65207265717581526020017f657374000000000000000000000000000000000000000000000000000000000081525060400191505060405180910390fd5b85858585604051602001808560ff1660ff167f01000000000000000000000000000000000000000000000000000000000000000281526001018473ffffffffffffffffffffffffffffffffffffffff1673ffffffffffffffffffffffffffffffffffffffff166c0100000000000000000000000002815260140183600019166000191681526020018281526020019450505050506040516020818303038152906040526040518082805190602001908083835b602083101515611fd05780518252602082019150602081019050602083039250611fab565b6001836020036101000a0380198251168184511680821785525050505050509050019150506040518091039020905060076000826000191660001916815260200190815260200160002060000160149054906101000a900460ff1615156120c5576040517f08c379a000000000000000000000000000000000000000000000000000000000815260040180806020018281038252602f8152602001807f466c69676874206f722074696d657374616d7020646f206e6f74206d6174636881526020017f206f7261636c652072657175657374000000000000000000000000000000000081525060400191505060405180910390fd5b60076000826000191660001916815260200190815260200160002060010160008360ff1660ff1681526020019081526020016000203390806001815401808255809150509060018203906000526020600020016000909192909190916101000a81548173ffffffffffffffffffffffffffffffffffffffff021916908373ffffffffffffffffffffffffffffffffffffffff160217905550507f06354a194cc1aa38c93009e264262f1db6b56a5e6dc2be2c7596a94b980c2f8585858585604051808573ffffffffffffffffffffffffffffffffffffffff1673ffffffffffffffffffffffffffffffffffffffff16815260200184600019166000191681526020018381526020018260ff1660ff16815260200194505050505060405180910390a1600360076000836000191660001916815260200190815260200160002060010160008460ff1660ff168152602001908152602001600020805490501015156122bf577f2c01e4c91c66eba4e28833dfd0d7db5b12558c3773d8fe5ab88cbaafb423056e85858585604051808573ffffffffffffffffffffffffffffffffffffffff1673ffffffffffffffffffffffffffffffffffffffff16815260200184600019166000191681526020018381526020018260ff1660ff16815260200194505050505060405180910390a16122be85858585610b56565b5b505050505050565b6000600115156000809054906101000a900473ffffffffffffffffffffffffffffffffffffffff1673ffffffffffffffffffffffffffffffffffffffff16630e248a11336040518263ffffffff167c0100000000000000000000000000000000000000000000000000000000028152600401808273ffffffffffffffffffffffffffffffffffffffff1673ffffffffffffffffffffffffffffffffffffffff168152602001915050602060405180830381600087803b15801561238957600080fd5b505af115801561239d573d6000803e3d6000fd5b505050506040513d60208110156123b357600080fd5b81019080805190602001909291905050501515141515612461576040517f08c379a00000000000000000000000000000000000000000000000000000000081526004018080602001828103825260288152602001807f4169726c696e65206d616b696e67207468652063616c6c206973206e6f74207281526020017f656769737472656400000000000000000000000000000000000000000000000081525060400191505060405180910390fd5b600115156000809054906101000a900473ffffffffffffffffffffffffffffffffffffffff1673ffffffffffffffffffffffffffffffffffffffff1663f3ba4e1b336040518263ffffffff167c0100000000000000000000000000000000000000000000000000000000028152600401808273ffffffffffffffffffffffffffffffffffffffff1673ffffffffffffffffffffffffffffffffffffffff168152602001915050602060405180830381600087803b15801561252157600080fd5b505af1158015612535573d6000803e3d6000fd5b505050506040513d602081101561254b57600080fd5b810190808051906020019092919050505015151415156125f9576040517f08c379a000000000000000000000000000000000000000000000000000000000815260040180806020018281038252602e8152602001807f4169726c696e65206d616b696e67207468652063616c6c20686173206e6f742081526020017f70726f76696465642066756e647300000000000000000000000000000000000081525060400191505060405180910390fd5b6000809054906101000a900473ffffffffffffffffffffffffffffffffffffffff1673ffffffffffffffffffffffffffffffffffffffff16633de7615784846000336040518563ffffffff167c01000000000000000000000000000000000000000000000000000000000281526004018085600019166000191681526020018481526020018360ff1660ff1681526020018273ffffffffffffffffffffffffffffffffffffffff1673ffffffffffffffffffffffffffffffffffffffff168152602001945050505050600060405180830381600087803b1580156126dc57600080fd5b505af11580156126f0573d6000803e3d6000fd5b505050507f486b393c6dfcb903b6f284b93d932298ba8ac6c2f7dc30f966ff790770ff13698383336040518084600019166000191681526020018381526020018273ffffffffffffffffffffffffffffffffffffffff1673ffffffffffffffffffffffffffffffffffffffff168152602001935050505060405180910390a16000809054906101000a900473ffffffffffffffffffffffffffffffffffffffff1673ffffffffffffffffffffffffffffffffffffffff1663f22de9628484336040518463ffffffff167c01000000000000000000000000000000000000000000000000000000000281526004018084600019166000191681526020018381526020018273ffffffffffffffffffffffffffffffffffffffff1673ffffffffffffffffffffffffffffffffffffffff1681526020019350505050602060405180830381600087803b15801561284357600080fd5b505af1158015612857573d6000803e3d6000fd5b505050506040513d602081101561286d57600080fd5b8101908080519060200190929190505050905092915050565b60008060008060011515612928576040517f08c379a00000000000000000000000000000000000000000000000000000000081526004018080602001828103825260258152602001807f436f6e74726163742069732063757272656e746c79206e6f74206f706572617481526020017f696f6e616c00000000000000000000000000000000000000000000000000000081525060400191505060405180910390fd5b600115156000809054906101000a900473ffffffffffffffffffffffffffffffffffffffff1673ffffffffffffffffffffffffffffffffffffffff16630e248a11336040518263ffffffff167c0100000000000000000000000000000000000000000000000000000000028152600401808273ffffffffffffffffffffffffffffffffffffffff1673ffffffffffffffffffffffffffffffffffffffff168152602001915050602060405180830381600087803b1580156129e857600080fd5b505af11580156129fc573d6000803e3d6000fd5b505050506040513d6020811015612a1257600080fd5b81019080805190602001909291905050501515141515612ac0576040517f08c379a00000000000000000000000000000000000000000000000000000000081526004018080602001828103825260288152602001807f4169726c696e65206d616b696e67207468652063616c6c206973206e6f74207281526020017f656769737472656400000000000000000000000000000000000000000000000081525060400191505060405180910390fd5b600115156000809054906101000a900473ffffffffffffffffffffffffffffffffffffffff1673ffffffffffffffffffffffffffffffffffffffff1663f3ba4e1b336040518263ffffffff167c0100000000000000000000000000000000000000000000000000000000028152600401808273ffffffffffffffffffffffffffffffffffffffff1673ffffffffffffffffffffffffffffffffffffffff168152602001915050602060405180830381600087803b158015612b8057600080fd5b505af1158015612b94573d6000803e3d6000fd5b505050506040513d6020811015612baa57600080fd5b81019080805190602001909291905050501515141515612c58576040517f08c379a000000000000000000000000000000000000000000000000000000000815260040180806020018281038252602e8152602001807f4169726c696e65206d616b696e67207468652063616c6c20686173206e6f742081526020017f70726f76696465642066756e647300000000000000000000000000000000000081525060400191505060405180910390fd5b600360008673ffffffffffffffffffffffffffffffffffffffff1673ffffffffffffffffffffffffffffffffffffffff168152602001908152602001600020805480602002602001604051908101604052809291908181526020018280548015612d1757602002820191906000526020600020905b8160009054906101000a900473ffffffffffffffffffffffffffffffffffffffff1673ffffffffffffffffffffffffffffffffffffffff1681526020019060010190808311612ccd575b505050505060008060009150600090505b8251811015613536573373ffffffffffffffffffffffffffffffffffffffff168382815181101515612d5657fe5b9060200190602002015173ffffffffffffffffffffffffffffffffffffffff161415613529576001915060009450612e4c6000809054906101000a900473ffffffffffffffffffffffffffffffffffffffff1673ffffffffffffffffffffffffffffffffffffffff1663485ace876040518163ffffffff167c0100000000000000000000000000000000000000000000000000000000028152600401602060405180830381600087803b158015612e0c57600080fd5b505af1158015612e20573d6000803e3d6000fd5b505050506040513d6020811015612e3657600080fd5b810190808051906020019092919050505061450e565b935060046000809054906101000a900473ffffffffffffffffffffffffffffffffffffffff1673ffffffffffffffffffffffffffffffffffffffff1663485ace876040518163ffffffff167c0100000000000000000000000000000000000000000000000000000000028152600401602060405180830381600087803b158015612ed557600080fd5b505af1158015612ee9573d6000803e3d6000fd5b505050506040513d6020811015612eff57600080fd5b81019080805190602001909291905050501015156131c757600360008973ffffffffffffffffffffffffffffffffffffffff1673ffffffffffffffffffffffffffffffffffffffff1681526020019081526020016000203390806001815401808255809150509060018203906000526020600020016000909192909190916101000a81548173ffffffffffffffffffffffffffffffffffffffff021916908373ffffffffffffffffffffffffffffffffffffffff160217905550507f2f246f18c722d5db533d3e88a3ed03bb6d8f80310923ab89b233f772385f7e7333600360008b73ffffffffffffffffffffffffffffffffffffffff1673ffffffffffffffffffffffffffffffffffffffff16815260200190815260200160002080549050604051808373ffffffffffffffffffffffffffffffffffffffff1673ffffffffffffffffffffffffffffffffffffffff1681526020018281526020019250505060405180910390a1613134600360008a73ffffffffffffffffffffffffffffffffffffffff1673ffffffffffffffffffffffffffffffffffffffff16815260200190815260200160002080548060200260200160405190810160405280929190818152602001828054801561312957602002820191906000526020600020905b8160009054906101000a900473ffffffffffffffffffffffffffffffffffffffff1673ffffffffffffffffffffffffffffffffffffffff16815260200190600101908083116130df575b505050505085614561565b156131c25760006040519080825280602002602001820160405280156131695781602001602082028038833980820191505090505b50600360008a73ffffffffffffffffffffffffffffffffffffffff1673ffffffffffffffffffffffffffffffffffffffff16815260200190815260200160002090805190602001906131bc9291906147eb565b50600194505b6131cc565b600194505b84156133ea576000600360008a73ffffffffffffffffffffffffffffffffffffffff1673ffffffffffffffffffffffffffffffffffffffff168152602001908152602001600020805490501415156132b2576040517f08c379a00000000000000000000000000000000000000000000000000000000081526004018080602001828103825260228152602001807f6e756d626572206f6620766f7465732073686f756c642062652073657420746f81526020017f203000000000000000000000000000000000000000000000000000000000000081525060400191505060405180910390fd5b6000809054906101000a900473ffffffffffffffffffffffffffffffffffffffff1673ffffffffffffffffffffffffffffffffffffffff1663bdfd9877896040518263ffffffff167c0100000000000000000000000000000000000000000000000000000000028152600401808273ffffffffffffffffffffffffffffffffffffffff1673ffffffffffffffffffffffffffffffffffffffff168152602001915050600060405180830381600087803b15801561336e57600080fd5b505af1158015613382573d6000803e3d6000fd5b505050507faab99a4eaa3c6b80859651427de3a99a4ffb4cbca03d8e361daaffb5f592b3a288604051808273ffffffffffffffffffffffffffffffffffffffff1673ffffffffffffffffffffffffffffffffffffffff16815260200191505060405180910390a15b6000809054906101000a900473ffffffffffffffffffffffffffffffffffffffff1673ffffffffffffffffffffffffffffffffffffffff16630e248a11896040518263ffffffff167c0100000000000000000000000000000000000000000000000000000000028152600401808273ffffffffffffffffffffffffffffffffffffffff1673ffffffffffffffffffffffffffffffffffffffff168152602001915050602060405180830381600087803b1580156134a657600080fd5b505af11580156134ba573d6000803e3d6000fd5b505050506040513d60208110156134d057600080fd5b8101908080519060200190929190505050600360008a73ffffffffffffffffffffffffffffffffffffffff1673ffffffffffffffffffffffffffffffffffffffff16815260200190815260200160002080549050965096505b8080600101915050612d28565b811515156135d2576040517f08c379a00000000000000000000000000000000000000000000000000000000081526004018080602001828103825260278152602001807f43616c6c65722068617320616c72656164792063616c6c65642074686973206681526020017f756e6374696f6e0000000000000000000000000000000000000000000000000081525060400191505060405180910390fd5b6000945061369e6000809054906101000a900473ffffffffffffffffffffffffffffffffffffffff1673ffffffffffffffffffffffffffffffffffffffff1663485ace876040518163ffffffff167c0100000000000000000000000000000000000000000000000000000000028152600401602060405180830381600087803b15801561365e57600080fd5b505af1158015613672573d6000803e3d6000fd5b505050506040513d602081101561368857600080fd5b810190808051906020019092919050505061450e565b935060046000809054906101000a900473ffffffffffffffffffffffffffffffffffffffff1673ffffffffffffffffffffffffffffffffffffffff1663485ace876040518163ffffffff167c0100000000000000000000000000000000000000000000000000000000028152600401602060405180830381600087803b15801561372757600080fd5b505af115801561373b573d6000803e3d6000fd5b505050506040513d602081101561375157600080fd5b8101908080519060200190929190505050101515613a1957600360008973ffffffffffffffffffffffffffffffffffffffff1673ffffffffffffffffffffffffffffffffffffffff1681526020019081526020016000203390806001815401808255809150509060018203906000526020600020016000909192909190916101000a81548173ffffffffffffffffffffffffffffffffffffffff021916908373ffffffffffffffffffffffffffffffffffffffff160217905550507f2f246f18c722d5db533d3e88a3ed03bb6d8f80310923ab89b233f772385f7e7333600360008b73ffffffffffffffffffffffffffffffffffffffff1673ffffffffffffffffffffffffffffffffffffffff16815260200190815260200160002080549050604051808373ffffffffffffffffffffffffffffffffffffffff1673ffffffffffffffffffffffffffffffffffffffff1681526020018281526020019250505060405180910390a1613986600360008a73ffffffffffffffffffffffffffffffffffffffff1673ffffffffffffffffffffffffffffffffffffffff16815260200190815260200160002080548060200260200160405190810160405280929190818152602001828054801561397b57602002820191906000526020600020905b8160009054906101000a900473ffffffffffffffffffffffffffffffffffffffff1673ffffffffffffffffffffffffffffffffffffffff1681526020019060010190808311613931575b505050505085614561565b15613a145760006040519080825280602002602001820160405280156139bb5781602001602082028038833980820191505090505b50600360008a73ffffffffffffffffffffffffffffffffffffffff1673ffffffffffffffffffffffffffffffffffffffff1681526020019081526020016000209080519060200190613a0e9291906147eb565b50600194505b613a1e565b600194505b8415613c3c576000600360008a73ffffffffffffffffffffffffffffffffffffffff1673ffffffffffffffffffffffffffffffffffffffff16815260200190815260200160002080549050141515613b04576040517f08c379a00000000000000000000000000000000000000000000000000000000081526004018080602001828103825260228152602001807f6e756d626572206f6620766f7465732073686f756c642062652073657420746f81526020017f203000000000000000000000000000000000000000000000000000000000000081525060400191505060405180910390fd5b6000809054906101000a900473ffffffffffffffffffffffffffffffffffffffff1673ffffffffffffffffffffffffffffffffffffffff1663bdfd9877896040518263ffffffff167c0100000000000000000000000000000000000000000000000000000000028152600401808273ffffffffffffffffffffffffffffffffffffffff1673ffffffffffffffffffffffffffffffffffffffff168152602001915050600060405180830381600087803b158015613bc057600080fd5b505af1158015613bd4573d6000803e3d6000fd5b505050507faab99a4eaa3c6b80859651427de3a99a4ffb4cbca03d8e361daaffb5f592b3a288604051808273ffffffffffffffffffffffffffffffffffffffff1673ffffffffffffffffffffffffffffffffffffffff16815260200191505060405180910390a15b6000809054906101000a900473ffffffffffffffffffffffffffffffffffffffff1673ffffffffffffffffffffffffffffffffffffffff16630e248a11896040518263ffffffff167c0100000000000000000000000000000000000000000000000000000000028152600401808273ffffffffffffffffffffffffffffffffffffffff1673ffffffffffffffffffffffffffffffffffffffff168152602001915050602060405180830381600087803b158015613cf857600080fd5b505af1158015613d0c573d6000803e3d6000fd5b505050506040513d6020811015613d2257600080fd5b8101908080519060200190929190505050600360008a73ffffffffffffffffffffffffffffffffffffffff1673ffffffffffffffffffffffffffffffffffffffff16815260200190815260200160002080549050965096505050505050915091565b60008060009054906101000a900473ffffffffffffffffffffffffffffffffffffffff1673ffffffffffffffffffffffffffffffffffffffff1663cd905dff6040518163ffffffff167c0100000000000000000000000000000000000000000000000000000000028152600401602060405180830381600087803b158015613e0b57600080fd5b505af1158015613e1f573d6000803e3d6000fd5b505050506040513d6020811015613e3557600080fd5b8101908080519060200190929190505050905090565b678ac7230489e8000081565b600080613e6333614581565b915081858585604051602001808560ff1660ff167f01000000000000000000000000000000000000000000000000000000000000000281526001018473ffffffffffffffffffffffffffffffffffffffff1673ffffffffffffffffffffffffffffffffffffffff166c0100000000000000000000000002815260140183600019166000191681526020018281526020019450505050506040516020818303038152906040526040518082805190602001908083835b602083101515613f3d5780518252602082019150602081019050602083039250613f18565b6001836020036101000a0380198251168184511680821785525050505050509050019150506040518091039020905060408051908101604052803373ffffffffffffffffffffffffffffffffffffffff1681526020016001151581525060076000836000191660001916815260200190815260200160002060008201518160000160006101000a81548173ffffffffffffffffffffffffffffffffffffffff021916908373ffffffffffffffffffffffffffffffffffffffff16021790555060208201518160000160146101000a81548160ff0219169083151502179055509050507f8b9eb22876717bbfb6bc02e9c693f640e54e5eb49e166ece6d6a70a6cc84a34f82868686604051808560ff1660ff1681526020018473ffffffffffffffffffffffffffffffffffffffff1673ffffffffffffffffffffffffffffffffffffffff168152602001836000191660001916815260200182815260200194505050505060405180910390a15050505050565b60008060009054906101000a900473ffffffffffffffffffffffffffffffffffffffff1673ffffffffffffffffffffffffffffffffffffffff1663f8b2cb4f836040518263ffffffff167c0100000000000000000000000000000000000000000000000000000000028152600401808273ffffffffffffffffffffffffffffffffffffffff1673ffffffffffffffffffffffffffffffffffffffff168152602001915050602060405180830381600087803b15801561416d57600080fd5b505af1158015614181573d6000803e3d6000fd5b505050506040513d602081101561419757600080fd5b81019080805190602001909291905050509050919050565b60606001151561424d576040517f08c379a00000000000000000000000000000000000000000000000000000000081526004018080602001828103825260258152602001807f436f6e74726163742069732063757272656e746c79206e6f74206f706572617481526020017f696f6e616c00000000000000000000000000000000000000000000000000000081525060400191505060405180910390fd5b6000809054906101000a900473ffffffffffffffffffffffffffffffffffffffff1673ffffffffffffffffffffffffffffffffffffffff16634c11b93c6040518163ffffffff167c0100000000000000000000000000000000000000000000000000000000028152600401600060405180830381600087803b1580156142d257600080fd5b505af11580156142e6573d6000803e3d6000fd5b505050506040513d6000823e3d601f19601f82011682018060405250602081101561431057600080fd5b81019080805164010000000081111561432857600080fd5b8281019050602081018481111561433e57600080fd5b815185602082028301116401000000008211171561435b57600080fd5b5050929190505050905090565b61437061472e565b61437861472e565b61438183614581565b81600060038110151561439057fe5b602002019060ff16908160ff16815250508060006003811015156143b057fe5b60200201518160016003811015156143c457fe5b602002019060ff16908160ff16815250505b8060006003811015156143e557fe5b602002015160ff168160016003811015156143fc57fe5b602002015160ff1614156144385761441383614581565b81600160038110151561442257fe5b602002019060ff16908160ff16815250506143d6565b80600160038110151561444757fe5b602002015181600260038110151561445b57fe5b602002019060ff16908160ff16815250505b80600060038110151561447c57fe5b602002015160ff1681600260038110151561449357fe5b602002015160ff1614806144d257508060016003811015156144b157fe5b602002015160ff168160026003811015156144c857fe5b602002015160ff16145b15614505576144e083614581565b8160026003811015156144ef57fe5b602002019060ff16908160ff168152505061446d565b80915050919050565b6000806145256002846146e390919063ffffffff16565b9050600160028481151561453557fe5b0614156145575761455060018261470d90919063ffffffff16565b915061455b565b8091505b50919050565b6000818351101515614576576001905061457b565b600090505b92915050565b6000806000600a91508160ff166005600081819054906101000a900460ff168092919060010191906101000a81548160ff021916908360ff16021790555060ff16430340856040516020018083600019166000191681526020018273ffffffffffffffffffffffffffffffffffffffff1673ffffffffffffffffffffffffffffffffffffffff166c01000000000000000000000000028152601401925050506040516020818303038152906040526040518082805190602001908083835b602083101515614664578051825260208201915060208101905060208303925061463f565b6001836020036101000a03801982511681845116808217855250505050505090500191505060405180910390206001900481151561469e57fe5b06905060fa600560009054906101000a900460ff1660ff1611156146d9576000600560006101000a81548160ff021916908360ff1602179055505b8092505050919050565b6000806000831115156146f557600080fd5b828481151561470057fe5b0490508091505092915050565b600080828401905083811015151561472457600080fd5b8091505092915050565b606060405190810160405280600390602082028038833980820191505090505090565b826003601f016020900481019282156147da5791602002820160005b838211156147ab57835183826101000a81548160ff021916908360ff160217905550926020019260010160208160000104928301926001030261476d565b80156147d85782816101000a81549060ff02191690556001016020816000010492830192600103026147ab565b505b5090506147e79190614875565b5090565b828054828255906000526020600020908101928215614864579160200282015b828111156148635782518260006101000a81548173ffffffffffffffffffffffffffffffffffffffff021916908373ffffffffffffffffffffffffffffffffffffffff1602179055509160200191906001019061480b565b5b50905061487191906148a5565b5090565b6148a291905b8082111561489e57600081816101000a81549060ff02191690555060010161487b565b5090565b90565b6148e591905b808211156148e157600081816101000a81549073ffffffffffffffffffffffffffffffffffffffff0219169055506001016148ab565b5090565b905600a165627a7a7230582054bfe661701f0173991b62eb594a4f59768bc4fd64efad817a34f6eae34ae6520029",
  "source": "pragma solidity ^0.4.25;\r\n\r\n// It's important to avoid vulnerabilities due to numeric overflow bugs\r\n// OpenZeppelin's SafeMath library, when used correctly, protects agains such bugs\r\n// More info: https://www.nccgroup.trust/us/about-us/newsroom-and-events/blog/2018/november/smart-contract-insecurity-bad-arithmetic/\r\n\r\nimport \"../../node_modules/openzeppelin-solidity/contracts/math/SafeMath.sol\";\r\n\r\nimport \"./FlightSuretyData.sol\";\r\n\r\n\r\n\r\n/************************************************** */\r\n/* FlightSurety Smart Contract                      */\r\n/************************************************** */\r\ncontract FlightSuretyApp {\r\n    // Allow SafeMath functions to be called for all uint256 types (similar to \"prototype\" in Javascript)\r\n    using SafeMath for uint256; \r\n    /********************************************************************************************/\r\n    /*                                       DATA VARIABLES                                     */\r\n    /********************************************************************************************/\r\n\r\n    // Data contract reference\r\n    FlightSuretyData private flightSuretyData;\r\n    address flightSuretyDataContractAddress;\r\n    // Address used to deploy contract\r\n    address private contractOwner;        \r\n\r\n    // Flight status codees\r\n    uint8 private constant STATUS_CODE_UNKNOWN = 0;\r\n    uint8 private constant STATUS_CODE_ON_TIME = 10;\r\n    uint8 private constant STATUS_CODE_LATE_AIRLINE = 20;\r\n    uint8 private constant STATUS_CODE_LATE_WEATHER = 30;\r\n    uint8 private constant STATUS_CODE_LATE_TECHNICAL = 40;\r\n    uint8 private constant STATUS_CODE_LATE_OTHER = 50;\r\n\r\n\r\n    // Amount of funding\r\n    uint256 public constant FLIGHT_INSURANCE_AMOUNT = 1 ether;\r\n    uint256 public constant AIRLINE_REGISTRATION_FEE = 10 ether;\r\n\r\n    // Mapping to keep records of airlines voters per airline\r\n    mapping(address => address[]) multiCallsAirlines;\r\n\r\n    // flight structure\r\n    struct Flight {\r\n        bool isRegistered;\r\n        uint8 statusCode;\r\n        uint256 updatedTimestamp;        \r\n        address airline;\r\n    }\r\n    // mapping to keep records of all flights by flight_Id.\r\n    mapping(bytes32 => Flight) private flights;\r\n\r\n\r\n\r\n    /********************************************************************************************/\r\n    /*                                       FUNCTION MODIFIERS                                 */\r\n    /********************************************************************************************/\r\n\r\n    // Modifiers help avoid duplication of code. They are typically used to validate something\r\n    // before a function is allowed to be executed.\r\n\r\n    /**\r\n    * @dev Modifier that requires the \"operational\" boolean variable to be \"true\"\r\n    *      This is used on all state changing functions to pause the contract in \r\n    *      the event there is an issue that needs to be fixed\r\n    */\r\n    modifier requireIsOperational() \r\n    {\r\n         // Modify to call data contract's status\r\n        require(true, \"Contract is currently not operational\");  \r\n        _;  // All modifiers require an \"_\" which indicates where the function body will be added\r\n    }\r\n\r\n    /**\r\n    * @dev Modifier that requires the \"ContractOwner\" account to be the function caller\r\n    */\r\n    modifier requireContractOwner()\r\n    {\r\n        require(msg.sender == contractOwner, \"Caller is not contract owner\");\r\n        _;\r\n    }\r\n\r\n    /**\r\n    * @dev Modifier that check if the required amount of fund have been provided by the airline\r\n    */\r\n    modifier requireEnoughFunds() {\r\n        require(msg.value == AIRLINE_REGISTRATION_FEE, \"You must provide enough Ethers to fund the seed\");\r\n        _;\r\n    }\r\n\r\n    /**\r\n    * @dev Modifier that requires an airline to be registered\r\n    */\r\n    modifier requireRegisteredAirline()\r\n    {\r\n        require(flightSuretyData.isAirline(msg.sender) == true, \"Airline making the call is not registred\");\r\n        _;\r\n    }\r\n\r\n    /**\r\n    * @dev Modifier that requires an airline to be funded\r\n    */\r\n    modifier requireFundedAirline()\r\n    {\r\n        require(flightSuretyData.isFundedAirline(msg.sender) == true, \"Airline making the call has not provided funds\");\r\n        _;\r\n    }\r\n\r\n    /**\r\n    * @dev Modifier that requires the number of votes to be fullfill\r\n    */\r\n    modifier requireHasNotVoted(address[] multiCalls)\r\n    {\r\n        bool isDuplicate = false;\r\n        for(uint c=0; c<multiCalls.length; c++) {\r\n            if (multiCalls[c] == msg.sender) {\r\n                isDuplicate = true;\r\n                _;\r\n            }\r\n        }\r\n        require(!isDuplicate, \"Caller has already called this function\");\r\n        _;\r\n    }\r\n\r\n        /**\r\n    * @dev Modifier that requires the amount to buy an insurance to be between 0 and 1 Eth\r\n    */\r\n    modifier requireRequiredValue() {\r\n        require(msg.value > 0 && msg.value <= FLIGHT_INSURANCE_AMOUNT, \"You must provide enough Ethers to buy an insurance\");\r\n        _;\r\n    }\r\n\r\n    /********************************************************************************************/\r\n    /*                                       EVENTS DECLARATION                                */\r\n    /********************************************************************************************/\r\n\r\n    event AirlineWasRegistered(address airline);\r\n    event AirlineWasFunded(address airline, uint256 amount);\r\n    event AirlineHasOneMoreVote(address airline, uint256 vote);\r\n    event FlightWasRegistered(bytes32 flightName, uint256 timeStamp, address airline);\r\n    event newInsuranceHasBeenSubmitted(bytes32 flightName, address passenger, uint256 value);\r\n    event flightHasBeenProcessed(address airline, bytes32 flight, uint256 timestamp, uint8 statusCode);\r\n\r\n    /********************************************************************************************/\r\n    /*                                       CONSTRUCTOR                                        */\r\n    /********************************************************************************************/\r\n\r\n    /**\r\n    * @dev Contract constructor\r\n    *\r\n    */\r\n    constructor\r\n                                (\r\n                                    address _dataContract\r\n                                ) \r\n                                public \r\n    {\r\n        contractOwner = msg.sender;\r\n        flightSuretyDataContractAddress = _dataContract;\r\n        flightSuretyData = FlightSuretyData(_dataContract);\r\n    }\r\n\r\n    /********************************************************************************************/\r\n    /*                                       UTILITY FUNCTIONS                                  */\r\n    /********************************************************************************************/\r\n\r\n   /**\r\n    * @dev returns the contract state as a boolean\r\n    *\r\n    */ \r\n    function isOperational() \r\n                            external \r\n                            view\r\n                            returns(bool) \r\n    {\r\n        return flightSuretyData.isOperational();  // call data contract's status\r\n    }\r\n\r\n   /**\r\n    * @dev returns the number of voters divided by 2\r\n    *\r\n    */ \r\n    function calculThreshold \r\n                            (\r\n                                uint256 numberOfVoters\r\n                            )\r\n                            internal\r\n                            pure\r\n                            returns(uint256 number)\r\n    {\r\n        uint256 threshold = numberOfVoters.div(2);\r\n        if(numberOfVoters % 2 == 1) {\r\n            return threshold.add(1);\r\n        } else {\r\n            return threshold;\r\n        }\r\n    }\r\n\r\n   /**\r\n    * @dev test if enough votes have been collected according to a given threshold\r\n    *\r\n    */ \r\n    function hasEnoughVotes\r\n                            (\r\n                            address[] multiCalls,\r\n                            uint256 threshold\r\n                            )\r\n                            internal\r\n                            pure\r\n                            returns(bool)\r\n    {\r\n        if (multiCalls.length >= threshold) {\r\n            return true;    \r\n        } else {\r\n            return false;\r\n        }\r\n    }\r\n\r\n    /********************************************************************************************/\r\n    /*                                     SMART CONTRACT FUNCTIONS                             */\r\n    /********************************************************************************************/\r\n\r\n  \r\n   /**\r\n    * @dev allow contracts owner to register and fund the registration of a first airline\r\n    *\r\n    */   \r\n\r\n    function registerFirstAirline\r\n                                    (\r\n                                    address _airline\r\n                                    ) \r\n                                    requireContractOwner\r\n                                    external\r\n                                    returns(bool)\r\n    {\r\n        flightSuretyData.registerAirline(_airline);\r\n        emit AirlineWasRegistered(_airline);\r\n        return flightSuretyData.isAirline(_airline);\r\n    }\r\n\r\n    /**\r\n    * @dev Add an airline to the registration queue\r\n    *\r\n    */   \r\n\r\n    function registerAirline\r\n                            (\r\n                                address _airline   \r\n                            )\r\n                            external\r\n                            requireIsOperational\r\n                            requireRegisteredAirline\r\n                            requireFundedAirline\r\n                            requireHasNotVoted(multiCallsAirlines[_airline])\r\n                            returns(bool success, uint256 votes)\r\n    {\r\n        // Initialize a variable to simplifie the if statement and avoid redundant code\r\n        bool canBeRegistered =  false;\r\n        // Calculate vote threshold according to the number of registered airlines\r\n        uint256 threshold =  calculThreshold(flightSuretyData.howManyRegisteredAirlines());\r\n        // Test if the number of registered airlines exceed 4\r\n        if(flightSuretyData.howManyRegisteredAirlines() >= 4) {\r\n            // Add the voter to the airline's list of voters \r\n            multiCallsAirlines[_airline].push(msg.sender);\r\n            // Emit an event to keep trace of the number of votes\r\n            emit AirlineHasOneMoreVote(msg.sender, multiCallsAirlines[_airline].length);\r\n            \r\n            // Check if the number of votes have reached the threshold\r\n            if(hasEnoughVotes(multiCallsAirlines[_airline], threshold)){\r\n                // Reset the array of voters of the newly registered airline\r\n                multiCallsAirlines[_airline] = new address[](0);  \r\n                canBeRegistered =  true;\r\n            }     \r\n        } else {\r\n            canBeRegistered =  true;\r\n        }\r\n        // Register the airline and emit the according event if requirements are met\r\n        if(canBeRegistered){\r\n            // Ensure that the number of votes have been set to 0 \r\n            require(multiCallsAirlines[_airline].length == 0, \"number of votes should be set to 0\");\r\n            flightSuretyData.registerAirline(_airline);\r\n            emit AirlineWasRegistered(_airline);\r\n        }\r\n        return (flightSuretyData.isAirline(_airline), multiCallsAirlines[_airline].length);\r\n    }\r\n\r\n       /**\r\n    * @dev submit funds to fund an airline\r\n    * \r\n    */\r\n\r\n    function submitFundsAirline\r\n                                (\r\n                                )\r\n                                external\r\n                                payable\r\n                                requireIsOperational\r\n                                requireEnoughFunds\r\n                                returns(bool succes)\r\n    {\r\n        // Pass registration fees to data contract to allow the airline to fund the seed.\r\n        // address(this).transfer(100000000000);\r\n        flightSuretyData.submitFundsAirline(msg.sender, AIRLINE_REGISTRATION_FEE);\r\n        // Emit according event\r\n        emit AirlineWasFunded(msg.sender, AIRLINE_REGISTRATION_FEE);\r\n        return (flightSuretyData.isFundedAirline(msg.sender));\r\n    }\r\n\r\n   /**\r\n    * @dev returns the registered and funded airlines\r\n    *\r\n    */ \r\n    function getActiveAirlines \r\n                                (\r\n                                )\r\n                                external\r\n                                view\r\n                                requireIsOperational\r\n                                returns(address[])\r\n    {\r\n        return flightSuretyData.whatAirlines();\r\n    }\r\n\r\n   /**\r\n    * @dev Register a future flight for insuring.\r\n    *\r\n    */  \r\n    function registerFlight\r\n                                (\r\n                                    bytes32 _flightName,\r\n                                    uint256 _timeStamp\r\n                                )\r\n                                requireRegisteredAirline\r\n                                requireFundedAirline\r\n                                external\r\n                                returns(bool success)\r\n    {\r\n        // Send request to data contract to register a flight\r\n        flightSuretyData.registerFlight(_flightName, _timeStamp, STATUS_CODE_UNKNOWN, msg.sender);\r\n        // Emit according event\r\n        emit FlightWasRegistered(_flightName, _timeStamp, msg.sender);\r\n        return flightSuretyData.isFlight(_flightName, _timeStamp, msg.sender);\r\n    }\r\n\r\n   /**\r\n    * @dev returns all registered flights for a given airline\r\n    *\r\n    */ \r\n    function getAirlinesFlights \r\n                                (\r\n                                    address _airline\r\n                                )\r\n                                external\r\n                                view\r\n                                requireIsOperational\r\n                                returns(bytes32[])\r\n    {\r\n        return flightSuretyData.whatFlight(_airline);\r\n    }\r\n\r\n    /**\r\n    * @dev returns the name of the flight given it's ID\r\n    *\r\n    */ \r\n\r\n    function getFlightsName \r\n                                (\r\n                                    bytes32 _flightID\r\n                                )\r\n                                external\r\n                                view\r\n                                requireIsOperational\r\n                                returns(bytes32)\r\n    {\r\n        return flightSuretyData.whatFlightName(_flightID);\r\n    }\r\n\r\n    /**\r\n    * @dev returns the timestamp of the flight given it's ID\r\n    *\r\n    */ \r\n\r\n    function getFlightsTimestamp\r\n                                (\r\n                                    bytes32 _flightID\r\n                                )\r\n                                external\r\n                                view\r\n                                requireIsOperational\r\n                                returns(uint256)\r\n    {\r\n        return flightSuretyData.whatFlightTimestamp(_flightID);\r\n    }\r\n\r\n    /**\r\n    * @dev returns the statuscode of the flight given it's ID\r\n    *\r\n    */ \r\n\r\n    function getFlightsStatus\r\n                                (\r\n                                    bytes32 _flightID\r\n                                )\r\n                                external\r\n                                view\r\n                                requireIsOperational\r\n                                returns(uint256)\r\n    {\r\n        return flightSuretyData.viewFlightSatus(_flightID);\r\n    }\r\n\r\n    /**\r\n    * @dev Allows passenger to insure a flight\r\n    *\r\n    */ \r\n\r\n    function buyInsurance\r\n                            (\r\n                                    bytes32 _flightName,\r\n                                    uint256 _timeStamp,\r\n                                    address _airline\r\n                            )\r\n                            external\r\n                            payable\r\n                            requireRequiredValue\r\n                            returns(bool success)\r\n    {\r\n        // Send request to data contract to insure a flight\r\n        flightSuretyData.buyInsurance(_flightName, _timeStamp, _airline, msg.sender, msg.value);\r\n        // Emit according event\r\n        emit newInsuranceHasBeenSubmitted(_flightName, msg.sender, msg.value);\r\n        return flightSuretyData.isInsured(_flightName, _timeStamp, _airline, msg.sender, msg.value);\r\n    }\r\n\r\n    /**\r\n    * @dev returns the balance of an account\r\n    *\r\n    */ \r\n    \r\n    function getBalance\r\n                        (\r\n                            address _account\r\n                        )\r\n                        external\r\n                        view\r\n                        returns(uint256 balance)\r\n    {\r\n        return flightSuretyData.getBalance(_account);\r\n    }\r\n\r\n    /**\r\n    * @dev allow passengers to withdraw the balance of their account to a EOA\r\n    *\r\n    */ \r\n\r\n    function withdraw\r\n                        (\r\n                            uint256 _amount\r\n                        )\r\n                        payable\r\n                        external\r\n    {\r\n        return flightSuretyData.withdraw(msg.sender, _amount);\r\n    }\r\n\r\n   /**\r\n    * @dev called after oracle has updated flight status\r\n    *\r\n    */  \r\n    function processFlightStatus\r\n                                (\r\n                                    address airline,\r\n                                    bytes32 flight,\r\n                                    uint256 timestamp,\r\n                                    uint8 statusCode\r\n                                )\r\n                                public\r\n    {\r\n        flightSuretyData.creditInsurees(airline, flight, timestamp, statusCode);\r\n        emit flightHasBeenProcessed(airline, flight, timestamp, statusCode);\r\n    }\r\n\r\n\r\n    // generate a request for oracles to fetch flight information\r\n    function fetchFlightStatus\r\n                        (\r\n                            address airline,\r\n                            bytes32 flight,\r\n                            uint256 timestamp                            \r\n                        )\r\n                        external\r\n    {\r\n        uint8 index = getRandomIndex(msg.sender);\r\n\r\n        // Generate a unique key for storing the request\r\n        bytes32 key = keccak256(abi.encodePacked(index, airline, flight, timestamp));\r\n        oracleResponses[key] = ResponseInfo({\r\n                                                requester: msg.sender,\r\n                                                isOpen: true\r\n                                            });\r\n\r\n        emit OracleRequest(index, airline, flight, timestamp);\r\n    } \r\n\r\n\r\n// region ORACLE MANAGEMENT\r\n\r\n    // Incremented to add pseudo-randomness at various points\r\n    uint8 private nonce = 0;    \r\n\r\n    // Fee to be paid when registering oracle\r\n    uint256 public constant REGISTRATION_FEE = 1 ether;\r\n\r\n    // Number of oracles that must respond for valid status\r\n    uint256 private constant MIN_RESPONSES = 3;\r\n\r\n\r\n    struct Oracle {\r\n        bool isRegistered;\r\n        uint8[3] indexes;        \r\n    }\r\n\r\n    // Track all registered oracles\r\n    mapping(address => Oracle) private oracles;\r\n\r\n    // Model for responses from oracles\r\n    struct ResponseInfo {\r\n        address requester;                              // Account that requested status\r\n        bool isOpen;                                    // If open, oracle responses are accepted\r\n        mapping(uint8 => address[]) responses;          // Mapping key is the status code reported\r\n                                                        // This lets us group responses and identify\r\n                                                        // the response that majority of the oracles\r\n    }\r\n\r\n    // Track all oracle responses\r\n    // Key = hash(index, flight, timestamp)\r\n    mapping(bytes32 => ResponseInfo) private oracleResponses;\r\n\r\n    // Event fired each time an oracle submits a response\r\n    event FlightStatusInfo(address airline, bytes32 flight, uint256 timestamp, uint8 status);\r\n\r\n    event OracleReport(address airline, bytes32 flight, uint256 timestamp, uint8 status);\r\n\r\n    // Event fired when flight status request is submitted\r\n    // Oracles track this and if they have a matching index\r\n    // they fetch data and submit a response\r\n    event OracleRequest(uint8 index, address airline, bytes32 flight, uint256 timestamp);\r\n\r\n\r\n    // Register an oracle with the contract\r\n    function registerOracle\r\n                            (\r\n                            )\r\n                            external\r\n                            payable\r\n    {\r\n        // Require registration fee\r\n        require(msg.value >= REGISTRATION_FEE, \"Registration fee is required\");\r\n\r\n        uint8[3] memory indexes = generateIndexes(msg.sender);\r\n\r\n        oracles[msg.sender] = Oracle({\r\n                                        isRegistered: true,\r\n                                        indexes: indexes\r\n                                    });\r\n    }\r\n\r\n    // return the index of the oracle\r\n    function getMyIndexes\r\n                            (\r\n                            )\r\n                            view\r\n                            external\r\n                            returns(uint8[3])\r\n    {\r\n        require(oracles[msg.sender].isRegistered, \"Not registered as an oracle\");\r\n\r\n        return oracles[msg.sender].indexes;\r\n    }\r\n\r\n\r\n\r\n\r\n    // Called by oracle when a response is available to an outstanding request\r\n    // For the response to be accepted, there must be a pending request that is open\r\n    // and matches one of the three Indexes randomly assigned to the oracle at the\r\n    // time of registration (i.e. uninvited oracles are not welcome)\r\n    function submitOracleResponse\r\n                        (\r\n                            uint8 index,\r\n                            address airline,\r\n                            bytes32 flight,\r\n                            uint256 timestamp,\r\n                            uint8 statusCode\r\n                        )\r\n                        external\r\n    {\r\n        require((oracles[msg.sender].indexes[0] == index) || (oracles[msg.sender].indexes[1] == index) || (oracles[msg.sender].indexes[2] == index), \"Index does not match oracle request\");\r\n\r\n\r\n        bytes32 key = keccak256(abi.encodePacked(index, airline, flight, timestamp)); \r\n        require(oracleResponses[key].isOpen, \"Flight or timestamp do not match oracle request\");\r\n\r\n        oracleResponses[key].responses[statusCode].push(msg.sender);\r\n\r\n        // Information isn't considered verified until at least MIN_RESPONSES\r\n        // oracles respond with the *** same *** information\r\n        emit OracleReport(airline, flight, timestamp, statusCode);\r\n        if (oracleResponses[key].responses[statusCode].length >= MIN_RESPONSES) {\r\n\r\n            emit FlightStatusInfo(airline, flight, timestamp, statusCode);\r\n\r\n            // Handle flight status as appropriate\r\n            processFlightStatus(airline, flight, timestamp, statusCode);\r\n        }\r\n    }\r\n\r\n    // return the id of a flight\r\n    function getFlightKey\r\n                        (\r\n                            address airline,\r\n                            string flight,\r\n                            uint256 timestamp\r\n                        )\r\n                        pure\r\n                        internal\r\n                        returns(bytes32) \r\n    {\r\n        return keccak256(abi.encodePacked(airline, flight, timestamp));\r\n    }\r\n\r\n    // Returns array of three non-duplicating integers from 0-9\r\n    function generateIndexes\r\n                            (                       \r\n                                address account         \r\n                            )\r\n                            internal\r\n                            returns(uint8[3])\r\n    {\r\n        uint8[3] memory indexes;\r\n        indexes[0] = getRandomIndex(account);\r\n        \r\n        indexes[1] = indexes[0];\r\n        while(indexes[1] == indexes[0]) {\r\n            indexes[1] = getRandomIndex(account);\r\n        }\r\n\r\n        indexes[2] = indexes[1];\r\n        while((indexes[2] == indexes[0]) || (indexes[2] == indexes[1])) {\r\n            indexes[2] = getRandomIndex(account);\r\n        }\r\n\r\n        return indexes;\r\n    }\r\n\r\n    // Returns array of three non-duplicating integers from 0-9\r\n    function getRandomIndex\r\n                            (\r\n                                address account\r\n                            )\r\n                            internal\r\n                            returns (uint8)\r\n    {\r\n        uint8 maxValue = 10;\r\n\r\n        // Pseudo random number...the incrementing nonce adds variation\r\n        uint8 random = uint8(uint256(keccak256(abi.encodePacked(blockhash(block.number - nonce++), account))) % maxValue);\r\n\r\n        if (nonce > 250) {\r\n            nonce = 0;  // Can only fetch blockhashes for last 256 blocks so we adapt\r\n        }\r\n\r\n        return random;\r\n    }\r\n\r\n// endregion\r\n}   \r\n\r\n",
  "sourcePath": "C:/Users/48his/Documents/TP/Blockchain/flightSurety_Project_Angular/truffle/contracts/FlightSuretyApp.sol",
  "compiler": {
    "name": "solc",
    "version": "0.4.26+commit.4563c3fc.Emscripten.clang"
  },
  "schemaVersion": "3.0.1",
  "updatedAt": "2022-09-14T09:53:52.271Z",
  "devdoc": {
    "methods": {
      "buyInsurance(bytes32,uint256,address)": {
        "details": "Allows passenger to insure a flight\r     "
      },
      "getActiveAirlines()": {
        "details": "returns the registered and funded airlines\r     "
      },
      "getAirlinesFlights(address)": {
        "details": "returns all registered flights for a given airline\r     "
      },
      "getBalance(address)": {
        "details": "returns the balance of an account\r     "
      },
      "getFlightsName(bytes32)": {
        "details": "returns the name of the flight given it's ID\r     "
      },
      "getFlightsStatus(bytes32)": {
        "details": "returns the statuscode of the flight given it's ID\r     "
      },
      "getFlightsTimestamp(bytes32)": {
        "details": "returns the timestamp of the flight given it's ID\r     "
      },
      "isOperational()": {
        "details": "returns the contract state as a boolean\r     "
      },
      "processFlightStatus(address,bytes32,uint256,uint8)": {
        "details": "called after oracle has updated flight status\r     "
      },
      "registerAirline(address)": {
        "details": "Add an airline to the registration queue\r     "
      },
      "registerFirstAirline(address)": {
        "details": "allow contracts owner to register and fund the registration of a first airline\r     "
      },
      "registerFlight(bytes32,uint256)": {
        "details": "Register a future flight for insuring.\r     "
      },
      "submitFundsAirline()": {
        "details": "submit funds to fund an airline\r \r"
      },
      "withdraw(uint256)": {
        "details": "allow passengers to withdraw the balance of their account to a EOA\r     "
      }
    }
  },
  "userdoc": {
    "methods": {}
  }
}