{
  "contractName": "FlightSuretyData",
  "abi": [
    {
      "inputs": [],
      "payable": false,
      "stateMutability": "nonpayable",
      "type": "constructor"
    },
    {
      "payable": true,
      "stateMutability": "payable",
      "type": "fallback"
    },
    {
      "anonymous": false,
      "inputs": [
        {
          "indexed": false,
          "name": "airline",
          "type": "address"
        },
        {
          "indexed": false,
          "name": "registered",
          "type": "bool"
        }
      ],
      "name": "AirlineWasRegistered",
      "type": "event"
    },
    {
      "anonymous": false,
      "inputs": [
        {
          "indexed": false,
          "name": "airline",
          "type": "address"
        },
        {
          "indexed": false,
          "name": "amount",
          "type": "uint256"
        },
        {
          "indexed": false,
          "name": "funded",
          "type": "bool"
        }
      ],
      "name": "AirlineWasFunded",
      "type": "event"
    },
    {
      "anonymous": false,
      "inputs": [
        {
          "indexed": false,
          "name": "airline",
          "type": "address"
        },
        {
          "indexed": false,
          "name": "contractAddress",
          "type": "address"
        },
        {
          "indexed": false,
          "name": "amount",
          "type": "uint256"
        }
      ],
      "name": "funded",
      "type": "event"
    },
    {
      "anonymous": false,
      "inputs": [
        {
          "indexed": false,
          "name": "_flightID",
          "type": "bytes32"
        },
        {
          "indexed": false,
          "name": "_flightName",
          "type": "bytes32"
        },
        {
          "indexed": false,
          "name": "_timeStamp",
          "type": "uint256"
        },
        {
          "indexed": false,
          "name": "_statusCode",
          "type": "uint8"
        },
        {
          "indexed": false,
          "name": "_airline",
          "type": "address"
        }
      ],
      "name": "FlightWasRegistered",
      "type": "event"
    },
    {
      "anonymous": false,
      "inputs": [
        {
          "indexed": false,
          "name": "insuranceID",
          "type": "bytes32"
        },
        {
          "indexed": false,
          "name": "flightName",
          "type": "bytes32"
        },
        {
          "indexed": false,
          "name": "passenger",
          "type": "address"
        },
        {
          "indexed": false,
          "name": "value",
          "type": "uint256"
        }
      ],
      "name": "newInsurance",
      "type": "event"
    },
    {
      "anonymous": false,
      "inputs": [
        {
          "indexed": false,
          "name": "_airline",
          "type": "address"
        },
        {
          "indexed": false,
          "name": "_flightName",
          "type": "bytes32"
        },
        {
          "indexed": false,
          "name": "_timestamp",
          "type": "uint256"
        },
        {
          "indexed": false,
          "name": "_statusCode",
          "type": "uint8"
        }
      ],
      "name": "statusCodeUpddated",
      "type": "event"
    },
    {
      "anonymous": false,
      "inputs": [
        {
          "indexed": false,
          "name": "_airline",
          "type": "address"
        },
        {
          "indexed": false,
          "name": "_flightName",
          "type": "bytes32"
        },
        {
          "indexed": false,
          "name": "_timeStamp",
          "type": "uint256"
        },
        {
          "indexed": false,
          "name": "_statusCode",
          "type": "uint8"
        },
        {
          "indexed": false,
          "name": "_passenger",
          "type": "address"
        },
        {
          "indexed": false,
          "name": "_value",
          "type": "uint256"
        }
      ],
      "name": "passengerCredited",
      "type": "event"
    },
    {
      "anonymous": false,
      "inputs": [
        {
          "indexed": false,
          "name": "_passenger",
          "type": "address"
        },
        {
          "indexed": false,
          "name": "_amount",
          "type": "uint256"
        },
        {
          "indexed": false,
          "name": "remainingSolde",
          "type": "uint256"
        }
      ],
      "name": "accountTransfer",
      "type": "event"
    },
    {
      "constant": true,
      "inputs": [],
      "name": "isOperational",
      "outputs": [
        {
          "name": "",
          "type": "bool"
        }
      ],
      "payable": false,
      "stateMutability": "view",
      "type": "function"
    },
    {
      "constant": false,
      "inputs": [
        {
          "name": "mode",
          "type": "bool"
        }
      ],
      "name": "setOperatingStatus",
      "outputs": [],
      "payable": false,
      "stateMutability": "nonpayable",
      "type": "function"
    },
    {
      "constant": false,
      "inputs": [
        {
          "name": "_airline",
          "type": "address"
        }
      ],
      "name": "registerAirline",
      "outputs": [],
      "payable": false,
      "stateMutability": "nonpayable",
      "type": "function"
    },
    {
      "constant": true,
      "inputs": [
        {
          "name": "_airline",
          "type": "address"
        }
      ],
      "name": "isAirline",
      "outputs": [
        {
          "name": "",
          "type": "bool"
        }
      ],
      "payable": false,
      "stateMutability": "view",
      "type": "function"
    },
    {
      "constant": true,
      "inputs": [],
      "name": "howManyRegisteredAirlines",
      "outputs": [
        {
          "name": "",
          "type": "uint256"
        }
      ],
      "payable": false,
      "stateMutability": "view",
      "type": "function"
    },
    {
      "constant": true,
      "inputs": [],
      "name": "whatAirlines",
      "outputs": [
        {
          "name": "",
          "type": "address[]"
        }
      ],
      "payable": false,
      "stateMutability": "view",
      "type": "function"
    },
    {
      "constant": false,
      "inputs": [
        {
          "name": "_airline",
          "type": "address"
        },
        {
          "name": "_amount",
          "type": "uint256"
        }
      ],
      "name": "submitFundsAirline",
      "outputs": [],
      "payable": true,
      "stateMutability": "payable",
      "type": "function"
    },
    {
      "constant": true,
      "inputs": [
        {
          "name": "_airline",
          "type": "address"
        }
      ],
      "name": "isFundedAirline",
      "outputs": [
        {
          "name": "",
          "type": "bool"
        }
      ],
      "payable": false,
      "stateMutability": "view",
      "type": "function"
    },
    {
      "constant": false,
      "inputs": [
        {
          "name": "_flightName",
          "type": "bytes32"
        },
        {
          "name": "_timeStamp",
          "type": "uint256"
        },
        {
          "name": "_statusCode",
          "type": "uint8"
        },
        {
          "name": "_airline",
          "type": "address"
        }
      ],
      "name": "registerFlight",
      "outputs": [],
      "payable": false,
      "stateMutability": "nonpayable",
      "type": "function"
    },
    {
      "constant": true,
      "inputs": [
        {
          "name": "_airline",
          "type": "address"
        }
      ],
      "name": "whatFlight",
      "outputs": [
        {
          "name": "",
          "type": "bytes32[]"
        }
      ],
      "payable": false,
      "stateMutability": "view",
      "type": "function"
    },
    {
      "constant": true,
      "inputs": [
        {
          "name": "_flightID",
          "type": "bytes32"
        }
      ],
      "name": "whatFlightName",
      "outputs": [
        {
          "name": "",
          "type": "bytes32"
        }
      ],
      "payable": false,
      "stateMutability": "view",
      "type": "function"
    },
    {
      "constant": true,
      "inputs": [
        {
          "name": "_flightID",
          "type": "bytes32"
        }
      ],
      "name": "whatFlightTimestamp",
      "outputs": [
        {
          "name": "",
          "type": "uint256"
        }
      ],
      "payable": false,
      "stateMutability": "view",
      "type": "function"
    },
    {
      "constant": true,
      "inputs": [
        {
          "name": "_flightName",
          "type": "bytes32"
        },
        {
          "name": "_timeStamp",
          "type": "uint256"
        },
        {
          "name": "_airline",
          "type": "address"
        }
      ],
      "name": "isFlight",
      "outputs": [
        {
          "name": "",
          "type": "bool"
        }
      ],
      "payable": false,
      "stateMutability": "view",
      "type": "function"
    },
    {
      "constant": true,
      "inputs": [
        {
          "name": "_flightID",
          "type": "bytes32"
        }
      ],
      "name": "viewFlightSatus",
      "outputs": [
        {
          "name": "",
          "type": "uint256"
        }
      ],
      "payable": false,
      "stateMutability": "view",
      "type": "function"
    },
    {
      "constant": true,
      "inputs": [
        {
          "name": "_flightName",
          "type": "bytes32"
        },
        {
          "name": "_timeStamp",
          "type": "uint256"
        },
        {
          "name": "_airline",
          "type": "address"
        }
      ],
      "name": "viewFlightSatusTest",
      "outputs": [
        {
          "name": "",
          "type": "uint256"
        }
      ],
      "payable": false,
      "stateMutability": "view",
      "type": "function"
    },
    {
      "constant": false,
      "inputs": [
        {
          "name": "_flightName",
          "type": "bytes32"
        },
        {
          "name": "_timeStamp",
          "type": "uint256"
        },
        {
          "name": "_airline",
          "type": "address"
        },
        {
          "name": "_passenger",
          "type": "address"
        },
        {
          "name": "_value",
          "type": "uint256"
        }
      ],
      "name": "buyInsurance",
      "outputs": [],
      "payable": true,
      "stateMutability": "payable",
      "type": "function"
    },
    {
      "constant": true,
      "inputs": [
        {
          "name": "_flightName",
          "type": "bytes32"
        },
        {
          "name": "_timeStamp",
          "type": "uint256"
        },
        {
          "name": "_airline",
          "type": "address"
        },
        {
          "name": "_passenger",
          "type": "address"
        },
        {
          "name": "_value",
          "type": "uint256"
        }
      ],
      "name": "isInsured",
      "outputs": [
        {
          "name": "",
          "type": "bool"
        }
      ],
      "payable": false,
      "stateMutability": "view",
      "type": "function"
    },
    {
      "constant": false,
      "inputs": [
        {
          "name": "_airline",
          "type": "address"
        },
        {
          "name": "_flightName",
          "type": "bytes32"
        },
        {
          "name": "_timestamp",
          "type": "uint256"
        },
        {
          "name": "_statusCode",
          "type": "uint8"
        }
      ],
      "name": "creditInsurees",
      "outputs": [],
      "payable": false,
      "stateMutability": "nonpayable",
      "type": "function"
    },
    {
      "constant": true,
      "inputs": [],
      "name": "buy",
      "outputs": [],
      "payable": false,
      "stateMutability": "pure",
      "type": "function"
    },
    {
      "constant": false,
      "inputs": [
        {
          "name": "caller",
          "type": "address"
        },
        {
          "name": "_amount",
          "type": "uint256"
        }
      ],
      "name": "withdraw",
      "outputs": [],
      "payable": true,
      "stateMutability": "payable",
      "type": "function"
    },
    {
      "constant": false,
      "inputs": [
        {
          "name": "_account",
          "type": "address"
        },
        {
          "name": "_value",
          "type": "uint256"
        }
      ],
      "name": "fund",
      "outputs": [],
      "payable": true,
      "stateMutability": "payable",
      "type": "function"
    },
    {
      "constant": true,
      "inputs": [
        {
          "name": "_account",
          "type": "address"
        }
      ],
      "name": "getBalance",
      "outputs": [
        {
          "name": "",
          "type": "uint256"
        }
      ],
      "payable": false,
      "stateMutability": "view",
      "type": "function"
    },
    {
      "constant": true,
      "inputs": [],
      "name": "getContractBalance",
      "outputs": [
        {
          "name": "",
          "type": "uint256"
        }
      ],
      "payable": false,
      "stateMutability": "view",
      "type": "function"
    }
  ],
  "bytecode": "0x60806040526001600260146101000a81548160ff0219169083151502179055506000600355600060045534801561003557600080fd5b5033600160006101000a81548173ffffffffffffffffffffffffffffffffffffffff021916908373ffffffffffffffffffffffffffffffffffffffff16021790555030600260006101000a81548173ffffffffffffffffffffffffffffffffffffffff021916908373ffffffffffffffffffffffffffffffffffffffff1602179055506000600481905550613256806100cf6000396000f300608060405260043610610133576000357c0100000000000000000000000000000000000000000000000000000000900463ffffffff16806306fc94251461013f5780630c5be08a146101845780630e248a11146101f3578063110466ed1461024e5780631a0dc65d1461027d5780632190558c1461031a5780633ad9796a1461035f5780633de76157146103ac578063485ace87146104145780634c11b93c1461043f5780636f9fb98a146104ab5780637b1837de146104d65780638a90651614610516578063a6f2ae3a1461058e578063b0f54d8c146105a5578063bdfd98771461063d578063c456ded014610680578063cd905dff146106c0578063d34de9d8146106ef578063f22de96214610757578063f3ba4e1b146107ca578063f3fef3a314610825578063f8b2cb4f14610865575b61013d33346108bc565b005b34801561014b57600080fd5b5061016e60048036038101908080356000191690602001909291905050506109f4565b6040518082815260200191505060405180910390f35b34801561019057600080fd5b506101dd600480360381019080803560001916906020019092919080359060200190929190803573ffffffffffffffffffffffffffffffffffffffff169060200190929190505050610ac6565b6040518082815260200191505060405180910390f35b3480156101ff57600080fd5b50610234600480360381019080803573ffffffffffffffffffffffffffffffffffffffff169060200190929190505050610bdc565b604051808215151515815260200191505060405180910390f35b34801561025a57600080fd5b5061027b600480360381019080803515159060200190929190505050610cdf565b005b34801561028957600080fd5b50610300600480360381019080803560001916906020019092919080359060200190929190803573ffffffffffffffffffffffffffffffffffffffff169060200190929190803573ffffffffffffffffffffffffffffffffffffffff16906020019092919080359060200190929190505050610dc1565b604051808215151515815260200191505060405180910390f35b34801561032657600080fd5b506103496004803603810190808035600019169060200190929190505050610f12565b6040518082815260200191505060405180910390f35b34801561036b57600080fd5b5061038e6004803603810190808035600019169060200190929190505050611017565b60405180826000191660001916815260200191505060405180910390f35b3480156103b857600080fd5b50610412600480360381019080803560001916906020019092919080359060200190929190803560ff169060200190929190803573ffffffffffffffffffffffffffffffffffffffff1690602001909291905050506110e9565b005b34801561042057600080fd5b50610429611509565b6040518082815260200191505060405180910390f35b34801561044b57600080fd5b506104546115bd565b6040518080602001828103825283818151815260200191508051906020019060200280838360005b8381101561049757808201518184015260208101905061047c565b505050509050019250505060405180910390f35b3480156104b757600080fd5b506104c06116f5565b6040518082815260200191505060405180910390f35b610514600480360381019080803573ffffffffffffffffffffffffffffffffffffffff169060200190929190803590602001909291905050506108bc565b005b61058c600480360381019080803560001916906020019092919080359060200190929190803573ffffffffffffffffffffffffffffffffffffffff169060200190929190803573ffffffffffffffffffffffffffffffffffffffff1690602001909291908035906020019092919050505061173c565b005b34801561059a57600080fd5b506105a3611b85565b005b3480156105b157600080fd5b506105e6600480360381019080803573ffffffffffffffffffffffffffffffffffffffff169060200190929190505050611b87565b6040518080602001828103825283818151815260200191508051906020019060200280838360005b8381101561062957808201518184015260208101905061060e565b505050509050019250505060405180910390f35b34801561064957600080fd5b5061067e600480360381019080803573ffffffffffffffffffffffffffffffffffffffff169060200190929190505050611ccf565b005b6106be600480360381019080803573ffffffffffffffffffffffffffffffffffffffff1690602001909291908035906020019092919050505061205a565b005b3480156106cc57600080fd5b506106d5612540565b604051808215151515815260200191505060405180910390f35b3480156106fb57600080fd5b50610755600480360381019080803573ffffffffffffffffffffffffffffffffffffffff169060200190929190803560001916906020019092919080359060200190929190803560ff169060200190929190505050612557565b005b34801561076357600080fd5b506107b0600480360381019080803560001916906020019092919080359060200190929190803573ffffffffffffffffffffffffffffffffffffffff169060200190929190505050612b5c565b604051808215151515815260200191505060405180910390f35b3480156107d657600080fd5b5061080b600480360381019080803573ffffffffffffffffffffffffffffffffffffffff169060200190929190505050612c4c565b604051808215151515815260200191505060405180910390f35b610863600480360381019080803573ffffffffffffffffffffffffffffffffffffffff16906020019092919080359060200190929190505050612d4f565b005b34801561087157600080fd5b506108a6600480360381019080803573ffffffffffffffffffffffffffffffffffffffff169060200190929190505050612f77565b6040518082815260200191505060405180910390f35b61090e81600960003073ffffffffffffffffffffffffffffffffffffffff1673ffffffffffffffffffffffffffffffffffffffff16815260200190815260200160002054612fc090919063ffffffff16565b600960003073ffffffffffffffffffffffffffffffffffffffff1673ffffffffffffffffffffffffffffffffffffffff168152602001908152602001600020819055507f23ff421585b6cf919e066417845e1789ae18f805b862bd043f536d59c8741557823083604051808473ffffffffffffffffffffffffffffffffffffffff1673ffffffffffffffffffffffffffffffffffffffff1681526020018373ffffffffffffffffffffffffffffffffffffffff1673ffffffffffffffffffffffffffffffffffffffff168152602001828152602001935050505060405180910390a15050565b6000600260149054906101000a900460ff161515610aa0576040517f08c379a00000000000000000000000000000000000000000000000000000000081526004018080602001828103825260258152602001807f436f6e74726163742069732063757272656e746c79206e6f74206f706572617481526020017f696f6e616c00000000000000000000000000000000000000000000000000000081525060400191505060405180910390fd5b600760008360001916600019168152602001908152602001600020600301549050919050565b600080610ad4838686612fe1565b90506001151560076000836000191660001916815260200190815260200160002060020160009054906101000a900460ff161515141515610ba3576040517f08c379a00000000000000000000000000000000000000000000000000000000081526004018080602001828103825260348152602001807f466c69676874206d75737420666972737420626520726567697374657265642081526020017f6265666f726520746f206765742073746174757300000000000000000000000081525060400191505060405180910390fd5b60076000826000191660001916815260200190815260200160002060020160019054906101000a900460ff1660ff169150509392505050565b6000600260149054906101000a900460ff161515610c88576040517f08c379a00000000000000000000000000000000000000000000000000000000081526004018080602001828103825260258152602001807f436f6e74726163742069732063757272656e746c79206e6f74206f706572617481526020017f696f6e616c00000000000000000000000000000000000000000000000000000081525060400191505060405180910390fd5b600660008373ffffffffffffffffffffffffffffffffffffffff1673ffffffffffffffffffffffffffffffffffffffff16815260200190815260200160002060000160149054906101000a900460ff169050919050565b600160009054906101000a900473ffffffffffffffffffffffffffffffffffffffff1673ffffffffffffffffffffffffffffffffffffffff163373ffffffffffffffffffffffffffffffffffffffff16141515610da4576040517f08c379a000000000000000000000000000000000000000000000000000000000815260040180806020018281038252601c8152602001807f43616c6c6572206973206e6f7420636f6e7472616374206f776e65720000000081525060200191505060405180910390fd5b80600260146101000a81548160ff02191690831515021790555050565b6000806000610dd1868989612fe1565b91506001151560076000846000191660001916815260200190815260200160002060020160009054906101000a900460ff161515141515610e7a576040517f08c379a00000000000000000000000000000000000000000000000000000000081526004018080602001828103825260188152602001807f466c69676874206973206e6f742072656769737465726564000000000000000081525060200191505060405180910390fd5b610e858286866130c1565b90508473ffffffffffffffffffffffffffffffffffffffff1660086000836000191660001916815260200190815260200160002060020160009054906101000a900473ffffffffffffffffffffffffffffffffffffffff1673ffffffffffffffffffffffffffffffffffffffff161415610f025760019250610f07565b600092505b505095945050505050565b60006001151560076000846000191660001916815260200190815260200160002060020160009054906101000a900460ff161515141515610fe1576040517f08c379a00000000000000000000000000000000000000000000000000000000081526004018080602001828103825260348152602001807f466c69676874206d75737420666972737420626520726567697374657265642081526020017f6265666f726520746f206765742073746174757300000000000000000000000081525060400191505060405180910390fd5b60076000836000191660001916815260200190815260200160002060020160019054906101000a900460ff1660ff169050919050565b6000600260149054906101000a900460ff1615156110c3576040517f08c379a00000000000000000000000000000000000000000000000000000000081526004018080602001828103825260258152602001807f436f6e74726163742069732063757272656e746c79206e6f74206f706572617481526020017f696f6e616c00000000000000000000000000000000000000000000000000000081525060400191505060405180910390fd5b600760008360001916600019168152602001908152602001600020600101549050919050565b6000600260149054906101000a900460ff161515611195576040517f08c379a00000000000000000000000000000000000000000000000000000000081526004018080602001828103825260258152602001807f436f6e74726163742069732063757272656e746c79206e6f74206f706572617481526020017f696f6e616c00000000000000000000000000000000000000000000000000000081525060400191505060405180910390fd5b6111a0828686612fe1565b90506000151560076000836000191660001916815260200190815260200160002060020160009054906101000a900460ff161515141515611249576040517f08c379a000000000000000000000000000000000000000000000000000000000815260040180806020018281038252601c8152602001807f466c6967687420697320616c726561647920726567697374657265640000000081525060200191505060405180910390fd5b806007600083600019166000191681526020019081526020016000206000018160001916905550846007600083600019166000191681526020019081526020016000206001018160001916905550600160076000836000191660001916815260200190815260200160002060020160006101000a81548160ff0219169083151502179055508260076000836000191660001916815260200190815260200160002060020160016101000a81548160ff021916908360ff16021790555083600760008360001916600019168152602001908152602001600020600301819055508160076000836000191660001916815260200190815260200160002060040160006101000a81548173ffffffffffffffffffffffffffffffffffffffff021916908373ffffffffffffffffffffffffffffffffffffffff160217905550600660008373ffffffffffffffffffffffffffffffffffffffff1673ffffffffffffffffffffffffffffffffffffffff168152602001908152602001600020600101819080600181540180825580915050906001820390600052602060002001600090919290919091509060001916905550600660008373ffffffffffffffffffffffffffffffffffffffff1673ffffffffffffffffffffffffffffffffffffffff1681526020019081526020016000206002018590806001815401808255809150509060018203906000526020600020016000909192909190915090600019169055507f93d56f69024497ac75e24638d12fdaecbaf1228b04eb880edfb3b8327102e9b8818686868660405180866000191660001916815260200185600019166000191681526020018481526020018360ff1660ff1681526020018273ffffffffffffffffffffffffffffffffffffffff1673ffffffffffffffffffffffffffffffffffffffff1681526020019550505050505060405180910390a15050505050565b6000600260149054906101000a900460ff1615156115b5576040517f08c379a00000000000000000000000000000000000000000000000000000000081526004018080602001828103825260258152602001807f436f6e74726163742069732063757272656e746c79206e6f74206f706572617481526020017f696f6e616c00000000000000000000000000000000000000000000000000000081525060400191505060405180910390fd5b600454905090565b6060600260149054906101000a900460ff161515611669576040517f08c379a00000000000000000000000000000000000000000000000000000000081526004018080602001828103825260258152602001807f436f6e74726163742069732063757272656e746c79206e6f74206f706572617481526020017f696f6e616c00000000000000000000000000000000000000000000000000000081525060400191505060405180910390fd5b60058054806020026020016040519081016040528092919081815260200182805480156116eb57602002820191906000526020600020905b8160009054906101000a900473ffffffffffffffffffffffffffffffffffffffff1673ffffffffffffffffffffffffffffffffffffffff16815260200190600101908083116116a1575b5050505050905090565b6000600960003073ffffffffffffffffffffffffffffffffffffffff1673ffffffffffffffffffffffffffffffffffffffff16815260200190815260200160002054905090565b6000806000600960003073ffffffffffffffffffffffffffffffffffffffff1673ffffffffffffffffffffffffffffffffffffffff16815260200190815260200160002054925061178e868989612fe1565b91506001151560076000846000191660001916815260200190815260200160002060020160009054906101000a900460ff161515141515611837576040517f08c379a00000000000000000000000000000000000000000000000000000000081526004018080602001828103825260188152602001807f466c69676874206973206e6f742072656769737465726564000000000000000081525060200191505060405180910390fd5b6118428286866130c1565b905060006008600083600019166000191681526020019081526020016000206003015410151515611901576040517f08c379a000000000000000000000000000000000000000000000000000000000815260040180806020018281038252602b8152602001807f496e737572616e63652063616e206e6f742062652070757273756564206d6f7281526020017f65207468616e206f6e636500000000000000000000000000000000000000000081525060400191505060405180910390fd5b61190b85856108bc565b8361195e84600960003073ffffffffffffffffffffffffffffffffffffffff1673ffffffffffffffffffffffffffffffffffffffff168152602001908152602001600020546131a190919063ffffffff16565b1415156119d3576040517f08c379a000000000000000000000000000000000000000000000000000000000815260040180806020018281038252601c8152602001807f46756e64732068617665206e6f74206265656e2070726f76696465640000000081525060200191505060405180910390fd5b60806040519081016040528082600019168152602001836000191681526020018673ffffffffffffffffffffffffffffffffffffffff16815260200185815250600860008360001916600019168152602001908152602001600020600082015181600001906000191690556020820151816001019060001916905560408201518160020160006101000a81548173ffffffffffffffffffffffffffffffffffffffff021916908373ffffffffffffffffffffffffffffffffffffffff160217905550606082015181600301559050506007600083600019166000191681526020019081526020016000206005018190806001815401808255809150509060018203906000526020600020016000909192909190915090600019169055507f2030999776925c944a0cfc1d08debac0a6f111f28c477610ac24ba41acbf91398189878760405180856000191660001916815260200184600019166000191681526020018373ffffffffffffffffffffffffffffffffffffffff1673ffffffffffffffffffffffffffffffffffffffff16815260200182815260200194505050505060405180910390a15050505050505050565b565b6060600260149054906101000a900460ff161515611c33576040517f08c379a00000000000000000000000000000000000000000000000000000000081526004018080602001828103825260258152602001807f436f6e74726163742069732063757272656e746c79206e6f74206f706572617481526020017f696f6e616c00000000000000000000000000000000000000000000000000000081525060400191505060405180910390fd5b600660008373ffffffffffffffffffffffffffffffffffffffff1673ffffffffffffffffffffffffffffffffffffffff168152602001908152602001600020600101805480602002602001604051908101604052809291908181526020018280548015611cc357602002820191906000526020600020905b81546000191681526020019060010190808311611cab575b50505050509050919050565b600260149054906101000a900460ff161515611d79576040517f08c379a00000000000000000000000000000000000000000000000000000000081526004018080602001828103825260258152602001807f436f6e74726163742069732063757272656e746c79206e6f74206f706572617481526020017f696f6e616c00000000000000000000000000000000000000000000000000000081525060400191505060405180910390fd5b8060001515600660008373ffffffffffffffffffffffffffffffffffffffff1673ffffffffffffffffffffffffffffffffffffffff16815260200190815260200160002060000160149054906101000a900460ff161515141515611e45576040517f08c379a000000000000000000000000000000000000000000000000000000000815260040180806020018281038252601d8152602001807f4169726c696e6520697320616c7265616479207265676973746572656400000081525060200191505060405180910390fd5b81600660008473ffffffffffffffffffffffffffffffffffffffff1673ffffffffffffffffffffffffffffffffffffffff16815260200190815260200160002060000160006101000a81548173ffffffffffffffffffffffffffffffffffffffff021916908373ffffffffffffffffffffffffffffffffffffffff1602179055506001600660008473ffffffffffffffffffffffffffffffffffffffff1673ffffffffffffffffffffffffffffffffffffffff16815260200190815260200160002060000160146101000a81548160ff0219169083151502179055506000600660008473ffffffffffffffffffffffffffffffffffffffff1673ffffffffffffffffffffffffffffffffffffffff16815260200190815260200160002060000160156101000a81548160ff021916908315150217905550611f926001600454612fc090919063ffffffff16565b6004819055507f36fcb748976a1bdfee3316dde403a404da3fcf4fe959cc8ae3ae2f996ce9404882600660008573ffffffffffffffffffffffffffffffffffffffff1673ffffffffffffffffffffffffffffffffffffffff16815260200190815260200160002060000160149054906101000a900460ff16604051808373ffffffffffffffffffffffffffffffffffffffff1673ffffffffffffffffffffffffffffffffffffffff168152602001821515151581526020019250505060405180910390a15050565b6000600260149054906101000a900460ff161515612106576040517f08c379a00000000000000000000000000000000000000000000000000000000081526004018080602001828103825260258152602001807f436f6e74726163742069732063757272656e746c79206e6f74206f706572617481526020017f696f6e616c00000000000000000000000000000000000000000000000000000081525060400191505060405180910390fd5b8260011515600660008373ffffffffffffffffffffffffffffffffffffffff1673ffffffffffffffffffffffffffffffffffffffff16815260200190815260200160002060000160149054906101000a900460ff1615151415156121d2576040517f08c379a00000000000000000000000000000000000000000000000000000000081526004018080602001828103825260198152602001807f4169726c696e65206973206e6f7420726567697374657265640000000000000081525060200191505060405180910390fd5b8360001515600660008373ffffffffffffffffffffffffffffffffffffffff1673ffffffffffffffffffffffffffffffffffffffff16815260200190815260200160002060000160159054906101000a900460ff16151514151561229e576040517f08c379a00000000000000000000000000000000000000000000000000000000081526004018080602001828103825260198152602001807f4169726c696e6520697320616c72656164792066756e6465640000000000000081525060200191505060405180910390fd5b600960003073ffffffffffffffffffffffffffffffffffffffff1673ffffffffffffffffffffffffffffffffffffffff1681526020019081526020016000205492506122ea85856108bc565b8361233d84600960003073ffffffffffffffffffffffffffffffffffffffff1673ffffffffffffffffffffffffffffffffffffffff168152602001908152602001600020546131a190919063ffffffff16565b1415156123b2576040517f08c379a000000000000000000000000000000000000000000000000000000000815260040180806020018281038252601c8152602001807f46756e64732068617665206e6f74206265656e2070726f76696465640000000081525060200191505060405180910390fd5b6001600660008773ffffffffffffffffffffffffffffffffffffffff1673ffffffffffffffffffffffffffffffffffffffff16815260200190815260200160002060000160156101000a81548160ff02191690831515021790555060058590806001815401808255809150509060018203906000526020600020016000909192909190916101000a81548173ffffffffffffffffffffffffffffffffffffffff021916908373ffffffffffffffffffffffffffffffffffffffff160217905550507fba609ca2c265d60a151d4a5b601cfee0ff3d8af7924d2962ee4f7a81bc8ec0ad8585600660008973ffffffffffffffffffffffffffffffffffffffff1673ffffffffffffffffffffffffffffffffffffffff16815260200190815260200160002060000160159054906101000a900460ff16604051808473ffffffffffffffffffffffffffffffffffffffff1673ffffffffffffffffffffffffffffffffffffffff16815260200183815260200182151515158152602001935050505060405180910390a15050505050565b6000600260149054906101000a900460ff16905090565b600080600080600061256a898989612fe1565b94506001151560076000876000191660001916815260200190815260200160002060020160009054906101000a900460ff161515141515612613576040517f08c379a00000000000000000000000000000000000000000000000000000000081526004018080602001828103825260188152602001807f466c69676874206973206e6f742072656769737465726564000000000000000081525060200191505060405180910390fd5b600060076000876000191660001916815260200190815260200160002060020160019054906101000a900460ff1660ff161415156126df576040517f08c379a000000000000000000000000000000000000000000000000000000000815260040180806020018281038252602b8152602001807f537461747573206f66207468697320666c69676874206861766520616c72656181526020017f6479206265656e2073657400000000000000000000000000000000000000000081525060400191505060405180910390fd5b8560076000876000191660001916815260200190815260200160002060020160016101000a81548160ff021916908360ff1602179055507f0ef6cae79327376e202170773341f6363e886d6ba8765474c15f56a608e6d45c89898989604051808573ffffffffffffffffffffffffffffffffffffffff1673ffffffffffffffffffffffffffffffffffffffff16815260200184600019166000191681526020018381526020018260ff1660ff16815260200194505050505060405180910390a1600a8660ff161115612b515760006007600087600019166000191681526020019081526020016000206005018054905011151561286a576040517f08c379a00000000000000000000000000000000000000000000000000000000081526004018080602001828103825260248152602001807f5468657265206973206e6f20696e737572616e6365206f6e207468697320666c81526020017f696768740000000000000000000000000000000000000000000000000000000081525060400191505060405180910390fd5b5b60076000866000191660001916815260200190815260200160002060050180549050841015612b5057600760008660001916600019168152602001908152602001600020600501848154811015156128bf57fe5b9060005260206000200154925060086000846000191660001916815260200190815260200160002060020160009054906101000a900473ffffffffffffffffffffffffffffffffffffffff16915061295260026129446003600860008860001916600019168152602001908152602001600020600301546131c290919063ffffffff16565b61320090919063ffffffff16565b90506129a681600960008573ffffffffffffffffffffffffffffffffffffffff1673ffffffffffffffffffffffffffffffffffffffff16815260200190815260200160002054612fc090919063ffffffff16565b600960008473ffffffffffffffffffffffffffffffffffffffff1673ffffffffffffffffffffffffffffffffffffffff16815260200190815260200160002081905550612a3b81600960003073ffffffffffffffffffffffffffffffffffffffff1673ffffffffffffffffffffffffffffffffffffffff168152602001908152602001600020546131a190919063ffffffff16565b600960003073ffffffffffffffffffffffffffffffffffffffff1673ffffffffffffffffffffffffffffffffffffffff168152602001908152602001600020819055507f54a2365208b36763d979ab499a5cdd5f65f6ff4b26f5ebb89bd53bf1842aedb7898989898686604051808773ffffffffffffffffffffffffffffffffffffffff1673ffffffffffffffffffffffffffffffffffffffff16815260200186600019166000191681526020018581526020018460ff1660ff1681526020018373ffffffffffffffffffffffffffffffffffffffff1673ffffffffffffffffffffffffffffffffffffffff168152602001828152602001965050505050505060405180910390a1838060010194505061286b565b5b505050505050505050565b600080600260149054906101000a900460ff161515612c09576040517f08c379a00000000000000000000000000000000000000000000000000000000081526004018080602001828103825260258152602001807f436f6e74726163742069732063757272656e746c79206e6f74206f706572617481526020017f696f6e616c00000000000000000000000000000000000000000000000000000081525060400191505060405180910390fd5b612c14838686612fe1565b905060076000826000191660001916815260200190815260200160002060020160009054906101000a900460ff169150509392505050565b6000600260149054906101000a900460ff161515612cf8576040517f08c379a00000000000000000000000000000000000000000000000000000000081526004018080602001828103825260258152602001807f436f6e74726163742069732063757272656e746c79206e6f74206f706572617481526020017f696f6e616c00000000000000000000000000000000000000000000000000000081525060400191505060405180910390fd5b600660008373ffffffffffffffffffffffffffffffffffffffff1673ffffffffffffffffffffffffffffffffffffffff16815260200190815260200160002060000160159054906101000a900460ff169050919050565b80600960008473ffffffffffffffffffffffffffffffffffffffff1673ffffffffffffffffffffffffffffffffffffffff1681526020019081526020016000205410151515612e2c576040517f08c379a00000000000000000000000000000000000000000000000000000000081526004018080602001828103825260378152602001807f596f7520646f6e277420686176652073756666696369656e742066756e64732081526020017f746f207769746864726177207468697320616d6f756e7400000000000000000081525060400191505060405180910390fd5b612e7e81600960008573ffffffffffffffffffffffffffffffffffffffff1673ffffffffffffffffffffffffffffffffffffffff168152602001908152602001600020546131a190919063ffffffff16565b600960008473ffffffffffffffffffffffffffffffffffffffff1673ffffffffffffffffffffffffffffffffffffffff168152602001908152602001600020819055507ffb17ed526eee6cafc3954122c5fac5f166dac1d9660f051e9eed482dc186e7858282600960008673ffffffffffffffffffffffffffffffffffffffff1673ffffffffffffffffffffffffffffffffffffffff16815260200190815260200160002054604051808473ffffffffffffffffffffffffffffffffffffffff1673ffffffffffffffffffffffffffffffffffffffff168152602001838152602001828152602001935050505060405180910390a15050565b6000600960008373ffffffffffffffffffffffffffffffffffffffff1673ffffffffffffffffffffffffffffffffffffffff168152602001908152602001600020549050919050565b6000808284019050838110151515612fd757600080fd5b8091505092915050565b6000838383604051602001808473ffffffffffffffffffffffffffffffffffffffff1673ffffffffffffffffffffffffffffffffffffffff166c01000000000000000000000000028152601401836000191660001916815260200182815260200193505050506040516020818303038152906040526040518082805190602001908083835b60208310151561308b5780518252602082019150602081019050602083039250613066565b6001836020036101000a038019825116818451168082178552505050505050905001915050604051809103902090509392505050565b60008383836040516020018084600019166000191681526020018373ffffffffffffffffffffffffffffffffffffffff1673ffffffffffffffffffffffffffffffffffffffff166c0100000000000000000000000002815260140182815260200193505050506040516020818303038152906040526040518082805190602001908083835b60208310151561316b5780518252602082019150602081019050602083039250613146565b6001836020036101000a038019825116818451168082178552505050505050905001915050604051809103902090509392505050565b6000808383111515156131b357600080fd5b82840390508091505092915050565b60008060008414156131d757600091506131f9565b82840290508284828115156131e857fe5b041415156131f557600080fd5b8091505b5092915050565b60008060008311151561321257600080fd5b828481151561321d57fe5b04905080915050929150505600a165627a7a72305820f85139bcd31b0fc2825c6938339598ca07d6a9b52c43caec3446fb42bebac6270029",
  "source": "pragma solidity ^0.4.25;\r\n\r\nimport \"../../node_modules/openzeppelin-solidity/contracts/math/SafeMath.sol\";\r\nimport \"../../node_modules/openzeppelin-solidity/contracts/token/ERC20/ERC20.sol\";\r\n\r\ncontract FlightSuretyData {\r\n    using SafeMath for uint256;\r\n    ERC20 erc20;\r\n\r\n    /********************************************************************************************/\r\n    /*                                       DATA VARIABLES                                     */\r\n    /********************************************************************************************/\r\n\r\n    address private contractOwner;          // Account used to deploy contract\r\n    address private contractAddress;\r\n    bool private operational = true;        // Blocks all state changes throughout the contract if false\r\n\r\n    uint256 private totalBalance = 0;       // total of funds raised by companies\r\n    uint256 private totalAirlines = 0;      // totalt number of registered airlines\r\n\r\n    // Array to keep trace of registered and funded airlines\r\n    address[] activeAirlines;\r\n\r\n    struct Airline {\r\n        address airline;\r\n        bool registered;\r\n        bool funded;\r\n        bytes32[] flightID;\r\n        bytes32[] flightName;\r\n    }\r\n\r\n    mapping (address => Airline) Airlines;\r\n\r\n    // flight structure\r\n    struct Flight {\r\n        bytes32 flightsID;\r\n        bytes32 flightName;\r\n        bool isRegistered;\r\n        uint8 statusCode;\r\n        uint256 updatedTimestamp;   \r\n        address airline;     \r\n        bytes32[] insuranceID;\r\n    }\r\n\r\n    mapping (bytes32 => Flight) Flights;\r\n\r\n    // Insurance structure\r\n    struct Insurance {\r\n        bytes32 insuranceID;\r\n        bytes32 flightID;\r\n        address passenger;\r\n        uint256 value;\r\n    }\r\n\r\n    mapping (bytes32 => Insurance) Insurances;\r\n\r\n    // list of all client's accounts\r\n    mapping (address => uint256) Accounts;\r\n\r\n/********************************************************************************************/\r\n    /*                                       FUNCTION MODIFIERS                                 */\r\n    /********************************************************************************************/\r\n\r\n    // Modifiers help avoid duplication of code. They are typically used to validate something\r\n    // before a function is allowed to be executed.\r\n\r\n    /**\r\n    * @dev Modifier that requires the \"operational\" boolean variable to be \"true\"\r\n    *      This is used on all state changing functions to pause the contract in \r\n    *      the event there is an issue that needs to be fixed\r\n    */\r\n    modifier requireIsOperational() \r\n    {\r\n        require(operational, \"Contract is currently not operational\");\r\n        _;  // All modifiers require an \"_\" which indicates where the function body will be added\r\n    }\r\n\r\n    /**\r\n    * @dev Modifier that requires the \"ContractOwner\" account to be the function caller\r\n    */\r\n    modifier requireContractOwner()\r\n    {\r\n        require(msg.sender == contractOwner, \"Caller is not contract owner\");\r\n        _;\r\n    }\r\n\r\n    /**\r\n    * @dev Modifier that requires the airline to be registered\r\n    */\r\n    modifier requireIsRegistered(address _airline)\r\n    {\r\n        require(Airlines[_airline].registered == true, \"Airline is not registered\");\r\n        _;\r\n    }\r\n\r\n    /**\r\n    * @dev Modifier that requires the airline not to be registered\r\n    */\r\n    modifier requireIsNotRegistered(address _airline)\r\n    {\r\n        require(Airlines[_airline].registered == false, \"Airline is already registered\");\r\n        _;\r\n    }\r\n\r\n    /**\r\n    * @dev Modifier that requires the airline not to be funded\r\n    */\r\n    modifier requireIsNotFunded(address _airline)\r\n    {\r\n        require(Airlines[_airline].funded == false, \"Airline is already funded\");\r\n        _;\r\n    }\r\n\r\n    /**\r\n    * @dev Modifier that requires the flight to be registered\r\n    */\r\n    modifier requireIsFlightRegistered(address _airline)\r\n    {\r\n        require(Airlines[_airline].registered == true, \"Airline is not registered\");\r\n        _;\r\n    }\r\n\r\n\r\n    /********************************************************************************************/\r\n    /*                                       EVENT DECLARATION                                */\r\n    /********************************************************************************************/\r\n\r\n    event AirlineWasRegistered(address airline, bool registered);\r\n    event AirlineWasFunded(address airline, uint256 amount, bool funded);\r\n    event funded(address airline, address contractAddress, uint256 amount);\r\n    event FlightWasRegistered(bytes32 _flightID, bytes32 _flightName, uint256 _timeStamp, uint8 _statusCode, address _airline);\r\n    event newInsurance(bytes32 insuranceID, bytes32 flightName, address passenger, uint256 value);\r\n    event statusCodeUpddated(address _airline, bytes32 _flightName, uint256 _timestamp, uint8 _statusCode);\r\n    event passengerCredited(address _airline, bytes32 _flightName, uint256 _timeStamp, uint8 _statusCode, address _passenger, uint256 _value);\r\n    event accountTransfer(address _passenger, uint256 _amount, uint256 remainingSolde);\r\n\r\n    /********************************************************************************************/\r\n    /*                                         CONSTRUCTOR                                      */\r\n    /********************************************************************************************/\r\n\r\n    /**\r\n    * @dev Constructor\r\n    *      The deploying account becomes contractOwner\r\n    */\r\n    constructor\r\n                                (\r\n                                ) \r\n                                public \r\n    {\r\n        contractOwner = msg.sender;\r\n        contractAddress = address(this);\r\n        totalAirlines = 0;\r\n    }\r\n\r\n\r\n    /********************************************************************************************/\r\n    /*                                       UTILITY FUNCTIONS                                  */\r\n    /********************************************************************************************/\r\n\r\n    /**\r\n    * @dev Get operating status of contract\r\n    *\r\n    * @return A bool that is the current operating status\r\n    */      \r\n    function isOperational() \r\n                            external \r\n                            view\r\n                            returns(bool) \r\n    {\r\n        return operational;\r\n    }\r\n\r\n\r\n    /**\r\n    * @dev Sets contract operations on/off\r\n    *\r\n    * When operational mode is disabled, all write transactions except for this one will fail\r\n    */    \r\n    function setOperatingStatus\r\n                            (\r\n                                bool mode\r\n                            ) \r\n                            external\r\n\r\n                            requireContractOwner \r\n    {\r\n        operational = mode;\r\n    }\r\n\r\n    /********************************************************************************************/\r\n    /*                                     SMART CONTRACT FUNCTIONS                             */\r\n    /********************************************************************************************/\r\n\r\n   /**\r\n    * @dev Add an airline to the registration queue\r\n    *      Can only be called from FlightSuretyApp contract\r\n    *\r\n    */   \r\n    function registerAirline\r\n                            (   \r\n                                address _airline\r\n                            )\r\n                            external\r\n                            requireIsOperational\r\n                            requireIsNotRegistered(_airline)\r\n    {\r\n        // Initiate airline into Airlines mapping\r\n        Airlines[_airline].airline = _airline;\r\n        Airlines[_airline].registered = true;\r\n        Airlines[_airline].funded = false;\r\n        // Add 1 to the airline's count\r\n        totalAirlines = totalAirlines.add(1);\r\n        // emit event\r\n        emit AirlineWasRegistered(_airline, Airlines[_airline].registered);\r\n    }\r\n\r\n    // Return true if an airline is registered\r\n    function isAirline \r\n                        (\r\n                            address _airline \r\n                        )\r\n                        external \r\n                        view \r\n                        requireIsOperational\r\n                        returns(bool)\r\n    {\r\n        return Airlines[_airline].registered;\r\n    }\r\n\r\n    // Return the number of registered airlines\r\n    function howManyRegisteredAirlines \r\n                        ()\r\n                        external\r\n                        view\r\n                        requireIsOperational \r\n                        returns(uint256)\r\n    {\r\n        return totalAirlines;\r\n    }\r\n\r\n    // Return the list of registered airlines\r\n    function whatAirlines \r\n                        ()\r\n                        external\r\n                        view\r\n                        requireIsOperational \r\n                        returns(address[])\r\n    {\r\n        return activeAirlines;\r\n    }\r\n\r\n   /**\r\n    * @dev Fund an airline\r\n    *\r\n    */   \r\n    function submitFundsAirline\r\n                            (   \r\n                                address _airline,\r\n                                uint256 _amount\r\n                            )\r\n                            external\r\n                            payable\r\n                            requireIsOperational\r\n                            requireIsRegistered(_airline)\r\n                            requireIsNotFunded(_airline)\r\n\r\n    {\r\n        // Store the actual balance of the contract\r\n        uint256 beforeBalance = Accounts[address(this)];\r\n        // Send the amount to the fund function\r\n        // to transfer the amount to the contract address\r\n        // and add the amount to the contract balance\r\n        fund(_airline, _amount);\r\n        // Check if the balance has been increased\r\n        require(Accounts[address(this)].sub(beforeBalance) == _amount, \"Funds have not been provided\");\r\n        // Mark the airline as \"funded\"\r\n        \r\n        // Airlines[_airline] = Airline({airline: _airline, registered: true, funded: true, flight: });\r\n        Airlines[_airline].funded = true;\r\n        activeAirlines.push(_airline);\r\n        emit AirlineWasFunded(_airline, _amount, Airlines[_airline].funded);\r\n    }\r\n\r\n    // Return true if an airline is funded\r\n    function isFundedAirline \r\n                        (\r\n                            address _airline \r\n                        )\r\n                        external\r\n                        view \r\n                        requireIsOperational\r\n                        returns(bool)\r\n    {\r\n        return Airlines[_airline].funded;\r\n    }\r\n\r\n   /**\r\n    * @dev Add a flight \r\n    *      Can only be called from FlightSuretyApp contract\r\n    *\r\n    */ \r\n\r\n    function registerFlight\r\n                            (   \r\n                                bytes32 _flightName,\r\n                                uint256 _timeStamp,\r\n                                uint8 _statusCode,\r\n                                address _airline\r\n                            )\r\n                            external\r\n                            requireIsOperational\r\n    {\r\n        // Get a unique 32 bytes ID to the flight given airline, flight name and timestamp\r\n        bytes32 _flightID = getFlightKey(_airline, _flightName, _timeStamp);\r\n        // Check if the flight has not been registered yet\r\n        require(Flights[_flightID].isRegistered == false, \"Flight is already registered\");\r\n        // Initiate flight into flight's mapping\r\n        Flights[_flightID].flightsID = _flightID;\r\n        Flights[_flightID].flightName = _flightName;\r\n        Flights[_flightID].isRegistered = true;\r\n        Flights[_flightID].statusCode = _statusCode;\r\n        Flights[_flightID].updatedTimestamp = _timeStamp;\r\n        Flights[_flightID].airline = _airline;\r\n        // Add flight ID to Airline in airlines mapping\r\n        Airlines[_airline].flightID.push(_flightID);\r\n        Airlines[_airline].flightName.push(bytes32(_flightName));\r\n        // Emit event\r\n        emit FlightWasRegistered(_flightID, _flightName, _timeStamp, _statusCode, _airline);\r\n    }\r\n\r\n    // Return the list of registered flight by airlines\r\n    function whatFlight\r\n                        (\r\n                            address _airline\r\n                        )\r\n                        external\r\n                        view\r\n                        requireIsOperational \r\n                        returns(bytes32[])\r\n    {\r\n        return Airlines[_airline].flightID;\r\n    }\r\n\r\n    // Return the list of flight's name\r\n    function whatFlightName\r\n                        (\r\n                            bytes32 _flightID\r\n                        )\r\n                        external\r\n                        view\r\n                        requireIsOperational \r\n                        returns(bytes32)\r\n    {\r\n        return Flights[_flightID].flightName;\r\n    }\r\n\r\n    // Return the list of flight's name\r\n    function whatFlightTimestamp\r\n                        (\r\n                            bytes32 _flightID\r\n                        )\r\n                        external\r\n                        view\r\n                        requireIsOperational \r\n                        returns(uint256)\r\n    {\r\n        return Flights[_flightID].updatedTimestamp;\r\n    }\r\n\r\n    // Return true if a flight is registered\r\n    function isFlight \r\n                        (\r\n                            bytes32 _flightName,\r\n                            uint256 _timeStamp,\r\n                            address _airline\r\n                        )\r\n                        external\r\n                        view \r\n                        requireIsOperational\r\n                        returns(bool)\r\n    {\r\n        bytes32 _flightID = getFlightKey(_airline, _flightName, _timeStamp);\r\n        return Flights[_flightID].isRegistered;\r\n    }\r\n\r\n    // Return status code of a flight\r\n    function viewFlightSatus \r\n                            (\r\n                            bytes32 _flightID                           \r\n                            )\r\n                            external\r\n                            view\r\n                            returns(uint256)\r\n    {\r\n        // Check if flight is registered\r\n        require(Flights[_flightID].isRegistered == true, \"Flight must first be registered before to get status\");\r\n        return Flights[_flightID].statusCode;  \r\n    }\r\n\r\n    // Return status code of a flight Test function\r\n    function viewFlightSatusTest \r\n                            (\r\n                            bytes32 _flightName,\r\n                            uint256 _timeStamp,\r\n                            address _airline                          \r\n                            )\r\n                            external\r\n                            view\r\n                            returns(uint256)\r\n    {\r\n        // Check if flight is registered\r\n        bytes32 _flightID = getFlightKey(_airline, _flightName, _timeStamp);\r\n        require(Flights[_flightID].isRegistered == true, \"Flight must first be registered before to get status\");\r\n        return Flights[_flightID].statusCode;  \r\n    }\r\n\r\n   /**\r\n    * @dev Buy insurance for a flight\r\n    *\r\n    */   \r\n    function buyInsurance\r\n                            (   \r\n                                    bytes32 _flightName,\r\n                                    uint256 _timeStamp,\r\n                                    address _airline,\r\n                                    address _passenger,\r\n                                    uint256 _value                       \r\n                            )\r\n                            external\r\n                            payable\r\n    {\r\n        // Record account balance before it changes\r\n        uint256 beforeBalance = Accounts[address(this)];\r\n        // Get a unique 32 bytes ID to flight given airline, flight name and timestamp\r\n        bytes32 _flightID = getFlightKey(_airline, _flightName, _timeStamp); \r\n        // Check if flight is registered\r\n        require(Flights[_flightID].isRegistered == true, \"Flight is not registered\");\r\n        // Get a unique 32 bytes ID to insurance given flight id, passenger address and amount given.\r\n        bytes32 _insuranceID = getInsuranceKey(_flightID, _passenger, _value); \r\n        require(Insurances[_insuranceID].value >= 0, \"Insurance can not be pursued more than once\");\r\n        // Fund contract with insurance\r\n        fund(_passenger, _value);\r\n        // Check if the balance has been increased\r\n        require(Accounts[address(this)].sub(beforeBalance) == _value, \"Funds have not been provided\");\r\n        // Initiate insurance in insurance mapping\r\n        Insurances[_insuranceID] = Insurance({insuranceID: _insuranceID, flightID: _flightID, passenger: _passenger, value: _value});\r\n        // Add insurance ID to flight in flights mapping\r\n        Flights[_flightID].insuranceID.push(_insuranceID);\r\n        // Emit event\r\n        emit newInsurance(_insuranceID, _flightName, _passenger, _value);\r\n    }\r\n\r\n    // return true if the passenger is insured for a flight\r\n    function isInsured\r\n                        (\r\n                            bytes32 _flightName,\r\n                            uint256 _timeStamp,\r\n                            address _airline,\r\n                            address _passenger,\r\n                            uint256 _value\r\n                        )\r\n                        external\r\n                        view\r\n                        returns(bool)\r\n    {\r\n        // Get a unique 32 bytes ID to the flight given airline, flight name and timestamp\r\n        bytes32 _flightID = getFlightKey(_airline, _flightName, _timeStamp); \r\n        // Check if the flight is registered\r\n        require(Flights[_flightID].isRegistered == true, \"Flight is not registered\");\r\n        // Get a unique 32 bytes ID to the insurance given flight id, passenger address and amount given.\r\n        bytes32 _insuranceID = getInsuranceKey(_flightID, _passenger, _value);\r\n        // check if insurance has been initiate\r\n        if(Insurances[_insuranceID].passenger == _passenger) return true;   \r\n        return false;\r\n    }\r\n\r\n    /**\r\n     *  @dev Credits payouts to insurees\r\n    */\r\n    function creditInsurees\r\n                                (\r\n                                    address _airline,\r\n                                    bytes32 _flightName,\r\n                                    uint256 _timestamp,\r\n                                    uint8 _statusCode\r\n                                )\r\n                                external\r\n    {\r\n        /// Update flight status \r\n        bytes32 _flightID = getFlightKey(_airline, _flightName, _timestamp); \r\n        // Check if the flight is registered\r\n        require(Flights[_flightID].isRegistered == true, \"Flight is not registered\");\r\n        // Check if the status of the flight has not previously been set in order to avoid multiple credit\r\n        require(Flights[_flightID].statusCode == 0, \"Status of this flight have already been set\");\r\n        // Update status for the flight\r\n        Flights[_flightID].statusCode = _statusCode;\r\n        emit statusCodeUpddated(_airline, _flightName, _timestamp, _statusCode);\r\n        /// Credit passenger sold\r\n        // Process credit only if flight is delayed\r\n        if(_statusCode > 10){\r\n            // check first if an insurance have been taken on this flight before looping through the array\r\n            require(Flights[_flightID].insuranceID.length > 0, \"There is no insurance on this flight\");\r\n            // Loop through all flight's insurance\r\n            for(uint i; i < Flights[_flightID].insuranceID.length; i++) {\r\n                bytes32 _insuranceID = Flights[_flightID].insuranceID[i];\r\n                address _passenger = Insurances[_insuranceID].passenger;\r\n                uint256 _value = Insurances[_insuranceID].value.mul(3).div(2);\r\n                // Credit passenger account according to it's insurance amount\r\n                Accounts[_passenger] = Accounts[_passenger].add(_value);\r\n                // Debit contract's account\r\n                Accounts[address(this)] = Accounts[address(this)].sub(_value);\r\n                emit passengerCredited(_airline, _flightName, _timestamp, _statusCode, _passenger, _value);\r\n            }\r\n        }\r\n    }\r\n    \r\n    /**\r\n     *  @dev Buy insurance for a flight\r\n     *\r\n    */\r\n    function buy\r\n                            (\r\n                            )\r\n                            external\r\n                            pure\r\n    {\r\n    }\r\n\r\n\r\n    /**\r\n     *  @dev Transfers eligible payout funds to insuree\r\n     *\r\n    */\r\n    function withdraw\r\n                            (\r\n                                address caller,\r\n                                uint256 _amount\r\n                                \r\n                            )\r\n                            external\r\n                            payable\r\n    {\r\n        require(Accounts[caller] >= _amount, \"You don't have sufficient funds to withdraw this amount\");\r\n        Accounts[caller] = Accounts[caller].sub(_amount);\r\n        // caller.transfer(_amount);\r\n        emit accountTransfer(caller, _amount, Accounts[caller]);\r\n    }\r\n\r\n   /**\r\n    * @dev Initial funding for the insurance. Unless there are too many delayed flights\r\n    *      resulting in insurance payouts, the contract should be self-sustaining\r\n    *\r\n    */   \r\n    function fund\r\n                            (   \r\n                                address _account,\r\n                                uint256 _value\r\n                            )\r\n                            public\r\n                            payable\r\n    {\r\n        // Transfer the amount to the contract address\r\n        // erc20.transferFrom(_account, address(this), _value);\r\n        // address(this).transfer(_value);\r\n        // Increase the balance of the contract\r\n        Accounts[address(this)] = Accounts[address(this)].add(_value);\r\n        emit funded(_account, address(this), _value);\r\n    }\r\n\r\n   /**\r\n    * @dev Get the balance of an client's account\r\n    *      A delayed flight will produce a transfer from the contract's balance to the client's account\r\n    *\r\n    */  \r\n    function getBalance\r\n                            (\r\n                                address _account\r\n                            )\r\n                            external\r\n                            view\r\n                            returns(uint256)\r\n    {\r\n        return Accounts[_account];\r\n    }\r\n\r\n   /**\r\n    * @dev Get the balance of the contract's account\r\n    *\r\n    */\r\n    function getContractBalance\r\n                            (\r\n                            )\r\n                            external\r\n                            view\r\n                            returns(uint256)\r\n    {\r\n        return Accounts[address(this)];\r\n    }\r\n\r\n\r\n    /**\r\n    * @dev Return the unique Id of a flight\r\n    *\r\n    */\r\n    function getFlightKey\r\n                        (\r\n                            address _airline,\r\n                            bytes32 _flight,\r\n                            uint256 _timestamp\r\n                        )\r\n                        pure\r\n                        internal\r\n                        returns(bytes32) \r\n    {\r\n        return keccak256(abi.encodePacked(_airline, _flight, _timestamp));\r\n    }\r\n\r\n    /**\r\n    * @dev Return the unique Id of an insurance\r\n    *\r\n    */\r\n    function getInsuranceKey\r\n                        (\r\n                            bytes32 _flightID,\r\n                            address _passenger,\r\n                            uint256 _value\r\n                        )\r\n                        pure\r\n                        internal\r\n                        returns(bytes32) \r\n    {\r\n        return keccak256(abi.encodePacked(_flightID, _passenger, _value));\r\n    }\r\n\r\n    /**\r\n    * @dev Fallback function for funding smart contract.\r\n    *\r\n    */\r\n    function() \r\n                            external \r\n                            payable \r\n    {\r\n        fund(msg.sender, msg.value);\r\n    }\r\n\r\n\r\n}\r\n\r\n",
  "sourcePath": "C:\\Users\\48his\\Documents\\TP\\Blockchain\\flightSurety_Project_Angular\\truffle\\contracts\\FlightSuretyData.sol",
  "compiler": {
    "name": "solc",
    "version": "0.4.26+commit.4563c3fc.Emscripten.clang"
  },
  "schemaVersion": "3.0.1",
  "updatedAt": "2022-09-14T09:54:19.749Z",
  "devdoc": {
    "methods": {
      "buy()": {
        "details": "Buy insurance for a flight\r     "
      },
      "buyInsurance(bytes32,uint256,address,address,uint256)": {
        "details": "Buy insurance for a flight\r     "
      },
      "creditInsurees(address,bytes32,uint256,uint8)": {
        "details": "Credits payouts to insurees\r"
      },
      "fund(address,uint256)": {
        "details": "Initial funding for the insurance. Unless there are too many delayed flights\r     resulting in insurance payouts, the contract should be self-sustaining\r     "
      },
      "getBalance(address)": {
        "details": "Get the balance of an client's account\r     A delayed flight will produce a transfer from the contract's balance to the client's account\r     "
      },
      "getContractBalance()": {
        "details": "Get the balance of the contract's account\r     "
      },
      "isOperational()": {
        "details": "Get operating status of contract\r ",
        "return": "A bool that is the current operating status\r"
      },
      "registerAirline(address)": {
        "details": "Add an airline to the registration queue\r     Can only be called from FlightSuretyApp contract\r     "
      },
      "registerFlight(bytes32,uint256,uint8,address)": {
        "details": "Add a flight \r     Can only be called from FlightSuretyApp contract\r     "
      },
      "setOperatingStatus(bool)": {
        "details": "Sets contract operations on/off\r     * When operational mode is disabled, all write transactions except for this one will fail\r"
      },
      "submitFundsAirline(address,uint256)": {
        "details": "Fund an airline\r     "
      },
      "withdraw(address,uint256)": {
        "details": "Transfers eligible payout funds to insuree\r     "
      }
    }
  },
  "userdoc": {
    "methods": {}
  }
}