{
  "contractName": "FlightSuretyData",
  "abi": [
    {
      "inputs": [],
      "payable": false,
      "stateMutability": "nonpayable",
      "type": "constructor",
      "signature": "constructor"
    },
    {
      "payable": true,
      "stateMutability": "payable",
      "type": "fallback"
    },
    {
      "anonymous": false,
      "inputs": [
        {
          "indexed": false,
          "name": "airline",
          "type": "address"
        },
        {
          "indexed": false,
          "name": "registered",
          "type": "bool"
        }
      ],
      "name": "AirlineWasRegistered",
      "type": "event",
      "signature": "0x36fcb748976a1bdfee3316dde403a404da3fcf4fe959cc8ae3ae2f996ce94048"
    },
    {
      "anonymous": false,
      "inputs": [
        {
          "indexed": false,
          "name": "airline",
          "type": "address"
        },
        {
          "indexed": false,
          "name": "amount",
          "type": "uint256"
        },
        {
          "indexed": false,
          "name": "funded",
          "type": "bool"
        }
      ],
      "name": "AirlineWasFunded",
      "type": "event",
      "signature": "0xba609ca2c265d60a151d4a5b601cfee0ff3d8af7924d2962ee4f7a81bc8ec0ad"
    },
    {
      "anonymous": false,
      "inputs": [
        {
          "indexed": false,
          "name": "airline",
          "type": "address"
        },
        {
          "indexed": false,
          "name": "contractAddress",
          "type": "address"
        },
        {
          "indexed": false,
          "name": "amount",
          "type": "uint256"
        }
      ],
      "name": "funded",
      "type": "event",
      "signature": "0x23ff421585b6cf919e066417845e1789ae18f805b862bd043f536d59c8741557"
    },
    {
      "anonymous": false,
      "inputs": [
        {
          "indexed": false,
          "name": "_flightID",
          "type": "bytes32"
        },
        {
          "indexed": false,
          "name": "_flightName",
          "type": "bytes32"
        },
        {
          "indexed": false,
          "name": "_timeStamp",
          "type": "uint256"
        },
        {
          "indexed": false,
          "name": "_statusCode",
          "type": "uint8"
        },
        {
          "indexed": false,
          "name": "_airline",
          "type": "address"
        }
      ],
      "name": "FlightWasRegistered",
      "type": "event",
      "signature": "0x93d56f69024497ac75e24638d12fdaecbaf1228b04eb880edfb3b8327102e9b8"
    },
    {
      "anonymous": false,
      "inputs": [
        {
          "indexed": false,
          "name": "insuranceID",
          "type": "bytes32"
        },
        {
          "indexed": false,
          "name": "flightName",
          "type": "bytes32"
        },
        {
          "indexed": false,
          "name": "passenger",
          "type": "address"
        },
        {
          "indexed": false,
          "name": "value",
          "type": "uint256"
        }
      ],
      "name": "newInsurance",
      "type": "event",
      "signature": "0x2030999776925c944a0cfc1d08debac0a6f111f28c477610ac24ba41acbf9139"
    },
    {
      "anonymous": false,
      "inputs": [
        {
          "indexed": false,
          "name": "_airline",
          "type": "address"
        },
        {
          "indexed": false,
          "name": "_flightName",
          "type": "bytes32"
        },
        {
          "indexed": false,
          "name": "_timestamp",
          "type": "uint256"
        },
        {
          "indexed": false,
          "name": "_statusCode",
          "type": "uint8"
        }
      ],
      "name": "statusCodeUpddated",
      "type": "event",
      "signature": "0x0ef6cae79327376e202170773341f6363e886d6ba8765474c15f56a608e6d45c"
    },
    {
      "anonymous": false,
      "inputs": [
        {
          "indexed": false,
          "name": "_airline",
          "type": "address"
        },
        {
          "indexed": false,
          "name": "_flightName",
          "type": "bytes32"
        },
        {
          "indexed": false,
          "name": "_timeStamp",
          "type": "uint256"
        },
        {
          "indexed": false,
          "name": "_statusCode",
          "type": "uint8"
        },
        {
          "indexed": false,
          "name": "_passenger",
          "type": "address"
        },
        {
          "indexed": false,
          "name": "_value",
          "type": "uint256"
        }
      ],
      "name": "passengerCredited",
      "type": "event",
      "signature": "0x54a2365208b36763d979ab499a5cdd5f65f6ff4b26f5ebb89bd53bf1842aedb7"
    },
    {
      "anonymous": false,
      "inputs": [
        {
          "indexed": false,
          "name": "_passenger",
          "type": "address"
        },
        {
          "indexed": false,
          "name": "_amount",
          "type": "uint256"
        },
        {
          "indexed": false,
          "name": "remainingSolde",
          "type": "uint256"
        }
      ],
      "name": "accountTransfer",
      "type": "event",
      "signature": "0xfb17ed526eee6cafc3954122c5fac5f166dac1d9660f051e9eed482dc186e785"
    },
    {
      "constant": false,
      "inputs": [],
      "name": "isOperational",
      "outputs": [
        {
          "name": "",
          "type": "bool"
        }
      ],
      "payable": false,
      "stateMutability": "nonpayable",
      "type": "function",
      "signature": "0xcd905dff"
    },
    {
      "constant": false,
      "inputs": [
        {
          "name": "mode",
          "type": "bool"
        }
      ],
      "name": "setOperatingStatus",
      "outputs": [],
      "payable": false,
      "stateMutability": "nonpayable",
      "type": "function",
      "signature": "0x110466ed"
    },
    {
      "constant": false,
      "inputs": [
        {
          "name": "_airline",
          "type": "address"
        }
      ],
      "name": "registerAirline",
      "outputs": [],
      "payable": false,
      "stateMutability": "nonpayable",
      "type": "function",
      "signature": "0xbdfd9877"
    },
    {
      "constant": true,
      "inputs": [
        {
          "name": "_airline",
          "type": "address"
        }
      ],
      "name": "isAirline",
      "outputs": [
        {
          "name": "",
          "type": "bool"
        }
      ],
      "payable": false,
      "stateMutability": "view",
      "type": "function",
      "signature": "0x0e248a11"
    },
    {
      "constant": true,
      "inputs": [],
      "name": "howManyRegisteredAirlines",
      "outputs": [
        {
          "name": "",
          "type": "uint256"
        }
      ],
      "payable": false,
      "stateMutability": "view",
      "type": "function",
      "signature": "0x485ace87"
    },
    {
      "constant": true,
      "inputs": [],
      "name": "whatAirlines",
      "outputs": [
        {
          "name": "",
          "type": "address[]"
        }
      ],
      "payable": false,
      "stateMutability": "view",
      "type": "function",
      "signature": "0x4c11b93c"
    },
    {
      "constant": false,
      "inputs": [
        {
          "name": "_airline",
          "type": "address"
        },
        {
          "name": "_amount",
          "type": "uint256"
        }
      ],
      "name": "submitFundsAirline",
      "outputs": [],
      "payable": true,
      "stateMutability": "payable",
      "type": "function",
      "signature": "0xc456ded0"
    },
    {
      "constant": true,
      "inputs": [
        {
          "name": "_airline",
          "type": "address"
        }
      ],
      "name": "isFundedAirline",
      "outputs": [
        {
          "name": "",
          "type": "bool"
        }
      ],
      "payable": false,
      "stateMutability": "view",
      "type": "function",
      "signature": "0xf3ba4e1b"
    },
    {
      "constant": false,
      "inputs": [
        {
          "name": "_flightName",
          "type": "bytes32"
        },
        {
          "name": "_timeStamp",
          "type": "uint256"
        },
        {
          "name": "_statusCode",
          "type": "uint8"
        },
        {
          "name": "_airline",
          "type": "address"
        }
      ],
      "name": "registerFlight",
      "outputs": [],
      "payable": false,
      "stateMutability": "nonpayable",
      "type": "function",
      "signature": "0x3de76157"
    },
    {
      "constant": true,
      "inputs": [
        {
          "name": "_airline",
          "type": "address"
        }
      ],
      "name": "whatFlight",
      "outputs": [
        {
          "name": "",
          "type": "bytes32[]"
        }
      ],
      "payable": false,
      "stateMutability": "view",
      "type": "function",
      "signature": "0xb0f54d8c"
    },
    {
      "constant": true,
      "inputs": [
        {
          "name": "_flightID",
          "type": "bytes32"
        }
      ],
      "name": "whatFlightName",
      "outputs": [
        {
          "name": "",
          "type": "bytes32"
        }
      ],
      "payable": false,
      "stateMutability": "view",
      "type": "function",
      "signature": "0x3ad9796a"
    },
    {
      "constant": true,
      "inputs": [
        {
          "name": "_flightID",
          "type": "bytes32"
        }
      ],
      "name": "whatFlightTimestamp",
      "outputs": [
        {
          "name": "",
          "type": "uint256"
        }
      ],
      "payable": false,
      "stateMutability": "view",
      "type": "function",
      "signature": "0x06fc9425"
    },
    {
      "constant": true,
      "inputs": [
        {
          "name": "_flightName",
          "type": "bytes32"
        },
        {
          "name": "_timeStamp",
          "type": "uint256"
        },
        {
          "name": "_airline",
          "type": "address"
        }
      ],
      "name": "isFlight",
      "outputs": [
        {
          "name": "",
          "type": "bool"
        }
      ],
      "payable": false,
      "stateMutability": "view",
      "type": "function",
      "signature": "0xf22de962"
    },
    {
      "constant": false,
      "inputs": [
        {
          "name": "_flightID",
          "type": "bytes32"
        }
      ],
      "name": "viewFlightSatus",
      "outputs": [
        {
          "name": "",
          "type": "uint256"
        }
      ],
      "payable": false,
      "stateMutability": "nonpayable",
      "type": "function",
      "signature": "0x2190558c"
    },
    {
      "constant": false,
      "inputs": [
        {
          "name": "_flightName",
          "type": "bytes32"
        },
        {
          "name": "_timeStamp",
          "type": "uint256"
        },
        {
          "name": "_airline",
          "type": "address"
        },
        {
          "name": "_passenger",
          "type": "address"
        },
        {
          "name": "_value",
          "type": "uint256"
        }
      ],
      "name": "buyInsurance",
      "outputs": [],
      "payable": true,
      "stateMutability": "payable",
      "type": "function",
      "signature": "0x8a906516"
    },
    {
      "constant": false,
      "inputs": [
        {
          "name": "_flightName",
          "type": "bytes32"
        },
        {
          "name": "_timeStamp",
          "type": "uint256"
        },
        {
          "name": "_airline",
          "type": "address"
        },
        {
          "name": "_passenger",
          "type": "address"
        },
        {
          "name": "_value",
          "type": "uint256"
        }
      ],
      "name": "isInsured",
      "outputs": [
        {
          "name": "",
          "type": "bool"
        }
      ],
      "payable": false,
      "stateMutability": "nonpayable",
      "type": "function",
      "signature": "0x1a0dc65d"
    },
    {
      "constant": false,
      "inputs": [
        {
          "name": "_airline",
          "type": "address"
        },
        {
          "name": "_flightName",
          "type": "bytes32"
        },
        {
          "name": "_timestamp",
          "type": "uint256"
        },
        {
          "name": "_statusCode",
          "type": "uint8"
        }
      ],
      "name": "creditInsurees",
      "outputs": [],
      "payable": false,
      "stateMutability": "nonpayable",
      "type": "function",
      "signature": "0xd34de9d8"
    },
    {
      "constant": true,
      "inputs": [],
      "name": "buy",
      "outputs": [],
      "payable": false,
      "stateMutability": "pure",
      "type": "function",
      "signature": "0xa6f2ae3a"
    },
    {
      "constant": false,
      "inputs": [
        {
          "name": "_account",
          "type": "address"
        },
        {
          "name": "_amount",
          "type": "uint256"
        }
      ],
      "name": "withdraw",
      "outputs": [],
      "payable": true,
      "stateMutability": "payable",
      "type": "function",
      "signature": "0xf3fef3a3"
    },
    {
      "constant": false,
      "inputs": [
        {
          "name": "_account",
          "type": "address"
        },
        {
          "name": "_value",
          "type": "uint256"
        }
      ],
      "name": "fund",
      "outputs": [],
      "payable": true,
      "stateMutability": "payable",
      "type": "function",
      "signature": "0x7b1837de"
    },
    {
      "constant": true,
      "inputs": [
        {
          "name": "_account",
          "type": "address"
        }
      ],
      "name": "getBalance",
      "outputs": [
        {
          "name": "",
          "type": "uint256"
        }
      ],
      "payable": false,
      "stateMutability": "view",
      "type": "function",
      "signature": "0xf8b2cb4f"
    },
    {
      "constant": true,
      "inputs": [],
      "name": "getContractBalance",
      "outputs": [
        {
          "name": "",
          "type": "uint256"
        }
      ],
      "payable": false,
      "stateMutability": "view",
      "type": "function",
      "signature": "0x6f9fb98a"
    }
  ],
  "bytecode": "0x60806040526001600260146101000a81548160ff0219169083151502179055506000600355600060045534801561003557600080fd5b5033600160006101000a81548173ffffffffffffffffffffffffffffffffffffffff021916908373ffffffffffffffffffffffffffffffffffffffff16021790555030600260006101000a81548173ffffffffffffffffffffffffffffffffffffffff021916908373ffffffffffffffffffffffffffffffffffffffff1602179055506000600481905550613009806100cf6000396000f300608060405260043610610128576000357c0100000000000000000000000000000000000000000000000000000000900463ffffffff16806306fc9425146101345780630e248a1114610179578063110466ed146101d45780631a0dc65d146102035780632190558c146102a05780633ad9796a146102e55780633de7615714610332578063485ace871461039a5780634c11b93c146103c55780636f9fb98a146104315780637b1837de1461045c5780638a9065161461049c578063a6f2ae3a14610514578063b0f54d8c1461052b578063bdfd9877146105c3578063c456ded014610606578063cd905dff14610646578063d34de9d814610675578063f22de962146106dd578063f3ba4e1b14610750578063f3fef3a3146107ab578063f8b2cb4f146107eb575b6101323334610842565b005b34801561014057600080fd5b50610163600480360381019080803560001916906020019092919050505061097a565b6040518082815260200191505060405180910390f35b34801561018557600080fd5b506101ba600480360381019080803573ffffffffffffffffffffffffffffffffffffffff169060200190929190505050610a4c565b604051808215151515815260200191505060405180910390f35b3480156101e057600080fd5b50610201600480360381019080803515159060200190929190505050610b4f565b005b34801561020f57600080fd5b50610286600480360381019080803560001916906020019092919080359060200190929190803573ffffffffffffffffffffffffffffffffffffffff169060200190929190803573ffffffffffffffffffffffffffffffffffffffff16906020019092919080359060200190929190505050610c31565b604051808215151515815260200191505060405180910390f35b3480156102ac57600080fd5b506102cf6004803603810190808035600019169060200190929190505050610d82565b6040518082815260200191505060405180910390f35b3480156102f157600080fd5b506103146004803603810190808035600019169060200190929190505050610e87565b60405180826000191660001916815260200191505060405180910390f35b34801561033e57600080fd5b50610398600480360381019080803560001916906020019092919080359060200190929190803560ff169060200190929190803573ffffffffffffffffffffffffffffffffffffffff169060200190929190505050610f59565b005b3480156103a657600080fd5b506103af611379565b6040518082815260200191505060405180910390f35b3480156103d157600080fd5b506103da61142d565b6040518080602001828103825283818151815260200191508051906020019060200280838360005b8381101561041d578082015181840152602081019050610402565b505050509050019250505060405180910390f35b34801561043d57600080fd5b50610446611565565b6040518082815260200191505060405180910390f35b61049a600480360381019080803573ffffffffffffffffffffffffffffffffffffffff16906020019092919080359060200190929190505050610842565b005b610512600480360381019080803560001916906020019092919080359060200190929190803573ffffffffffffffffffffffffffffffffffffffff169060200190929190803573ffffffffffffffffffffffffffffffffffffffff169060200190929190803590602001909291905050506115ac565b005b34801561052057600080fd5b50610529611938565b005b34801561053757600080fd5b5061056c600480360381019080803573ffffffffffffffffffffffffffffffffffffffff16906020019092919050505061193a565b6040518080602001828103825283818151815260200191508051906020019060200280838360005b838110156105af578082015181840152602081019050610594565b505050509050019250505060405180910390f35b3480156105cf57600080fd5b50610604600480360381019080803573ffffffffffffffffffffffffffffffffffffffff169060200190929190505050611a82565b005b610644600480360381019080803573ffffffffffffffffffffffffffffffffffffffff16906020019092919080359060200190929190505050611e0d565b005b34801561065257600080fd5b5061065b6122f3565b604051808215151515815260200191505060405180910390f35b34801561068157600080fd5b506106db600480360381019080803573ffffffffffffffffffffffffffffffffffffffff169060200190929190803560001916906020019092919080359060200190929190803560ff16906020019092919050505061230a565b005b3480156106e957600080fd5b50610736600480360381019080803560001916906020019092919080359060200190929190803573ffffffffffffffffffffffffffffffffffffffff16906020019092919050505061290f565b604051808215151515815260200191505060405180910390f35b34801561075c57600080fd5b50610791600480360381019080803573ffffffffffffffffffffffffffffffffffffffff1690602001909291905050506129ff565b604051808215151515815260200191505060405180910390f35b6107e9600480360381019080803573ffffffffffffffffffffffffffffffffffffffff16906020019092919080359060200190929190505050612b02565b005b3480156107f757600080fd5b5061082c600480360381019080803573ffffffffffffffffffffffffffffffffffffffff169060200190929190505050612d2a565b6040518082815260200191505060405180910390f35b61089481600960003073ffffffffffffffffffffffffffffffffffffffff1673ffffffffffffffffffffffffffffffffffffffff16815260200190815260200160002054612d7390919063ffffffff16565b600960003073ffffffffffffffffffffffffffffffffffffffff1673ffffffffffffffffffffffffffffffffffffffff168152602001908152602001600020819055507f23ff421585b6cf919e066417845e1789ae18f805b862bd043f536d59c8741557823083604051808473ffffffffffffffffffffffffffffffffffffffff1673ffffffffffffffffffffffffffffffffffffffff1681526020018373ffffffffffffffffffffffffffffffffffffffff1673ffffffffffffffffffffffffffffffffffffffff168152602001828152602001935050505060405180910390a15050565b6000600260149054906101000a900460ff161515610a26576040517f08c379a00000000000000000000000000000000000000000000000000000000081526004018080602001828103825260258152602001807f436f6e74726163742069732063757272656e746c79206e6f74206f706572617481526020017f696f6e616c00000000000000000000000000000000000000000000000000000081525060400191505060405180910390fd5b600760008360001916600019168152602001908152602001600020600301549050919050565b6000600260149054906101000a900460ff161515610af8576040517f08c379a00000000000000000000000000000000000000000000000000000000081526004018080602001828103825260258152602001807f436f6e74726163742069732063757272656e746c79206e6f74206f706572617481526020017f696f6e616c00000000000000000000000000000000000000000000000000000081525060400191505060405180910390fd5b600660008373ffffffffffffffffffffffffffffffffffffffff1673ffffffffffffffffffffffffffffffffffffffff16815260200190815260200160002060000160149054906101000a900460ff169050919050565b600160009054906101000a900473ffffffffffffffffffffffffffffffffffffffff1673ffffffffffffffffffffffffffffffffffffffff163373ffffffffffffffffffffffffffffffffffffffff16141515610c14576040517f08c379a000000000000000000000000000000000000000000000000000000000815260040180806020018281038252601c8152602001807f43616c6c6572206973206e6f7420636f6e7472616374206f776e65720000000081525060200191505060405180910390fd5b80600260146101000a81548160ff02191690831515021790555050565b6000806000610c41868989612d94565b91506001151560076000846000191660001916815260200190815260200160002060020160009054906101000a900460ff161515141515610cea576040517f08c379a00000000000000000000000000000000000000000000000000000000081526004018080602001828103825260188152602001807f466c69676874206973206e6f742072656769737465726564000000000000000081525060200191505060405180910390fd5b610cf5828686612e74565b90508473ffffffffffffffffffffffffffffffffffffffff1660086000836000191660001916815260200190815260200160002060020160009054906101000a900473ffffffffffffffffffffffffffffffffffffffff1673ffffffffffffffffffffffffffffffffffffffff161415610d725760019250610d77565b600092505b505095945050505050565b60006001151560076000846000191660001916815260200190815260200160002060020160009054906101000a900460ff161515141515610e51576040517f08c379a00000000000000000000000000000000000000000000000000000000081526004018080602001828103825260348152602001807f466c69676874206d75737420666972737420626520726567697374657265642081526020017f6265666f726520746f206765742073746174757300000000000000000000000081525060400191505060405180910390fd5b60076000836000191660001916815260200190815260200160002060020160019054906101000a900460ff1660ff169050919050565b6000600260149054906101000a900460ff161515610f33576040517f08c379a00000000000000000000000000000000000000000000000000000000081526004018080602001828103825260258152602001807f436f6e74726163742069732063757272656e746c79206e6f74206f706572617481526020017f696f6e616c00000000000000000000000000000000000000000000000000000081525060400191505060405180910390fd5b600760008360001916600019168152602001908152602001600020600101549050919050565b6000600260149054906101000a900460ff161515611005576040517f08c379a00000000000000000000000000000000000000000000000000000000081526004018080602001828103825260258152602001807f436f6e74726163742069732063757272656e746c79206e6f74206f706572617481526020017f696f6e616c00000000000000000000000000000000000000000000000000000081525060400191505060405180910390fd5b611010828686612d94565b90506000151560076000836000191660001916815260200190815260200160002060020160009054906101000a900460ff1615151415156110b9576040517f08c379a000000000000000000000000000000000000000000000000000000000815260040180806020018281038252601c8152602001807f466c6967687420697320616c726561647920726567697374657265640000000081525060200191505060405180910390fd5b806007600083600019166000191681526020019081526020016000206000018160001916905550846007600083600019166000191681526020019081526020016000206001018160001916905550600160076000836000191660001916815260200190815260200160002060020160006101000a81548160ff0219169083151502179055508260076000836000191660001916815260200190815260200160002060020160016101000a81548160ff021916908360ff16021790555083600760008360001916600019168152602001908152602001600020600301819055508160076000836000191660001916815260200190815260200160002060040160006101000a81548173ffffffffffffffffffffffffffffffffffffffff021916908373ffffffffffffffffffffffffffffffffffffffff160217905550600660008373ffffffffffffffffffffffffffffffffffffffff1673ffffffffffffffffffffffffffffffffffffffff168152602001908152602001600020600101819080600181540180825580915050906001820390600052602060002001600090919290919091509060001916905550600660008373ffffffffffffffffffffffffffffffffffffffff1673ffffffffffffffffffffffffffffffffffffffff1681526020019081526020016000206002018590806001815401808255809150509060018203906000526020600020016000909192909190915090600019169055507f93d56f69024497ac75e24638d12fdaecbaf1228b04eb880edfb3b8327102e9b8818686868660405180866000191660001916815260200185600019166000191681526020018481526020018360ff1660ff1681526020018273ffffffffffffffffffffffffffffffffffffffff1673ffffffffffffffffffffffffffffffffffffffff1681526020019550505050505060405180910390a15050505050565b6000600260149054906101000a900460ff161515611425576040517f08c379a00000000000000000000000000000000000000000000000000000000081526004018080602001828103825260258152602001807f436f6e74726163742069732063757272656e746c79206e6f74206f706572617481526020017f696f6e616c00000000000000000000000000000000000000000000000000000081525060400191505060405180910390fd5b600454905090565b6060600260149054906101000a900460ff1615156114d9576040517f08c379a00000000000000000000000000000000000000000000000000000000081526004018080602001828103825260258152602001807f436f6e74726163742069732063757272656e746c79206e6f74206f706572617481526020017f696f6e616c00000000000000000000000000000000000000000000000000000081525060400191505060405180910390fd5b600580548060200260200160405190810160405280929190818152602001828054801561155b57602002820191906000526020600020905b8160009054906101000a900473ffffffffffffffffffffffffffffffffffffffff1673ffffffffffffffffffffffffffffffffffffffff1681526020019060010190808311611511575b5050505050905090565b6000600960003073ffffffffffffffffffffffffffffffffffffffff1673ffffffffffffffffffffffffffffffffffffffff16815260200190815260200160002054905090565b6000806000600960003073ffffffffffffffffffffffffffffffffffffffff1673ffffffffffffffffffffffffffffffffffffffff1681526020019081526020016000205492506115fe868989612d94565b91506001151560076000846000191660001916815260200190815260200160002060020160009054906101000a900460ff1615151415156116a7576040517f08c379a00000000000000000000000000000000000000000000000000000000081526004018080602001828103825260188152602001807f466c69676874206973206e6f742072656769737465726564000000000000000081525060200191505060405180910390fd5b6116b2828686612e74565b90506116be8585610842565b8361171184600960003073ffffffffffffffffffffffffffffffffffffffff1673ffffffffffffffffffffffffffffffffffffffff16815260200190815260200160002054612f5490919063ffffffff16565b141515611786576040517f08c379a000000000000000000000000000000000000000000000000000000000815260040180806020018281038252601c8152602001807f46756e64732068617665206e6f74206265656e2070726f76696465640000000081525060200191505060405180910390fd5b60806040519081016040528082600019168152602001836000191681526020018673ffffffffffffffffffffffffffffffffffffffff16815260200185815250600860008360001916600019168152602001908152602001600020600082015181600001906000191690556020820151816001019060001916905560408201518160020160006101000a81548173ffffffffffffffffffffffffffffffffffffffff021916908373ffffffffffffffffffffffffffffffffffffffff160217905550606082015181600301559050506007600083600019166000191681526020019081526020016000206005018190806001815401808255809150509060018203906000526020600020016000909192909190915090600019169055507f2030999776925c944a0cfc1d08debac0a6f111f28c477610ac24ba41acbf91398189878760405180856000191660001916815260200184600019166000191681526020018373ffffffffffffffffffffffffffffffffffffffff1673ffffffffffffffffffffffffffffffffffffffff16815260200182815260200194505050505060405180910390a15050505050505050565b565b6060600260149054906101000a900460ff1615156119e6576040517f08c379a00000000000000000000000000000000000000000000000000000000081526004018080602001828103825260258152602001807f436f6e74726163742069732063757272656e746c79206e6f74206f706572617481526020017f696f6e616c00000000000000000000000000000000000000000000000000000081525060400191505060405180910390fd5b600660008373ffffffffffffffffffffffffffffffffffffffff1673ffffffffffffffffffffffffffffffffffffffff168152602001908152602001600020600101805480602002602001604051908101604052809291908181526020018280548015611a7657602002820191906000526020600020905b81546000191681526020019060010190808311611a5e575b50505050509050919050565b600260149054906101000a900460ff161515611b2c576040517f08c379a00000000000000000000000000000000000000000000000000000000081526004018080602001828103825260258152602001807f436f6e74726163742069732063757272656e746c79206e6f74206f706572617481526020017f696f6e616c00000000000000000000000000000000000000000000000000000081525060400191505060405180910390fd5b8060001515600660008373ffffffffffffffffffffffffffffffffffffffff1673ffffffffffffffffffffffffffffffffffffffff16815260200190815260200160002060000160149054906101000a900460ff161515141515611bf8576040517f08c379a000000000000000000000000000000000000000000000000000000000815260040180806020018281038252601d8152602001807f4169726c696e6520697320616c7265616479207265676973746572656400000081525060200191505060405180910390fd5b81600660008473ffffffffffffffffffffffffffffffffffffffff1673ffffffffffffffffffffffffffffffffffffffff16815260200190815260200160002060000160006101000a81548173ffffffffffffffffffffffffffffffffffffffff021916908373ffffffffffffffffffffffffffffffffffffffff1602179055506001600660008473ffffffffffffffffffffffffffffffffffffffff1673ffffffffffffffffffffffffffffffffffffffff16815260200190815260200160002060000160146101000a81548160ff0219169083151502179055506000600660008473ffffffffffffffffffffffffffffffffffffffff1673ffffffffffffffffffffffffffffffffffffffff16815260200190815260200160002060000160156101000a81548160ff021916908315150217905550611d456001600454612d7390919063ffffffff16565b6004819055507f36fcb748976a1bdfee3316dde403a404da3fcf4fe959cc8ae3ae2f996ce9404882600660008573ffffffffffffffffffffffffffffffffffffffff1673ffffffffffffffffffffffffffffffffffffffff16815260200190815260200160002060000160149054906101000a900460ff16604051808373ffffffffffffffffffffffffffffffffffffffff1673ffffffffffffffffffffffffffffffffffffffff168152602001821515151581526020019250505060405180910390a15050565b6000600260149054906101000a900460ff161515611eb9576040517f08c379a00000000000000000000000000000000000000000000000000000000081526004018080602001828103825260258152602001807f436f6e74726163742069732063757272656e746c79206e6f74206f706572617481526020017f696f6e616c00000000000000000000000000000000000000000000000000000081525060400191505060405180910390fd5b8260011515600660008373ffffffffffffffffffffffffffffffffffffffff1673ffffffffffffffffffffffffffffffffffffffff16815260200190815260200160002060000160149054906101000a900460ff161515141515611f85576040517f08c379a00000000000000000000000000000000000000000000000000000000081526004018080602001828103825260198152602001807f4169726c696e65206973206e6f7420726567697374657265640000000000000081525060200191505060405180910390fd5b8360001515600660008373ffffffffffffffffffffffffffffffffffffffff1673ffffffffffffffffffffffffffffffffffffffff16815260200190815260200160002060000160159054906101000a900460ff161515141515612051576040517f08c379a00000000000000000000000000000000000000000000000000000000081526004018080602001828103825260198152602001807f4169726c696e6520697320616c72656164792066756e6465640000000000000081525060200191505060405180910390fd5b600960003073ffffffffffffffffffffffffffffffffffffffff1673ffffffffffffffffffffffffffffffffffffffff16815260200190815260200160002054925061209d8585610842565b836120f084600960003073ffffffffffffffffffffffffffffffffffffffff1673ffffffffffffffffffffffffffffffffffffffff16815260200190815260200160002054612f5490919063ffffffff16565b141515612165576040517f08c379a000000000000000000000000000000000000000000000000000000000815260040180806020018281038252601c8152602001807f46756e64732068617665206e6f74206265656e2070726f76696465640000000081525060200191505060405180910390fd5b6001600660008773ffffffffffffffffffffffffffffffffffffffff1673ffffffffffffffffffffffffffffffffffffffff16815260200190815260200160002060000160156101000a81548160ff02191690831515021790555060058590806001815401808255809150509060018203906000526020600020016000909192909190916101000a81548173ffffffffffffffffffffffffffffffffffffffff021916908373ffffffffffffffffffffffffffffffffffffffff160217905550507fba609ca2c265d60a151d4a5b601cfee0ff3d8af7924d2962ee4f7a81bc8ec0ad8585600660008973ffffffffffffffffffffffffffffffffffffffff1673ffffffffffffffffffffffffffffffffffffffff16815260200190815260200160002060000160159054906101000a900460ff16604051808473ffffffffffffffffffffffffffffffffffffffff1673ffffffffffffffffffffffffffffffffffffffff16815260200183815260200182151515158152602001935050505060405180910390a15050505050565b6000600260149054906101000a900460ff16905090565b600080600080600061231d898989612d94565b94506001151560076000876000191660001916815260200190815260200160002060020160009054906101000a900460ff1615151415156123c6576040517f08c379a00000000000000000000000000000000000000000000000000000000081526004018080602001828103825260188152602001807f466c69676874206973206e6f742072656769737465726564000000000000000081525060200191505060405180910390fd5b600060076000876000191660001916815260200190815260200160002060020160019054906101000a900460ff1660ff16141515612492576040517f08c379a000000000000000000000000000000000000000000000000000000000815260040180806020018281038252602b8152602001807f537461747573206f66207468697320666c69676874206861766520616c72656181526020017f6479206265656e2073657400000000000000000000000000000000000000000081525060400191505060405180910390fd5b8560076000876000191660001916815260200190815260200160002060020160016101000a81548160ff021916908360ff1602179055507f0ef6cae79327376e202170773341f6363e886d6ba8765474c15f56a608e6d45c89898989604051808573ffffffffffffffffffffffffffffffffffffffff1673ffffffffffffffffffffffffffffffffffffffff16815260200184600019166000191681526020018381526020018260ff1660ff16815260200194505050505060405180910390a1600a8660ff1611156129045760006007600087600019166000191681526020019081526020016000206005018054905011151561261d576040517f08c379a00000000000000000000000000000000000000000000000000000000081526004018080602001828103825260248152602001807f5468657265206973206e6f20696e737572616e6365206f6e207468697320666c81526020017f696768740000000000000000000000000000000000000000000000000000000081525060400191505060405180910390fd5b5b60076000866000191660001916815260200190815260200160002060050180549050841015612903576007600086600019166000191681526020019081526020016000206005018481548110151561267257fe5b9060005260206000200154925060086000846000191660001916815260200190815260200160002060020160009054906101000a900473ffffffffffffffffffffffffffffffffffffffff16915061270560026126f7600360086000886000191660001916815260200190815260200160002060030154612f7590919063ffffffff16565b612fb390919063ffffffff16565b905061275981600960008573ffffffffffffffffffffffffffffffffffffffff1673ffffffffffffffffffffffffffffffffffffffff16815260200190815260200160002054612d7390919063ffffffff16565b600960008473ffffffffffffffffffffffffffffffffffffffff1673ffffffffffffffffffffffffffffffffffffffff168152602001908152602001600020819055506127ee81600960003073ffffffffffffffffffffffffffffffffffffffff1673ffffffffffffffffffffffffffffffffffffffff16815260200190815260200160002054612f5490919063ffffffff16565b600960003073ffffffffffffffffffffffffffffffffffffffff1673ffffffffffffffffffffffffffffffffffffffff168152602001908152602001600020819055507f54a2365208b36763d979ab499a5cdd5f65f6ff4b26f5ebb89bd53bf1842aedb7898989898686604051808773ffffffffffffffffffffffffffffffffffffffff1673ffffffffffffffffffffffffffffffffffffffff16815260200186600019166000191681526020018581526020018460ff1660ff1681526020018373ffffffffffffffffffffffffffffffffffffffff1673ffffffffffffffffffffffffffffffffffffffff168152602001828152602001965050505050505060405180910390a1838060010194505061261e565b5b505050505050505050565b600080600260149054906101000a900460ff1615156129bc576040517f08c379a00000000000000000000000000000000000000000000000000000000081526004018080602001828103825260258152602001807f436f6e74726163742069732063757272656e746c79206e6f74206f706572617481526020017f696f6e616c00000000000000000000000000000000000000000000000000000081525060400191505060405180910390fd5b6129c7838686612d94565b905060076000826000191660001916815260200190815260200160002060020160009054906101000a900460ff169150509392505050565b6000600260149054906101000a900460ff161515612aab576040517f08c379a00000000000000000000000000000000000000000000000000000000081526004018080602001828103825260258152602001807f436f6e74726163742069732063757272656e746c79206e6f74206f706572617481526020017f696f6e616c00000000000000000000000000000000000000000000000000000081525060400191505060405180910390fd5b600660008373ffffffffffffffffffffffffffffffffffffffff1673ffffffffffffffffffffffffffffffffffffffff16815260200190815260200160002060000160159054906101000a900460ff169050919050565b80600960008473ffffffffffffffffffffffffffffffffffffffff1673ffffffffffffffffffffffffffffffffffffffff1681526020019081526020016000205410151515612bdf576040517f08c379a00000000000000000000000000000000000000000000000000000000081526004018080602001828103825260378152602001807f596f7520646f6e277420686176652073756666696369656e742066756e64732081526020017f746f207769746864726177207468697320616d6f756e7400000000000000000081525060400191505060405180910390fd5b612c3181600960008573ffffffffffffffffffffffffffffffffffffffff1673ffffffffffffffffffffffffffffffffffffffff16815260200190815260200160002054612f5490919063ffffffff16565b600960008473ffffffffffffffffffffffffffffffffffffffff1673ffffffffffffffffffffffffffffffffffffffff168152602001908152602001600020819055507ffb17ed526eee6cafc3954122c5fac5f166dac1d9660f051e9eed482dc186e7858282600960008673ffffffffffffffffffffffffffffffffffffffff1673ffffffffffffffffffffffffffffffffffffffff16815260200190815260200160002054604051808473ffffffffffffffffffffffffffffffffffffffff1673ffffffffffffffffffffffffffffffffffffffff168152602001838152602001828152602001935050505060405180910390a15050565b6000600960008373ffffffffffffffffffffffffffffffffffffffff1673ffffffffffffffffffffffffffffffffffffffff168152602001908152602001600020549050919050565b6000808284019050838110151515612d8a57600080fd5b8091505092915050565b6000838383604051602001808473ffffffffffffffffffffffffffffffffffffffff1673ffffffffffffffffffffffffffffffffffffffff166c01000000000000000000000000028152601401836000191660001916815260200182815260200193505050506040516020818303038152906040526040518082805190602001908083835b602083101515612e3e5780518252602082019150602081019050602083039250612e19565b6001836020036101000a038019825116818451168082178552505050505050905001915050604051809103902090509392505050565b60008383836040516020018084600019166000191681526020018373ffffffffffffffffffffffffffffffffffffffff1673ffffffffffffffffffffffffffffffffffffffff166c0100000000000000000000000002815260140182815260200193505050506040516020818303038152906040526040518082805190602001908083835b602083101515612f1e5780518252602082019150602081019050602083039250612ef9565b6001836020036101000a038019825116818451168082178552505050505050905001915050604051809103902090509392505050565b600080838311151515612f6657600080fd5b82840390508091505092915050565b6000806000841415612f8a5760009150612fac565b8284029050828482811515612f9b57fe5b04141515612fa857600080fd5b8091505b5092915050565b600080600083111515612fc557600080fd5b8284811515612fd057fe5b04905080915050929150505600a165627a7a72305820c398fc49fe18b32d3dc639b3522ddc6619809da1eae3503bc7289d1b7b86ed600029",
  "source": "pragma solidity ^0.4.25;\r\n\r\nimport \"../../node_modules/openzeppelin-solidity/contracts/math/SafeMath.sol\";\r\nimport \"../../node_modules/openzeppelin-solidity/contracts/token/ERC20/ERC20.sol\";\r\n\r\ncontract FlightSuretyData {\r\n    using SafeMath for uint256;\r\n    ERC20 erc20;\r\n\r\n    /********************************************************************************************/\r\n    /*                                       DATA VARIABLES                                     */\r\n    /********************************************************************************************/\r\n\r\n    address private contractOwner;          // Account used to deploy contract\r\n    address private contractAddress;\r\n    bool private operational = true;        // Blocks all state changes throughout the contract if false\r\n\r\n    uint256 private totalBalance = 0;       // total of funds raised by companies\r\n    uint256 private totalAirlines = 0;      // totalt number of registered airlines\r\n\r\n    // Array to keep trace of registered and funded airlines\r\n    address[] activeAirlines;\r\n\r\n    struct Airline {\r\n        address airline;\r\n        bool registered;\r\n        bool funded;\r\n        bytes32[] flightID;\r\n        bytes32[] flightName;\r\n    }\r\n\r\n    mapping (address => Airline) Airlines;\r\n\r\n    // flight structure\r\n    struct Flight {\r\n        bytes32 flightsID;\r\n        bytes32 flightName;\r\n        bool isRegistered;\r\n        uint8 statusCode;\r\n        uint256 updatedTimestamp;   \r\n        address airline;     \r\n        bytes32[] insuranceID;\r\n    }\r\n\r\n    mapping (bytes32 => Flight) Flights;\r\n\r\n    struct Insurance {\r\n        bytes32 insuranceID;\r\n        bytes32 flightID;\r\n        address passenger;\r\n        uint256 value;\r\n    }\r\n\r\n    mapping (bytes32 => Insurance) Insurances;\r\n\r\n\r\n    mapping (address => uint256) Accounts;\r\n\r\n/********************************************************************************************/\r\n    /*                                       FUNCTION MODIFIERS                                 */\r\n    /********************************************************************************************/\r\n\r\n    // Modifiers help avoid duplication of code. They are typically used to validate something\r\n    // before a function is allowed to be executed.\r\n\r\n    /**\r\n    * @dev Modifier that requires the \"operational\" boolean variable to be \"true\"\r\n    *      This is used on all state changing functions to pause the contract in \r\n    *      the event there is an issue that needs to be fixed\r\n    */\r\n    modifier requireIsOperational() \r\n    {\r\n        require(operational, \"Contract is currently not operational\");\r\n        _;  // All modifiers require an \"_\" which indicates where the function body will be added\r\n    }\r\n\r\n    /**\r\n    * @dev Modifier that requires the \"ContractOwner\" account to be the function caller\r\n    */\r\n    modifier requireContractOwner()\r\n    {\r\n        require(msg.sender == contractOwner, \"Caller is not contract owner\");\r\n        _;\r\n    }\r\n\r\n    modifier requireIsRegistered(address _airline)\r\n    {\r\n        require(Airlines[_airline].registered == true, \"Airline is not registered\");\r\n        _;\r\n    }\r\n\r\n    modifier requireIsNotRegistered(address _airline)\r\n    {\r\n        require(Airlines[_airline].registered == false, \"Airline is already registered\");\r\n        _;\r\n    }\r\n    modifier requireIsNotFunded(address _airline)\r\n    {\r\n        require(Airlines[_airline].funded == false, \"Airline is already funded\");\r\n        _;\r\n    }\r\n\r\n    modifier requireIsFlightRegistered(address _airline)\r\n    {\r\n        require(Airlines[_airline].registered == true, \"Airline is not registered\");\r\n        _;\r\n    }\r\n\r\n    /********************************************************************************************/\r\n    /*                                       EVENT DECLARATION                                */\r\n    /********************************************************************************************/\r\n\r\n    event AirlineWasRegistered(address airline, bool registered);\r\n    event AirlineWasFunded(address airline, uint256 amount, bool funded);\r\n    event funded(address airline, address contractAddress, uint256 amount);\r\n    event FlightWasRegistered(bytes32 _flightID, bytes32 _flightName, uint256 _timeStamp, uint8 _statusCode, address _airline);\r\n    event newInsurance(bytes32 insuranceID, bytes32 flightName, address passenger, uint256 value);\r\n    event statusCodeUpddated(address _airline, bytes32 _flightName, uint256 _timestamp, uint8 _statusCode);\r\n    event passengerCredited(address _airline, bytes32 _flightName, uint256 _timeStamp, uint8 _statusCode, address _passenger, uint256 _value);\r\n    event accountTransfer(address _passenger, uint256 _amount, uint256 remainingSolde);\r\n\r\n    /********************************************************************************************/\r\n    /*                                         CONSTRUCTOR                                      */\r\n    /********************************************************************************************/\r\n\r\n    /**\r\n    * @dev Constructor\r\n    *      The deploying account becomes contractOwner\r\n    */\r\n    constructor\r\n                                (\r\n                                ) \r\n                                public \r\n    {\r\n        contractOwner = msg.sender;\r\n        contractAddress = address(this);\r\n        totalAirlines = 0;\r\n    }\r\n\r\n\r\n    /********************************************************************************************/\r\n    /*                                       UTILITY FUNCTIONS                                  */\r\n    /********************************************************************************************/\r\n\r\n    /**\r\n    * @dev Get operating status of contract\r\n    *\r\n    * @return A bool that is the current operating status\r\n    */      \r\n    function isOperational() \r\n                            external \r\n                            returns(bool) \r\n    {\r\n        return operational;\r\n    }\r\n\r\n\r\n    /**\r\n    * @dev Sets contract operations on/off\r\n    *\r\n    * When operational mode is disabled, all write transactions except for this one will fail\r\n    */    \r\n    function setOperatingStatus\r\n                            (\r\n                                bool mode\r\n                            ) \r\n                            external\r\n                            requireContractOwner \r\n    {\r\n        operational = mode;\r\n    }\r\n\r\n    /********************************************************************************************/\r\n    /*                                     SMART CONTRACT FUNCTIONS                             */\r\n    /********************************************************************************************/\r\n\r\n   /**\r\n    * @dev Add an airline to the registration queue\r\n    *      Can only be called from FlightSuretyApp contract\r\n    *\r\n    */   \r\n    function registerAirline\r\n                            (   \r\n                                address _airline\r\n                            )\r\n                            external\r\n                            requireIsOperational\r\n                            requireIsNotRegistered(_airline)\r\n    {\r\n        // Initiate airline into Airlines mapping\r\n        Airlines[_airline].airline = _airline;\r\n        Airlines[_airline].registered = true;\r\n        Airlines[_airline].funded = false;\r\n        // Add 1 to the airline's count\r\n        totalAirlines = totalAirlines.add(1);\r\n        // emit event\r\n        emit AirlineWasRegistered(_airline, Airlines[_airline].registered);\r\n    }\r\n\r\n    // Return true if an airline is registered\r\n    function isAirline \r\n                        (\r\n                            address _airline \r\n                        )\r\n                        external \r\n                        view \r\n                        requireIsOperational\r\n                        returns(bool)\r\n    {\r\n        return Airlines[_airline].registered;\r\n    }\r\n\r\n    // Return the number of registered airlines\r\n    function howManyRegisteredAirlines \r\n                        ()\r\n                        external\r\n                        view\r\n                        requireIsOperational \r\n                        returns(uint256)\r\n    {\r\n        return totalAirlines;\r\n    }\r\n\r\n    // Return the list of registered airlines\r\n    function whatAirlines \r\n                        ()\r\n                        external\r\n                        view\r\n                        requireIsOperational \r\n                        returns(address[])\r\n    {\r\n        return activeAirlines;\r\n    }\r\n\r\n   /**\r\n    * @dev Fund an airline\r\n    *\r\n    */   \r\n    function submitFundsAirline\r\n                            (   \r\n                                address _airline,\r\n                                uint256 _amount\r\n                            )\r\n                            external\r\n                            payable\r\n                            requireIsOperational\r\n                            requireIsRegistered(_airline)\r\n                            requireIsNotFunded(_airline)\r\n\r\n    {\r\n        // Store the actual balance of the contract\r\n        uint256 beforeBalance = Accounts[address(this)];\r\n        // Send the amount to the fund function\r\n        // to transfer the amount to the contract address\r\n        // and add the amount to the contract balance\r\n        fund(_airline, _amount);\r\n        // Check if the balance has been increased\r\n        require(Accounts[address(this)].sub(beforeBalance) == _amount, \"Funds have not been provided\");\r\n        // Mark the airline as \"funded\"\r\n        \r\n        // Airlines[_airline] = Airline({airline: _airline, registered: true, funded: true, flight: });\r\n        Airlines[_airline].funded = true;\r\n        activeAirlines.push(_airline);\r\n        emit AirlineWasFunded(_airline, _amount, Airlines[_airline].funded);\r\n    }\r\n\r\n    // Return true if an airline is funded\r\n    function isFundedAirline \r\n                        (\r\n                            address _airline \r\n                        )\r\n                        external\r\n                        view \r\n                        requireIsOperational\r\n                        returns(bool)\r\n    {\r\n        return Airlines[_airline].funded;\r\n    }\r\n\r\n   /**\r\n    * @dev Add a flight \r\n    *      Can only be called from FlightSuretyApp contract\r\n    *\r\n    */ \r\n\r\n    function registerFlight\r\n                            (   \r\n                                bytes32 _flightName,\r\n                                uint256 _timeStamp,\r\n                                uint8 _statusCode,\r\n                                address _airline\r\n                            )\r\n                            external\r\n                            requireIsOperational\r\n    {\r\n        // Get a unique 32 bytes ID to the flight given airline, flight name and timestamp\r\n        bytes32 _flightID = getFlightKey(_airline, _flightName, _timeStamp);\r\n        // Check if the flight has not been registered yet\r\n        require(Flights[_flightID].isRegistered == false, \"Flight is already registered\");\r\n        // Initiate flight into flight's mapping\r\n        Flights[_flightID].flightsID = _flightID;\r\n        Flights[_flightID].flightName = _flightName;\r\n        Flights[_flightID].isRegistered = true;\r\n        Flights[_flightID].statusCode = _statusCode;\r\n        Flights[_flightID].updatedTimestamp = _timeStamp;\r\n        Flights[_flightID].airline = _airline;\r\n        // Add flight ID to Airline in airlines mapping\r\n        Airlines[_airline].flightID.push(_flightID);\r\n        Airlines[_airline].flightName.push(bytes32(_flightName));\r\n        // Emit event\r\n        emit FlightWasRegistered(_flightID, _flightName, _timeStamp, _statusCode, _airline);\r\n    }\r\n\r\n    // Return the list of registered flight by airlines\r\n    function whatFlight\r\n                        (\r\n                            address _airline\r\n                        )\r\n                        external\r\n                        view\r\n                        requireIsOperational \r\n                        returns(bytes32[])\r\n    {\r\n        return Airlines[_airline].flightID;\r\n    }\r\n\r\n    // Return the list of flight's name\r\n    function whatFlightName\r\n                        (\r\n                            bytes32 _flightID\r\n                        )\r\n                        external\r\n                        view\r\n                        requireIsOperational \r\n                        returns(bytes32)\r\n    {\r\n        return Flights[_flightID].flightName;\r\n    }\r\n\r\n    // Return the list of flight's name\r\n    function whatFlightTimestamp\r\n                        (\r\n                            bytes32 _flightID\r\n                        )\r\n                        external\r\n                        view\r\n                        requireIsOperational \r\n                        returns(uint256)\r\n    {\r\n        return Flights[_flightID].updatedTimestamp;\r\n    }\r\n\r\n    // Return true if flight is registered\r\n    function isFlight \r\n                        (\r\n                            bytes32 _flightName,\r\n                            uint256 _timeStamp,\r\n                            address _airline\r\n                        )\r\n                        external\r\n                        view \r\n                        requireIsOperational\r\n                        returns(bool)\r\n    {\r\n        bytes32 _flightID = getFlightKey(_airline, _flightName, _timeStamp);\r\n        return Flights[_flightID].isRegistered;\r\n    }\r\n\r\n    // Return status code of a flight\r\n    function viewFlightSatus \r\n                            (\r\n                            bytes32 _flightID                           \r\n                            )\r\n                            returns(uint256)\r\n    {\r\n        // Check if flight is registered\r\n        require(Flights[_flightID].isRegistered == true, \"Flight must first be registered before to get status\");\r\n        return Flights[_flightID].statusCode;  \r\n    }\r\n\r\n   /**\r\n    * @dev Buy insurance for a flight\r\n    *\r\n    */   \r\n    function buyInsurance\r\n                            (   \r\n                                    bytes32 _flightName,\r\n                                    uint256 _timeStamp,\r\n                                    address _airline,\r\n                                    address _passenger,\r\n                                    uint256 _value                       \r\n                            )\r\n                            external\r\n                            payable\r\n    {\r\n        // Record account balance before it changes\r\n        uint256 beforeBalance = Accounts[address(this)];\r\n        // Get a unique 32 bytes ID to flight given airline, flight name and timestamp\r\n        bytes32 _flightID = getFlightKey(_airline, _flightName, _timeStamp); \r\n        // Check if flight is registered\r\n        require(Flights[_flightID].isRegistered == true, \"Flight is not registered\");\r\n        // Get a unique 32 bytes ID to insurance given flight id, passenger address and amount given.\r\n        bytes32 _insuranceID = getInsuranceKey(_flightID, _passenger, _value); \r\n        // Fund contract with insurance\r\n        fund(_passenger, _value);\r\n        // Check if the balance has been increased\r\n        require(Accounts[address(this)].sub(beforeBalance) == _value, \"Funds have not been provided\");\r\n        // Initiate insurance in insurance mapping\r\n        Insurances[_insuranceID] = Insurance({insuranceID: _insuranceID, flightID: _flightID, passenger: _passenger, value: _value});\r\n        // Add insurance ID to flight in flights mapping\r\n        Flights[_flightID].insuranceID.push(_insuranceID);\r\n        // Emit event\r\n        emit newInsurance(_insuranceID, _flightName, _passenger, _value);\r\n    }\r\n\r\n    // return true if the passenger is insured for a flight\r\n    function isInsured\r\n                        (\r\n                            bytes32 _flightName,\r\n                            uint256 _timeStamp,\r\n                            address _airline,\r\n                            address _passenger,\r\n                            uint256 _value\r\n                        )\r\n                        returns(bool)\r\n    {\r\n        // Get a unique 32 bytes ID to the flight given airline, flight name and timestamp\r\n        bytes32 _flightID = getFlightKey(_airline, _flightName, _timeStamp); \r\n        // Check if the flight is registered\r\n        require(Flights[_flightID].isRegistered == true, \"Flight is not registered\");\r\n        // Get a unique 32 bytes ID to the insurance given flight id, passenger address and amount given.\r\n        bytes32 _insuranceID = getInsuranceKey(_flightID, _passenger, _value);\r\n        // check if insurance has been initiate\r\n        if(Insurances[_insuranceID].passenger == _passenger) return true;   \r\n        return false;\r\n    }\r\n\r\n    /**\r\n     *  @dev Credits payouts to insurees\r\n    */\r\n    function creditInsurees\r\n                                (\r\n                                    address _airline,\r\n                                    bytes32 _flightName,\r\n                                    uint256 _timestamp,\r\n                                    uint8 _statusCode\r\n                                )\r\n                                external\r\n    {\r\n        /// Update flight status \r\n        bytes32 _flightID = getFlightKey(_airline, _flightName, _timestamp); \r\n        // Check if the flight is registered\r\n        require(Flights[_flightID].isRegistered == true, \"Flight is not registered\");\r\n        // Check if the status of the flight has not previously been set in order to avoid multiple credit\r\n        require(Flights[_flightID].statusCode == 0, \"Status of this flight have already been set\");\r\n        // Update status for the flight\r\n        Flights[_flightID].statusCode = _statusCode;\r\n        emit statusCodeUpddated(_airline, _flightName, _timestamp, _statusCode);\r\n        /// Credit passenger sold\r\n        // Process credit only if flight is delayed\r\n        if(_statusCode > 10){\r\n            // check first if an insurance have been taken on this flight before looping through the array\r\n            require(Flights[_flightID].insuranceID.length > 0, \"There is no insurance on this flight\");\r\n            // Loop through all flight's insurance\r\n            for(uint i; i < Flights[_flightID].insuranceID.length; i++) {\r\n                bytes32 _insuranceID = Flights[_flightID].insuranceID[i];\r\n                address _passenger = Insurances[_insuranceID].passenger;\r\n                uint256 _value = Insurances[_insuranceID].value.mul(3).div(2);\r\n                // Credit passenger account according to it's insurance amount\r\n                Accounts[_passenger] = Accounts[_passenger].add(_value);\r\n                // Debit contract's account\r\n                Accounts[address(this)] = Accounts[address(this)].sub(_value);\r\n                emit passengerCredited(_airline, _flightName, _timestamp, _statusCode, _passenger, _value);\r\n            }\r\n        }\r\n    }\r\n    \r\n    /**\r\n     *  @dev Buy insurance for a flight\r\n     *\r\n    */\r\n    function buy\r\n                            (\r\n                            )\r\n                            external\r\n                            pure\r\n    {\r\n    }\r\n\r\n\r\n    /**\r\n     *  @dev Transfers eligible payout funds to insuree\r\n     *\r\n    */\r\n    function withdraw\r\n                            (\r\n                                address _account,\r\n                                uint256 _amount\r\n                            )\r\n                            external\r\n                            payable\r\n    {\r\n        require(Accounts[_account] >= _amount, \"You don't have sufficient funds to withdraw this amount\");\r\n        Accounts[_account] = Accounts[_account].sub(_amount);\r\n        // _account.transfer(_amount);\r\n        emit accountTransfer(_account, _amount, Accounts[_account]);\r\n    }\r\n\r\n   /**\r\n    * @dev Initial funding for the insurance. Unless there are too many delayed flights\r\n    *      resulting in insurance payouts, the contract should be self-sustaining\r\n    *\r\n    */   \r\n    function fund\r\n                            (   \r\n                                address _account,\r\n                                uint256 _value\r\n                            )\r\n                            public\r\n                            payable\r\n    {\r\n        // Transfer the amount to the contract address\r\n        // erc20.transferFrom(_account, address(this), _value);\r\n        // address(this).transfer(_value);\r\n        // Increase the balance of the contract\r\n        Accounts[address(this)] = Accounts[address(this)].add(_value);\r\n        emit funded(_account, address(this), _value);\r\n    }\r\n\r\n    function getBalance\r\n                            (\r\n                                address _account\r\n                            )\r\n                            external\r\n                            view\r\n                            returns(uint256)\r\n    {\r\n        return Accounts[_account];\r\n    }\r\n\r\n    function getContractBalance\r\n                            (\r\n                            )\r\n                            external\r\n                            view\r\n                            returns(uint256)\r\n    {\r\n        return Accounts[address(this)];\r\n    }\r\n\r\n    function getFlightKey\r\n                        (\r\n                            address _airline,\r\n                            bytes32 _flight,\r\n                            uint256 _timestamp\r\n                        )\r\n                        pure\r\n                        internal\r\n                        returns(bytes32) \r\n    {\r\n        return keccak256(abi.encodePacked(_airline, _flight, _timestamp));\r\n    }\r\n\r\n        function getInsuranceKey\r\n                        (\r\n                            bytes32 _flightID,\r\n                            address _passenger,\r\n                            uint256 _value\r\n                        )\r\n                        pure\r\n                        internal\r\n                        returns(bytes32) \r\n    {\r\n        return keccak256(abi.encodePacked(_flightID, _passenger, _value));\r\n    }\r\n\r\n    /**\r\n    * @dev Fallback function for funding smart contract.\r\n    *\r\n    */\r\n    function() \r\n                            external \r\n                            payable \r\n    {\r\n        fund(msg.sender, msg.value);\r\n    }\r\n\r\n\r\n}\r\n\r\n",
  "sourcePath": "C:\\Users\\48his\\Documents\\TP\\Blockchain\\flightSurety_Project_Angular\\truffle\\contracts\\FlightSuretyData.sol",
  "compiler": {
    "name": "solc",
    "version": "0.4.26+commit.4563c3fc.Emscripten.clang"
  },
  "schemaVersion": "3.0.1",
  "updatedAt": "2022-09-11T13:27:01.155Z",
  "devdoc": {
    "methods": {
      "buy()": {
        "details": "Buy insurance for a flight\r     "
      },
      "buyInsurance(bytes32,uint256,address,address,uint256)": {
        "details": "Buy insurance for a flight\r     "
      },
      "creditInsurees(address,bytes32,uint256,uint8)": {
        "details": "Credits payouts to insurees\r"
      },
      "fund(address,uint256)": {
        "details": "Initial funding for the insurance. Unless there are too many delayed flights\r     resulting in insurance payouts, the contract should be self-sustaining\r     "
      },
      "isOperational()": {
        "details": "Get operating status of contract\r ",
        "return": "A bool that is the current operating status\r"
      },
      "registerAirline(address)": {
        "details": "Add an airline to the registration queue\r     Can only be called from FlightSuretyApp contract\r     "
      },
      "registerFlight(bytes32,uint256,uint8,address)": {
        "details": "Add a flight \r     Can only be called from FlightSuretyApp contract\r     "
      },
      "setOperatingStatus(bool)": {
        "details": "Sets contract operations on/off\r     * When operational mode is disabled, all write transactions except for this one will fail\r"
      },
      "submitFundsAirline(address,uint256)": {
        "details": "Fund an airline\r     "
      },
      "withdraw(address,uint256)": {
        "details": "Transfers eligible payout funds to insuree\r     "
      }
    }
  },
  "userdoc": {
    "methods": {}
  }
}